:020000040800F2
:1000000000500020F91E0008111D0008171D0008EF
:100010001D1D0008231D0008291D00080000000008
:10002000000000000000000000000000816C0008DB
:100030002F1D000800000000616E00083B1D000835
:10004000411F0008411F0008411F0008411F000810
:10005000411F0008411F0008411F0008411F000800
:10006000411F0008411F0008411F0008411F0008F0
:10007000411F0008411F0008411F0008411F0008E0
:10008000411F0008411F0008411F0008411F0008D0
:10009000411F0008411F0008411F0008411F0008C0
:1000A000411F0008411F0008411F0008411F0008B0
:1000B000411F0008411F0008411F0008411F0008A0
:1000C000411F0008411F0008411F0008411F000890
:1000D000411F0008591D0008411F0008411F00086A
:1000E000411F0008411F0008411F000800000000D8
:1000F0000000000000000000000000000000000000
:0C01000000000000000000005FF808F1A3
:1001100010B5054C237833B9044B13B10448AFF341
:1001200000800123237010BDE001002000000000CA
:10013000889E000808B5034B1BB103490348AFF381
:10014000008008BD00000000E4010020889E000837
:10015000034613F8012B002AFBD1181A0138704707
:1001600081F0004102E000BF83F0004330B54FEA68
:1001700041044FEA430594EA050F08BF90EA020FD5
:100180001FBF54EA000C55EA020C7FEA645C7FEA68
:10019000655C00F0E2804FEA5454D4EB5555B8BF8B
:1001A0006D420CDD2C4480EA020281EA030382EAFC
:1001B000000083EA010180EA020281EA0303362D8E
:1001C00088BF30BD11F0004F4FEA01314FF4801C61
:1001D0004CEA113102D0404261EB410113F0004F73
:1001E0004FEA03334CEA133302D0524263EB43032A
:1001F00094EA050F00F0A780A4F10104D5F1200EC8
:100200000DDB02FA0EFC22FA05F2801841F1000122
:1002100003FA0EF2801843FA05F359410EE0A5F1F6
:1002200020050EF1200E012A03FA0EFC28BF4CF027
:10023000020C43FA05F3C01851EBE37101F00045DD
:1002400007D54FF0000EDCF1000C7EEB00006EEBEA
:100250000101B1F5801F1BD3B1F5001F0CD3490874
:100260005FEA30004FEA3C0C04F101044FEA4452CB
:1002700012F5800F80F09A80BCF1004F08BF5FEA52
:10028000500C50F1000041EB045141EA050130BD32
:100290005FEA4C0C404141EB0101013C28BFB1F544
:1002A000801FE9D291F0000F04BF01460020B1FA8F
:1002B00081F308BF2033A3F10B03B3F120020CDA62
:1002C0000C3208DD02F1140CC2F10C0201FA0CF040
:1002D00021FA02F10CE002F11402D8BFC2F1200CA5
:1002E00001FA02F120FA0CFCDCBF41EA0C0190405B
:1002F000E41AA2BF01EB0451294330BD6FEA0404A4
:100300001F3C1CDA0C340EDC04F11404C4F120028E
:1003100020FA04F001FA02F340EA030021FA04F3A0
:1003200045EA030130BDC4F10C04C4F1200220FAF7
:1003300002F001FA04F340EA0300294630BD21FA35
:1003400004F0294630BD94F0000F83F4801306BFFB
:1003500081F480110134013D4EE77FEA645C18BFEF
:100360007FEA655C29D094EA050F08BF90EA020F86
:1003700005D054EA000C04BF1946104630BD91EA7E
:10038000030F1EBF0021002030BD5FEA545C05D181
:100390004000494128BF41F0004130BD14F58004C0
:1003A0003CBF01F5801130BD01F0004545F0FE4134
:1003B00041F470014FF0000030BD7FEA645C1ABF69
:1003C000194610467FEA655C1CBF0B46024650EAA0
:1003D000013406BF52EA033591EA030F41F40021CC
:1003E00030BD00BF90F0000F04BF0021704730B552
:1003F0004FF4806404F132044FF000054FF0000127
:1004000050E700BF90F0000F04BF0021704730B5E7
:100410004FF4806404F1320410F0004548BF4042BC
:100420004FF000013EE700BF42004FEAE2014FEA11
:1004300031014FEA02701FBF12F07F4393F07F4FEC
:1004400081F06051704732F07F4208BF704793F0EF
:100450007F4F04BF41F40021704730B54FF4607402
:1004600001F0004521F000411CE700BF50EA010205
:1004700008BF704730B54FF000050AE050EA0102AE
:1004800008BF704730B511F0004502D5404261EB1E
:1004900041014FF4806404F132045FEA915C3FF45F
:1004A000D8AE4FF003025FEADC0C18BF03325FEAFC
:1004B000DC0C18BF033202EBDC02C2F1200300FAAD
:1004C00003FC20FA02F001FA03FE40EA0E0021FAD2
:1004D00002F11444BDE600BF70B54FF0FF0C4CF4C0
:1004E000E06C1CEA11541DBF1CEA135594EA0C0F72
:1004F00095EA0C0F00F0DEF82C4481EA030621EAAD
:100500004C5123EA4C5350EA013518BF52EA0335E7
:1005100041F4801143F4801338D0A0FB02CE4FF099
:100520000005E1FB02E506F00042E0FB03E54FF0C9
:100530000006E1FB03569CF0000F18BF4EF0010EC1
:10054000A4F1FF04B6F5007F64F5407404D25FEABD
:100550004E0E6D4146EB060642EAC62141EA555170
:100560004FEAC52040EA5E504FEACE2EB4F1FD0CB2
:1005700088BFBCF5E06F1ED8BEF1004F08BF5FEA30
:10058000500E50F1000041EB045170BD06F00046E2
:1005900046EA010140EA020081EA0301B4EB5C048F
:1005A000C2BFD4EB0C0541EA045170BD41F4801187
:1005B0004FF0000E013C00F3AB8014F1360FDEBFAC
:1005C000002001F0004170BDC4F10004203C35DA88
:1005D0000C341BDC04F11404C4F1200500FA05F30B
:1005E00020FA04F001FA05F240EA020001F00042AC
:1005F00021F0004110EBD37021FA04F642EB060122
:100600005EEA430E08BF20EAD37070BDC4F10C044B
:10061000C4F1200500FA04F320FA05F001FA04F20F
:1006200040EA020001F0004110EBD37041F10001FB
:100630005EEA430E08BF20EAD37070BDC4F1200506
:1006400000FA05F24EEA020E20FA04F301FA05F26E
:1006500043EA020321FA04F001F0004121FA04F216
:1006600020EA020000EBD3705EEA430E08BF20EAE6
:10067000D37070BD94F0000F0FD101F00046400020
:1006800041EB010111F4801F08BF013CF7D041EAA2
:10069000060195F0000F18BF704703F000465200A6
:1006A00043EB030313F4801F08BF013DF7D043EA77
:1006B0000603704794EA0C0F0CEA135518BF95EA2D
:1006C0000C0F0CD050EA410618BF52EA4306D1D1B4
:1006D00081EA030101F000414FF0000070BD50EAD3
:1006E000410606BF1046194652EA430619D094EA5D
:1006F0000C0F02D150EA013613D195EA0C0F05D147
:1007000052EA03361CBF104619460AD181EA03019A
:1007100001F0004141F0FE4141F470014FF0000052
:1007200070BD41F0FE4141F4780170BD70B54FF0ED
:10073000FF0C4CF4E06C1CEA11541DBF1CEA13556D
:1007400094EA0C0F95EA0C0F00F0A7F8A4EB05044F
:1007500081EA030E52EA03354FEA013100F0888046
:100760004FEA03334FF0805545EA131343EA12630F
:100770004FEA022245EA111545EA10654FEA0026C4
:100780000EF000419D4208BF964244F1FD0404F57D
:10079000407402D25B084FEA3202B61A65EB0305D9
:1007A0005B084FEA32024FF480104FF4002CB6EB96
:1007B000020E75EB030E22BFB61A754640EA0C0016
:1007C0005B084FEA3202B6EB020E75EB030E22BF56
:1007D000B61A754640EA5C005B084FEA3202B6EB97
:1007E000020E75EB030E22BFB61A754640EA9C0056
:1007F0005B084FEA3202B6EB020E75EB030E22BF26
:10080000B61A754640EADC0055EA060E18D04FEAE3
:10081000051545EA16754FEA06164FEAC30343EA83
:1008200052734FEAC2025FEA1C1CC0D111F4801F50
:100830000BD141EA00014FF000004FF0004CB6E749
:1008400011F4801F04BF01430020B4F1FD0C88BFE8
:10085000BCF5E06F3FF6AFAEB5EB030C04BFB6EBF3
:10086000020C5FEA500C50F1000041EB045170BDE6
:100870000EF0004E4EEA113114EB5C04C2BFD4EB13
:100880000C0541EA045170BD41F480114FF0000E97
:10089000013C90E645EA060E8DE60CEA135594EA13
:1008A0000C0F08BF95EA0C0F3FF43BAF94EA0C0F16
:1008B0000AD150EA01347FF434AF95EA0C0F7FF48B
:1008C00025AF104619462CE795EA0C0F06D152EADF
:1008D00003353FF4FDAE1046194622E750EA4106C3
:1008E00018BF52EA43067FF4C5AE50EA41047FF4D4
:1008F0000DAF52EA43057FF4EBAE12E74FF0FF3C39
:1009000006E000BF4FF0010C02E000BF4FF0010C09
:100910004DF804CD4FEA410C7FEA6C5C4FEA430C82
:1009200018BF7FEA6C5C1BD001B050EA410C0CBFD1
:1009300052EA430C91EA030F02BF90EA020F002033
:10094000704710F1000F91EA030F58BF994208BF9A
:1009500090422CBFD8176FEAE37040F00100704757
:100960004FEA410C7FEA6C5C02D150EA013C07D1AE
:100970004FEA430C7FEA6C5CD6D152EA033CD3D0F9
:100980005DF8040B704700BF8446104662468C46F3
:100990001946634600E000BF01B5FFF7B7FF002826
:1009A00048BF10F1000F01BD4DF808EDFFF7F4FF4F
:1009B0000CBF012000205DF808FB00BF4DF808EDDA
:1009C000FFF7EAFF34BF012000205DF808FB00BFFD
:1009D0004DF808EDFFF7E0FF94BF012000205DF81F
:1009E00008FB00BF4DF808EDFFF7CEFF94BF0120D4
:1009F00000205DF808FB00BF4DF808EDFFF7C4FFCD
:100A000034BF012000205DF808FB00BF4FEA410C15
:100A10007FEA6C5C02D150EA013C0AD14FEA430CF8
:100A20007FEA6C5C02D152EA033C02D14FF0000035
:100A300070474FF0010070474FEA410212F5001273
:100A400015D211D56FF47873B3EB625212D94FEA15
:100A5000C12343F0004343EA505311F0004F23FAFF
:100A600002F018BF404270474FF00000704750EA54
:100A7000013005D111F0004008BF6FF00040704711
:100A80004FF00000704700BF80F0004002E000BF60
:100A900081F0004142001FBF5FEA410392EA030F69
:100AA0007FEA226C7FEA236C6AD04FEA1262D2EBB3
:100AB0001363C1BFD218414048404140B8BF5B42B8
:100AC000192B88BF704710F0004F40F4000020F051
:100AD0007F4018BF404211F0004F41F4000121F067
:100AE0007F4118BF494292EA030F3FD0A2F10102B1
:100AF00041FA03FC10EB0C00C3F1200301FA03F1EF
:100B000000F0004302D5494260EB4000B0F5000F11
:100B100013D3B0F1807F06D340084FEA310102F1D0
:100B20000102FE2A51D2B1F1004F40EBC25008BF82
:100B300020F0010040EA03007047490040EB00004C
:100B4000013A28BFB0F5000FEDD2B0FA80FCACF14D
:100B5000080CB2EB0C0200FA0CF0AABF00EBC2507A
:100B600052421843BCBFD0401843704792F0000F68
:100B700081F4000106BF80F400000132013BB5E7BB
:100B80004FEA41037FEA226C18BF7FEA236C21D031
:100B900092EA030F04D092F0000F08BF0846704796
:100BA00090EA010F1CBF0020704712F07F4F04D164
:100BB000400028BF40F00040704712F100723CBF77
:100BC00000F50000704700F0004343F0FE4040F4A1
:100BD000000070477FEA226216BF08467FEA23635F
:100BE0000146420206BF5FEA412390EA010F40F44A
:100BF000800070474FF0000304E000BF10F0004396
:100C000048BF40425FEA000C08BF704743F096437C
:100C100001464FF000001CE050EA010208BF704797
:100C20004FF000030AE000BF50EA010208BF70471E
:100C300011F0004302D5404261EB41015FEA010C33
:100C400002BF84460146002043F0B64308BFA3F12B
:100C50008053A3F50003BCFA8CF2083AA3EBC2530D
:100C600010DB01FA02FC634400FA02FCC2F120022C
:100C7000BCF1004F20FA02F243EB020008BF20F063
:100C80000100704702F1200201FA02FCC2F12002C9
:100C900050EA4C0021FA02F243EB020008BF20EABE
:100CA000DC7070474FF0FF0C1CEAD0521EBF1CEAEC
:100CB000D15392EA0C0F93EA0C0F6FD01A4480EADA
:100CC000010C400218BF5FEA41211ED04FF00063C3
:100CD00043EA501043EA5111A0FB01310CF00040EF
:100CE000B1F5000F3EBF490041EAD3715B0040EA15
:100CF000010062F17F02FD2A1DD8B3F1004F40EBE5
:100D0000C25008BF20F00100704790F0000F0CF0B7
:100D1000004C08BF49024CEA502040EA51207F3A7B
:100D2000C2BFD2F1FF0340EAC250704740F4000056
:100D30004FF00003013A5DDC12F1190FDCBF00F047
:100D400000407047C2F10002410021FA02F1C2F1F5
:100D5000200200FA02FC5FEA310040F1000053EA91
:100D60004C0308BF20EADC70704792F0000F00F0DF
:100D7000004C02BF400010F4000F013AF9D040EAE5
:100D80000C0093F0000F01F0004C02BF490011F479
:100D9000000F013BF9D041EA0C018FE70CEAD15377
:100DA00092EA0C0F18BF93EA0C0F0AD030F0004CF7
:100DB00018BF31F0004CD8D180EA010000F00040AB
:100DC000704790F0000F17BF90F0004F084691F069
:100DD000000F91F0004F14D092EA0C0F01D14202A3
:100DE0000FD193EA0C0F03D14B0218BF084608D16C
:100DF00080EA010000F0004040F0FE4040F40000B6
:100E0000704740F0FE4040F4400070474FF0FF0C48
:100E10001CEAD0521EBF1CEAD15392EA0C0F93EA8F
:100E20000C0F69D0A2EB030280EA010C49024FEAE1
:100E3000402037D04FF0805343EA111143EA10139A
:100E40000CF000408B4238BF5B0042F17D024FF452
:100E5000000C8B4224BF5B1A40EA0C00B3EB510F2D
:100E600024BFA3EB510340EA5C00B3EB910F24BF16
:100E7000A3EB910340EA9C00B3EBD10F24BFA3EB9B
:100E8000D10340EADC001B0118BF5FEA1C1CE0D163
:100E9000FD2A3FF650AF8B4240EBC25008BF20F016
:100EA000010070470CF0004C4CEA50207F32C2BF6A
:100EB000D2F1FF0340EAC250704740F400004FF007
:100EC0000003013A37E792F0000F00F0004C02BF38
:100ED000400010F4000F013AF9D040EA0C0093F002
:100EE000000F01F0004C02BF490011F4000F013B5C
:100EF000F9D041EA0C0195E70CEAD15392EA0C0FC4
:100F000008D142027FF47DAF93EA0C0F7FF470AFFB
:100F1000084676E793EA0C0F04D14B023FF44CAF3E
:100F200008466EE730F0004C18BF31F0004CCAD1D3
:100F300030F000427FF45CAF31F000437FF43CAF0F
:100F40005FE700BF80B582B000AF78607B681B6848
:100F5000184600F095FA00BF0837BD4680BD80B541
:100F600082B000AF78600B467B807B681B687A8814
:100F70001146184600F08FFA00BF0837BD4680BD05
:100F800080B582B000AF78600B467B807B681B68C1
:100F90007A881146184600F095FA00BF0837BD461A
:100FA00080BD80B586B000AF786007F108030022ED
:100FB0001A605A609A60DA607B689B88BB60012384
:100FC000FB6002237B617B689B6807F10802114686
:100FD000184601F001FA00BF1837BD4680BD80B544
:100FE00086B000AF786007F1080300221A605A60EB
:100FF0009A60DA607B689B88BB600023FB600123FA
:101000003B617B689B6807F108021146184601F0B6
:10101000E3F900BF1837BD4680BD80B582B000AF90
:1010200078600B46FB707B6898687B689B88FA78D1
:10103000194601F06CFB00BF0837BD4680BD80B586
:1010400082B000AF78607B689A687B689B8819469D
:10105000104601F045FB034618460837BD4680BDE3
:1010600080B584B000AF78600023FB737868FFF729
:1010700098FF00217868FFF7D0FF4FF4F07178688F
:10108000FFF76DFF7868FFF7AAFF50217868FFF738
:1010900066FF7868FFF7D3FF0346002B02D10123D8
:1010A000FB7301E00023FB734FF4C8717868FFF70E
:1010B00056FFFB7B18461037BD4680BD80B584B017
:1010C00000AF78600B46FB707868FFF76AFF00237B
:1010D000FB602BE0FA78FB6842FA03F303F00103AC
:1010E000002B12D07868FFF75CFF00217868FFF7CB
:1010F00094FF01217868FFF732FF7868FFF76FFFF0
:1011000032217868FFF72BFF0DE07868FFF749FF81
:1011100000217868FFF781FF32217868FFF71FFF11
:101120007868FFF75CFFFB680133FB60FB68072B07
:10113000D0DD00BF00BF1037BD4680BD80B584B094
:1011400000AF78600023FB737868FFF748FF002347
:10115000BB6024E07868FFF724FF00217868FFF780
:101160005CFF01217868FFF7FAFE7868FFF737FF28
:101170007868FFF764FF0346002B09D00122BB68A3
:1011800002FA03F35AB297F90F3013435BB2FB73C1
:1011900032217868FFF7E3FEBB680133BB60BB68B0
:1011A000072BD7DDFB7B18461037BD4680BD80B5C9
:1011B00084B000AFF860B9607A607B80FB687A68C1
:1011C0009A60FB687A889A80FB68BA681A60F86847
:1011D000FFF7B8FE00BF1037BD4680BD80B584B0B4
:1011E00000AF78607868FFF73BFF01217868FFF770
:1011F000C7FECC217868FFF761FF44217868FFF7CC
:101200005DFFC8217868FFF7BBFE7868FFF728FF0D
:1012100001217868FFF7B4FECC217868FFF74EFF14
:10122000BE217868FFF74AFF7868FFF787FF03461B
:10123000FB737868FFF782FF0346BB73BB7B1A0220
:10124000FB7B13431846FFF7D9FC0346BB604FF006
:101250008341B868FFF7DAFD03461A467B68DA6017
:101260007B68DB6818461037BD4680BD80B584B00A
:1012700000AFF860B9607A603B60FB68BA681A60DA
:10128000FB687A685A607968B86801F075FF3B7E40
:101290001946F86800F01CF83968F86800F062F840
:1012A00000BF1037BD4680BD80B584B000AFF86088
:1012B000B9607A60FB68BA689A60FB687A68DA603D
:1012C0007968B86802F09CF800BF1037BD4680BD51
:1012D00080B485B000AF78600B46FB70FB78642B60
:1012E00001D96423FB70FB780A2B01D80023FB7023
:1012F0007B68FA781A757B681B68DB680133FA78BB
:1013000002FB03F3164AA2FB03235B09FB817B6804
:101310005B68002B05D17B681B681B68FA895A63E0
:1013200018E07B685B68042B05D17B681B681A6832
:10133000FB8993630EE07B685B68082B05D17B68B3
:101340001B681A68FB89D36304E07B681B681A6812
:10135000FB89136400BF1437BD4680BC704700BFD3
:101360001F85EB5180B584B000AF786039607B6831
:101370003A681A617B681B68DB68FB6001F0C2FD9C
:10138000B860FB6801333A6802FB03F3BA68B2FB4A
:10139000F3F34FF08042013B936200BF1037BD462C
:1013A00080BD000080B483B000AF7860054B1A8820
:1013B0007B68DA82034B1B8818460C37BD4680BC1D
:1013C000704700BF0402002080B500AF124B1B68BD
:1013D000642B19D1114B9B681B685B6A9AB2104B46
:1013E0001A800F4B1B880F4A12881146184600F0CE
:1013F0001DF803461A460C4B1A80094B1A88094BF4
:101400001A80054B00221A60034B1B680133024A05
:10141000136000BF80BD00BFFC010020541C0020F1
:1014200000020020020200200402002080B483B0E9
:1014300000AF03460A46FB801346BB80FA88BB8890
:101440009A4206D20C4B9B68DB689AB2FB88134425
:10145000FB80FA88BB88D31A4FF4167202FB03F3A1
:10146000064A82FB0312D211DB17D31A9BB218462D
:101470000C37BD4680BC7047541C0020C3971B62CC
:1014800080B582B000AF7860786801F0DBFD00BF06
:101490000837BD4680BD80B483B000AF78600B468E
:1014A0007B807B681B6800225A6200BF7B681B68D8
:1014B0005A6A7B889A42F9D300BF00BF0C37BD46F9
:1014C00080BC704780B582B000AF78600B467B80EF
:1014D00004E04FF47A717868FFF7DDFF7B885A1ECD
:1014E0007A80002BF5D100BF00BF0837BD4680BD14
:1014F00080B582B002AF00F025FD00F07BF800F06F
:10150000E9F900F0B7F900F0BBF800F011F900F0CC
:1015100063F903F0BFF9254A0021254803F048FA92
:101520000346244A1360244A0021244803F040FA69
:101530000346234A1360234A0021234803F038FA64
:101540000346224A136003F0D7F90223204A2149B7
:101550002148FFF72CFE642300934FF4FA630C221A
:101560001E491F48FFF782FE00221E491C48FFF754
:101570009BFE1948FFF732FE03461B4A13601A4BC5
:101580001B681846FEF750FF02460B46174806F048
:1015900085FB1348FFF706FF03461946144806F07B
:1015A0007DFB4FF4FA6000F02FFDE2E7109F00088A
:1015B000191A00081C1B0020349F0008451A000857
:1015C0006C1C0020589F0008711A0008081C00209D
:1015D000000C0140201B0020F81B00200C1C0020E8
:1015E000541C00206C1B0020681B0020C49E0008B7
:1015F000D09E000880B590B000AF07F118032822F4
:101600000021184605F0E2FE3B1D00221A605A60D8
:101610009A60DA601A610123BB614FF48033FB6189
:1016200000233B620123BB6202237B634FF48033C0
:10163000BB634FF4E013FB6307F11803184601F096
:1016400097F80346002B01D000F028FA0F237B60A7
:101650000223BB600023FB604FF480633B610023E7
:101660007B613B1D0221184601F002FB0346002B63
:1016700001D000F013FA00BF4037BD4680BD000026
:1016800080B58AB000AF07F1200300221A605A60CB
:101690003B1D00221A605A609A60DA601A615A6132
:1016A0009A61224B4FF080421A60204B08225A6008
:1016B0001E4B00229A601D4B6322DA601B4B0022F6
:1016C0001A611A4B00229A61184801F005FD034681
:1016D000002B01D000F0E2F900233B6200237B6283
:1016E00007F120031946114802F03EFB0346002B88
:1016F00001D000F0D3F960237B600023BB6000239E
:10170000FB6000237B613B1D0C221946074801F05A
:1017100005FF0346002B01D000F0C0F9034800F09C
:1017200073FA00BF2837BD4680BD00BF0C1C0020E7
:1017300080B58CB000AF07F10C03242200211846BD
:1017400005F044FE3B1D00221A605A60204B214ADE
:101750001A601F4B00225A601D4B00229A601C4BDE
:101760004FF6FF72DA601A4B00221A61184B002202
:101770009A610123FB6002233B6101237B6100230B
:10178000BB610023FB6102233B6201237B620023D8
:10179000BB620023FB6207F10C0319460C4801F001
:1017A0008DFD0346002B01D000F078F900237B600B
:1017B0000023BB603B1D1946054802F0D5FA0346DD
:1017C000002B01D000F06AF900BF3037BD4680BD64
:1017D0006C1B00200004004080B586B000AF07F10C
:1017E000080300221A605A609A60DA603B460022C1
:1017F0001A605A601D4B1E4A1A601C4B47225A60E1
:101800001A4B00229A60194B4FF6FF72DA60174BA1
:1018100000221A61154B00229A61144801F0C2FBA4
:101820000346002B01D000F039F94FF48053BB6020
:1018300007F1080319460D4801F02EFF0346002B5F
:1018400001D000F02BF900233B6000237B603B4676
:101850001946064802F088FA0346002B01D000F032
:101860001DF900BF1837BD4680BD00BF201B0020FA
:101870000008004080B500AF134B144A1A60124BA9
:101880004FF4E1325A60104B00229A600E4B002256
:10189000DA600D4B00221A610B4B0C225A610A4B85
:1018A00000229A61084B0022DA61074802F0BAFA76
:1018B0000346002B01D000F0F1F801220449024850
:1018C00002F08FFB00BF80BDB41B00200038014038
:1018D0000602002080B588B000AF07F11003002297
:1018E0001A605A609A60DA602D4B9B692C4A43F06B
:1018F000100393612A4B9B6903F01003FB60FB68A4
:10190000274B9B69264A43F020039361244B9B6934
:1019100003F02003BB60BB68214B9B69204A43F066
:10192000040393611E4B9B6903F004037B607B6897
:101930001B4B9B691A4A43F008039361184B9B6940
:1019400003F008033B603B6800224FF40051154848
:1019500000F0DDFE00220221134800F0D8FE4FF413
:1019600000533B6101237B610023BB610223FB61C8
:1019700007F1100319460B4800F02EFD02233B61CE
:1019800001237B610023BB610223FB6107F110038C
:101990001946054800F020FD00BF2037BD4680BD38
:1019A0000010024000100140000C014080B582B0E0
:1019B00000AF78607B681B680A4A93420DD10A4BDE
:1019C0001B78742B04D14FF40051084800F0B7FE87
:1019D00001220549064802F004FB00BF0837BD4656
:1019E00080BD00BF00380140060200200010014009
:1019F000B41B002080B582B000AF7860391D4FF471
:101A0000FA730122034802F05AFA7B681846083735
:101A1000BD4680BDB41B002080B584B000AF7860A7
:101A200002F09EFF0346FB60054806F0BDF9FB6827
:101A300003F5FA73FB60FB68184603F063F8F3E7FD
:101A4000DC9E000880B584B000AF786002F088FFAB
:101A50000346FB60054806F0A7F9FB6803F5FA7337
:101A6000FB60FB68184603F04DF8F3E7E09E0008C2
:101A700080B584B000AF786002F072FF0346FB606F
:101A8000054806F091F9FB6803F5FA73FB60FB6803
:101A9000184603F037F8F3E7E49E000880B400AF7F
:101AA00072B600BFFEE7000080B584B000AF184BEF
:101AB0009B69174A43F001039361154B9B6903F03F
:101AC0000103BB60BB68124BDB69114A43F08053D2
:101AD000D3610F4BDB6903F080537B607B6800228E
:101AE0000F216FF0010000F08AFB0A4B5B68FB607E
:101AF000FB6823F0E063FB60FB6843F00073FB606E
:101B0000044AFB68536000BF1037BD4680BD00BF6C
:101B1000001002400000014080B485B000AF786042
:101B20007B681B68B3F1804F0BD1084BDB69074A18
:101B300043F00103D361054BDB6903F00103FB6054
:101B4000FB6800BF1437BD4680BC704700100240E0
:101B500080B588B000AF786007F1100300221A60EA
:101B60005A609A60DA607B681B68154A934223D1F9
:101B7000144BDB69134A43F00203D361114BDB6959
:101B800003F00203FB60FB680E4B9B690D4A43F0B8
:101B9000040393610B4B9B6903F00403BB60BB68B8
:101BA000C0233B6100237B610023BB6107F110036D
:101BB0001946054800F010FC00BF2037BD4680BD27
:101BC00000040040001002400008014080B485B0CD
:101BD00000AF78607B681B68094A93420BD1094BC0
:101BE000DB69084A43F00403D361064BDB6903F069
:101BF0000403FB60FB6800BF1437BD4680BC704720
:101C0000000800400010024080B588B000AF786046
:101C100007F1100300221A605A609A60DA607B684C
:101C20001B68B3F1804F17D10D4B9B690C4A43F0F1
:101C3000040393610A4B9B6903F00403FB60FB6898
:101C400008233B6102237B610223FB6107F1100340
:101C50001946044800F0C0FB00BF2037BD4680BDD8
:101C6000001002400008014080B588B000AF7860E5
:101C700007F1100300221A605A609A60DA607B68EC
:101C80001B68204A934239D11F4B9B691E4A43F47B
:101C9000804393611C4B9B6903F48043FB60FB68AA
:101CA000194B9B69184A43F004039361164B9B69D7
:101CB00003F00403BB60BB684FF400733B61022375
:101CC0007B610323FB6107F1100319460F4800F005
:101CD00083FB4FF480633B6100237B610023BB6186
:101CE00007F110031946094800F076FB0022052190
:101CF000252000F084FA252000F09DFA00BF20374F
:101D0000BD4680BD0038014000100240000801407F
:101D100080B400AFFEE780B400AFFEE780B400AF50
:101D2000FEE780B400AFFEE780B400AFFEE780B40A
:101D300000AF00BFBD4680BC704780B500AF00F06B
:101D400047F904F04DFB0346012B01D005F0ACF838
:101D500000F08BFA00BF80BD80B500AF024802F0F2
:101D600071F900BF80BD00BFB41B002080B400AF7C
:101D700001231846BD4680BC704780B582B000AFD5
:101D80007860396005F0EAFA034616221A604FF0CF
:101D9000FF3318460837BD4680BD80B582B000AF1E
:101DA00078604FF0FF317868FFF7E7FFFEE780B516
:101DB00086B000AFF860B9607A6000237B610AE00A
:101DC000AFF300800146BB685A1CBA60CAB21A70F1
:101DD0007B6901337B617A697B689A42F0DB7B68BF
:101DE00018461837BD4680BD80B586B000AFF86094
:101DF000B9607A6000237B6109E0BB685A1CBA6055
:101E00001B781846FFF7F6FD7B6901337B617A6921
:101E10007B689A42F1DB7B6818461837BD4680BD67
:101E200080B483B000AF78604FF0FF3318460C37B2
:101E3000BD4680BC704780B483B000AF7860396025
:101E40003B684FF400525A60002318460C37BD46D9
:101E500080BC704780B483B000AF7860012318461F
:101E60000C37BD4680BC704780B485B000AFF860C9
:101E7000B9607A60002318461437BD4680BC7047AD
:101E800080B586B000AF7860144A154BD31A7B61D9
:101E90007B693B61134B1B68002B02D1114B124A2B
:101EA0001A60104B1A687B6813443A699A4207D249
:101EB00005F054FA03460C221A604FF0FF3309E094
:101EC000084B1B68FB60074B1A687B681344054A84
:101ED0001360FB6818461837BD4680BD00500020CF
:101EE0000004000008020020C81C002080B400AFDD
:101EF00000BFBD4680BC70470C480D490D4A002309
:101F000002E0D458C4500433C4188C42F9D30A4AAE
:101F10000A4C002301E013600432A242FBD3FFF716
:101F2000E5FF05F021FAFFF7E3FA70470000002013
:101F3000E00100207CA30008E0010020C41C002078
:101F4000FEE7000080B500AF084B1B68074A43F06E
:101F500010031360032000F047F90F2000F008F889
:101F6000FFF7A2FD0023184680BD00BF00200240FD
:101F700080B582B000AF7860124B1A68124B1B78A4
:101F800019464FF47A73B3FBF1F3B2FBF3F318463F
:101F900000F05FF90346002B01D001230EE07B68BF
:101FA0000F2B0AD8002279684FF0FF3000F027F994
:101FB000064A7B681360002300E0012318460837B7
:101FC000BD4680BD00000020080000200400002065
:101FD00080B400AF054B1B781A46054B1B681344B1
:101FE000034A136000BFBD4680BC70470800002054
:101FF000701C002080B400AF024B1B681846BD4621
:1020000080BC7047701C002080B584B000AF786041
:10201000FFF7F0FFB8607B68FB60FB68B3F1FF3F40
:1020200005D00A4B1B781A46FB681344FB6000BFBF
:10203000FFF7E0FF0246BB68D31AFA689A42F7D866
:1020400000BF00BF1037BD4680BD00BF08000020A4
:1020500080B485B000AF78607B6803F00703FB6055
:102060000C4BDB68BB60BA684FF6FF031340BB60E4
:10207000FB681A02BB68134343F0BF6343F40033A9
:10208000BB60044ABB68D36000BF1437BD4680BC48
:10209000704700BF00ED00E080B400AF044BDB6888
:1020A0001B0A03F007031846BD4680BC704700BFFB
:1020B00000ED00E080B483B000AF0346FB7197F9F8
:1020C0000730002B0BDBFB7903F01F02064997F961
:1020D00007305B09012000FA02F241F8232000BF1B
:1020E0000C37BD4680BC704700E100E080B483B08F
:1020F00000AF03463960FB7197F90730002B0ADB0C
:102100003B68DAB20C4997F907301201D2B20B449E
:1021100083F800230AE03B68DAB20849FB7903F050
:102120000F03043B1201D2B20B441A7600BF0C37E6
:10213000BD4680BC704700BF00E100E000ED00E05C
:1021400080B489B000AFF860B9607A60FB6803F0D2
:102150000703FB61FB69C3F10703042B28BF0423BA
:10216000BB61FB690433062B02D9FB69033B00E02A
:1021700000237B614FF0FF32BB6902FA03F3DA43BD
:10218000BB681A407B699A404FF0FF317B6901FAC6
:1021900003F3D9437B680B40134318462437BD46ED
:1021A00080BC704780B582B000AF78607B68013B2F
:1021B000B3F1807F01D301230FE00A4A7B68013B22
:1021C00053600F214FF0FF30FFF790FF054B0022C7
:1021D0009A60044B07221A60002318460837BD4650
:1021E00080BD00BF10E000E080B582B000AF786035
:1021F0007868FFF72DFF00BF0837BD4680BD80B56A
:1022000086B000AF0346B9607A60FB7300237B6140
:10221000FFF742FF78617A68B9687869FFF790FF45
:10222000024697F90F3011461846FFF75FFF00BFCF
:102230001837BD4680BD80B582B000AF0346FB7144
:1022400097F907301846FFF735FF00BF0837BD463E
:1022500080BD80B582B000AF78607868FFF7A2FFDC
:10226000034618460837BD4680BD80B500AFFFF76E
:10227000ABF800BF80BD80B485B000AF78600023AC
:10228000FB737B6893F82130022B08D07B68042213
:102290009A637B68002283F82020012320E07B687A
:1022A0001B681A687B681B6822F00E021A607B6844
:1022B0001B681A687B681B6822F001021A607B6841
:1022C0001A6C7B68DB6B012101FA02F25A607B68B1
:1022D000012283F821207B68002283F82020FB7BE9
:1022E00018461437BD4680BC7047000080B584B0E6
:1022F00000AF78600023FB737B6893F82130022BDA
:1023000005D07B6804229A630123FB7351E07B684C
:102310001B681A687B681B6822F00E021A607B68D3
:102320001B681A687B681B6822F001021A607B68D0
:102330001B68224A934229D07B681B68204A93423B
:1023400022D07B681B681F4A93421AD07B681B68A7
:102350001D4A934212D07B681B681C4A93420AD0E4
:102360007B681B681A4A934202D14FF480130EE037
:102370004FF080730BE04FF4803308E04FF480534C
:1023800005E04FF4807302E0102300E00123114ABE
:1023900053607B68012283F821207B68002283F848
:1023A00020207B685B6B002B03D07B685B6B7868BD
:1023B0009847FB7B18461037BD4680BD0800024099
:1023C0001C0002403000024044000240580002401D
:1023D0006C0002400000024080B48BB000AF786017
:1023E000396000237B6200233B6269E101227B6A42
:1023F00002FA03F3FB613B681B68FA691340BB6197
:10240000BA69FB699A4240F058813B685B689A4A16
:1024100093425ED0984A934275D8984A934258D0D6
:10242000964A93426FD8964A934252D0944A934226
:1024300069D8944A93424CD0924A934263D8924AC4
:10244000934246D0904A93425DD8122B2AD8122B41
:1024500059D801A252F823F0D3240008AD24000873
:10246000BF240008012500080725000807250008EB
:10247000072500080725000807250008072500088C
:10248000072500080725000807250008072500087C
:10249000072500080725000807250008B5240008BF
:1024A000C9240008794A934213D02CE03B68DB68CA
:1024B0003B6229E03B68DB6804333B6224E03B6815
:1024C000DB6808333B621FE03B68DB680C333B6230
:1024D0001AE03B689B68002B02D104233B6213E0A7
:1024E0003B689B68012B05D108233B627B68FA6936
:1024F0001A6109E008233B627B68FA695A6103E0CC
:1025000000233B6200E000BFBB69FF2B01D87B6862
:1025100001E07B6804337B61BB69FF2B02D87B6AD7
:102520009B0002E07B6A083B9B003B617B691A6869
:102530000F213B6901FA03F3DB431A40396A3B6917
:1025400001FA03F31A437B691A603B685B6803F086
:102550008053002B00F0B1804D4B9B694C4A43F0F7
:10256000010393614A4B9B6903F00103BB60BB68A5
:10257000484A7B6A9B08023352F82330FB607B6A2F
:1025800003F003039B000F2202FA03F3DB43FA6814
:102590001340FB607B68404A934213D07B683F4AFC
:1025A00093420DD07B683E4A934207D07B683D4AF8
:1025B000934201D1032306E0042304E0022302E056
:1025C000012300E000237A6A02F0030292009340A4
:1025D000FA681343FB602F497B6A9B080233FA6851
:1025E00041F823203B685B6803F48033002B06D05E
:1025F0002D4B1A682C49BB6913430B6006E02A4B2C
:102600001A68BB69DB43284913400B603B685B6871
:1026100003F40033002B06D0234B5A682249BB69D0
:1026200013434B6006E0204B5A68BB69DB431E49ED
:1026300013404B603B685B6803F48013002B06D0AB
:10264000194B9A681849BB6913438B6006E0164B17
:102650009A68BB69DB43144913408B603B685B6835
:1026600003F40013002B21D00F4BDA680E49BB692D
:102670001343CB6021E000BF000032100000311096
:1026800000002210000021100000121000001110A4
:10269000001002400000014000080140000C014011
:1026A0000010014000140140000401400B4BDA68A7
:1026B000BB69DB4309491340CB607B6A01337B6212
:1026C0003B681A687B6A22FA03F3002B7FF48EAE14
:1026D00000BF00BF2C37BD4680BC704700040140DE
:1026E00080B485B000AF78600B467B807B689A68C9
:1026F0007B881340002B02D00123FB7301E00023F1
:10270000FB73FB7B18461437BD4680BC704780B412
:1027100083B000AF78600B467B8013467B707B787C
:10272000002B03D07A887B681A6103E07B881A0447
:102730007B681A6100BF0C37BD4680BC704780B40F
:1027400085B000AF78600B467B807B68DB68FB6000
:102750007A88FB6813401A04FB68D9437B880B40D6
:102760001A437B681A6100BF1437BD4680BC7047AE
:1027700080B586B000AF78607B68002B01D1012363
:102780006CE27B681B6803F00103002B00F087807C
:10279000924B5B6803F00C03042B0CD08F4B5B68EF
:1027A00003F00C03082B12D18C4B5B6803F48033CD
:1027B000B3F5803F0BD1894B1B6803F40033002B2A
:1027C0006CD07B685B68002B68D1012346E27B6894
:1027D0005B68B3F5803F06D1804B1B687F4A43F4AA
:1027E000803313602EE07B685B68002B0CD17B4B41
:1027F0001B687A4A23F480331360784B1B68774A4E
:1028000023F4802313601DE07B685B68B3F5A02F81
:102810000CD1724B1B68714A43F4802313606F4BD9
:102820001B686E4A43F4803313600BE06B4B1B68EC
:102830006A4A23F480331360684B1B68674A23F4A9
:10284000802313607B685B68002B13D0FFF7D2FBFB
:10285000386108E0FFF7CEFB02463B69D31A642BD0
:1028600001D90323FAE15D4B1B6803F40033002B0D
:10287000F0D014E0FFF7BEFB386108E0FFF7BAFBC9
:1028800002463B69D31A642B01D90323E6E1534B7B
:102890001B6803F40033002BF0D100E000BF7B681D
:1028A0001B6803F00203002B63D04C4B5B6803F002
:1028B0000C03002B0BD0494B5B6803F00C03082B77
:1028C0001CD1464B5B6803F48033002B16D1434B7D
:1028D0001B6803F00203002B05D07B681B69012BEA
:1028E00001D00123BAE13D4B1B6823F0F8027B685D
:1028F0005B69DB00394913430B603AE07B681B6975
:10290000002B20D0364B01221A60FFF773FB386191
:1029100008E0FFF76FFB02463B69D31A022B01D98F
:1029200003239BE12D4B1B6803F00203002BF0D027
:102930002A4B1B6823F0F8027B685B69DB002749A0
:1029400013430B6015E0264B00221A60FFF752FB81
:10295000386108E0FFF74EFB02463B69D31A022BB1
:1029600001D903237AE11D4B1B6803F00203002BFE
:10297000F0D17B681B6803F00803002B3AD07B681A
:102980009B69002B19D0174B01221A60FFF732FB0D
:10299000386108E0FFF72EFB02463B69D31A022B91
:1029A00001D903235AE10D4B5B6A03F00203002BAC
:1029B000F0D0012000F0D8FA1CE00A4B00221A6087
:1029C000FFF718FB38610FE0FFF714FB02463B6985
:1029D000D31A022B08D9032340E100BF00100240A4
:1029E00000004242800442429E4B5B6A03F00203B5
:1029F000002BE9D17B681B6803F00403002B00F077
:102A0000A6800023FB75974BDB6903F08053002BF6
:102A10000DD1944BDB69934A43F08053D361914BC2
:102A2000DB6903F08053BB60BB680123FB758E4BF1
:102A30001B6803F48073002B18D18B4B1B688A4AE8
:102A400043F480731360FFF7D5FA386108E0FFF7AD
:102A5000D1FA02463B69D31A642B01D90323FDE066
:102A6000814B1B6803F48073002BF0D07B68DB681C
:102A7000012B06D17B4B1B6A7A4A43F00103136298
:102A80002DE07B68DB68002B0CD1764B1B6A754A06
:102A900023F001031362734B1B6A724A23F0040391
:102AA00013621CE07B68DB68052B0CD16D4B1B6A45
:102AB0006C4A43F0040313626A4B1B6A694A43F091
:102AC000010313620BE0674B1B6A664A23F00103A4
:102AD0001362644B1B6A634A23F0040313627B682E
:102AE000DB68002B15D0FFF785FA38610AE0FFF7A5
:102AF00081FA02463B69D31A41F28832934201D9E6
:102B00000323ABE0574B1B6A03F00203002BEED00C
:102B100014E0FFF76FFA38610AE0FFF76BFA02463C
:102B20003B69D31A41F28832934201D9032395E0DD
:102B30004C4B1B6A03F00203002BEED1FB7D012BF3
:102B400005D1484BDB69474A23F08053D3617B684A
:102B5000DB69002B00F08180424B5B6803F00C03C3
:102B6000082B61D07B68DB69022B46D13F4B0022EA
:102B70001A60FFF73FFA386108E0FFF73BFA0246B8
:102B80003B69D31A022B01D9032367E0354B1B683D
:102B900003F00073002BF0D17B681B6AB3F5803F14
:102BA00008D1304B5B6823F400327B689B682D4969
:102BB00013434B602B4B5B6823F474127B68196AD8
:102BC0007B685B6A0B43274913434B60274B012209
:102BD0001A60FFF70FFA386108E0FFF70BFA0246B8
:102BE0003B69D31A022B01D9032337E01D4B1B6825
:102BF00003F00073002BF0D02FE01C4B00221A6072
:102C0000FFF7F8F9386108E0FFF7F4F902463B698D
:102C1000D31A022B01D9032320E0124B1B6803F0C7
:102C20000073002BF0D118E07B68DB69012B01D128
:102C3000012313E00B4B5B68FB60FB6803F48032FD
:102C40007B681B6A9A4206D1FB6803F470127B68AA
:102C50005B6A9A4201D0012300E00023184618372E
:102C6000BD4680BD0010024000700040600042423E
:102C700080B584B000AF786039607B68002B01D1EB
:102C80000123D0E06A4B1B6803F007033A689A42BD
:102C900010D9674B1B6823F0070265493B68134353
:102CA0000B60634B1B6803F007033A689A4201D03C
:102CB0000123B8E07B681B6803F00203002B20D0DF
:102CC0007B681B6803F00403002B05D0594B5B683D
:102CD000584A43F4E06353607B681B6803F00803C1
:102CE000002B05D0534B5B68524A43F4605353604A
:102CF000504B5B6823F0F0027B689B684D4913439F
:102D00004B607B681B6803F00103002B40D07B689D
:102D10005B68012B07D1474B1B6803F40033002B82
:102D200015D101237FE07B685B68022B07D1414B03
:102D30001B6803F00073002B09D1012373E03D4BA6
:102D40001B6803F00203002B01D101236BE0394B18
:102D50005B6823F003027B685B68364913434B6072
:102D6000FFF748F9F8600AE0FFF744F90246FB680C
:102D7000D31A41F28832934201D9032353E02D4BF9
:102D80005B6803F00C027B685B689B009A42EBD1A6
:102D9000274B1B6803F007033A689A4210D2244B72
:102DA0001B6823F0070222493B6813430B60204B4A
:102DB0001B6803F007033A689A4201D0012332E00E
:102DC0007B681B6803F00403002B08D0194B5B6879
:102DD00023F4E0627B68DB68164913434B607B6831
:102DE0001B6803F00803002B09D0124B5B6823F427
:102DF00060527B681B69DB000E4913434B6000F097
:102E000021F802460B4B5B681B0903F00F030A49CC
:102E1000CB5C22FA03F3094A1360094B1B6818467E
:102E2000FFF7A6F8002318461037BD4680BD00BF47
:102E300000200240001002407C9F0008000000209B
:102E40000400002090B48AB000AF2A4B3C1D0FCB89
:102E500084E80F0040F201233B800023FB61002344
:102E6000BB6100237B6200237B6100233B62224B1A
:102E70005B68FB61FB6903F00C03042B02D0082B99
:102E800003D02DE01D4B3B622DE0FB699B0C03F052
:102E90000F0307F12802134413F8243C7B61FB69FC
:102EA00003F48033002B13D0134B5B685B0C03F0EF
:102EB000010307F12802134413F8283CBB617B6926
:102EC0000E4A02FB03F2BB69B2FBF3F37B6204E040
:102ED0007B690B4A02FB03F37B627B6A3B6202E085
:102EE000064B3B6200BF3B6A18462837BD4690BC84
:102EF000704700BFE89E00080010024000127A00F0
:102F000000093D0080B400AF024B1B681846BD4667
:102F100080BC70470000002080B500AFFFF7F2FFD3
:102F20000246054B5B681B0A03F007030349CB5CB1
:102F300022FA03F3184680BD001002408C9F00085F
:102F400080B500AFFFF7DEFF0246054B5B68DB0A8A
:102F500003F007030349CB5C22FA03F3184680BD54
:102F6000001002408C9F000880B485B000AF7860EC
:102F70000A4B1B680A4AA2FB03235B0A7A6802FB1E
:102F800003F3FB6000BFFB685A1EFA60002BF9D107
:102F900000BF00BF1437BD4680BC70470000002052
:102FA000D34D621080B582B000AF78607B68002B93
:102FB00001D1012341E07B6893F83D30DBB2002B67
:102FC00006D17B68002283F83C207868FEF7FEFD7E
:102FD0007B68022283F83D207B681A687B68043393
:102FE0001946104600F01CFC7B68012283F846203D
:102FF0007B68012283F83E207B68012283F83F2012
:103000007B68012283F840207B68012283F84120FD
:103010007B68012283F842207B68012283F84320E9
:103020007B68012283F844207B68012283F84520D5
:103030007B68012283F83D20002318460837BD46EF
:1030400080BD000080B485B000AF78607B6893F8E5
:103050003D30DBB2012B01D0012332E07B6802223C
:1030600083F83D207B681B68184A93420ED07B682A
:103070001B68B3F1804F09D07B681B68144A9342E8
:1030800004D07B681B68134A934211D17B681B688C
:103090009B6803F00703FB60FB68062B10D07B687E
:1030A0001B681A687B681B6842F001021A6007E01F
:1030B0007B681B681A687B681B6842F001021A6013
:1030C000002318461437BD4680BC7047002C0140D1
:1030D000000400400008004080B582B000AF786076
:1030E0007B68002B01D1012341E07B6893F83D30E0
:1030F000DBB2002B06D17B68002283F83C20786885
:10310000FEF70AFD7B68022283F83D207B681A687F
:103110007B6804331946104600F082FB7B6801226D
:1031200083F846207B68012283F83E207B680122D9
:1031300083F83F207B68012283F840207B680122CE
:1031400083F841207B68012283F842207B680122BA
:1031500083F843207B68012283F844207B680122A6
:1031600083F845207B68012283F83D200023184620
:103170000837BD4680BD000080B584B000AF7860E0
:1031800039603B68002B09D17B6893F83E30DBB295
:10319000012B14BF01230023DBB222E03B68042B88
:1031A00009D17B6893F83F30DBB2012B14BF0123B8
:1031B0000023DBB215E03B68082B09D17B6893F84C
:1031C0004030DBB2012B14BF01230023DBB208E047
:1031D0007B6893F84130DBB2012B14BF012300233D
:1031E000DBB2002B01D001235EE03B68002B04D151
:1031F0007B68022283F83E2013E03B68042B04D155
:103200007B68022283F83F200BE03B68082B04D147
:103210007B68022283F8402003E07B68022283F867
:1032200041207B681B6801223968184600F078FD50
:103230007B681B681E4A934207D17B681B685A6CE7
:103240007B681B6842F400425A647B681B68184A1A
:1032500093420ED07B681B68B3F1804F09D07B6826
:103260001B68144A934204D07B681B68124A93423D
:1032700011D17B681B689B6803F00703FB60FB6848
:10328000062B10D07B681B681A687B681B6842F0AD
:1032900001021A6007E07B681B681A687B681B687C
:1032A00042F001021A60002318461037BD4680BD67
:1032B000002C0140000400400008004080B586B0AA
:1032C00000AF786039607B68002B01D1012393E067
:1032D0007B6893F83D30DBB2002B06D17B6800227F
:1032E00083F83C207868FEF733FC7B68022283F881
:1032F0003D207B681B689B687A68126823F48043D2
:1033000023F0070393607B681A687B6804331946CF
:10331000104600F085FA7B681B689B687B617B68C0
:103320001B689B693B617B681B681B6AFB603B6891
:103330001B687A6913437B613B6923F4407323F074
:1033400003033B613B689A683B689B691B0213431C
:103350003A6913433B613B6923F4406323F00C0358
:103360003B613B6923F4704323F0F0033B613B680E
:10337000DA683B68DB691B0213433A6913433B611C
:103380003B681B691A013B681B6A1B0313433A69BC
:1033900013433B61FB6823F02203FB603B685A68E0
:1033A0003B685B691B011343FA681343FB607B684E
:1033B0001B687A699A607B681B683A699A617B68C6
:1033C0001B68FA681A627B68012283F846207B68D2
:1033D000012283F83E207B68012283F83F207B682E
:1033E000012283F842207B68012283F843207B6816
:1033F000012283F83D20002318461837BD4680BDC2
:1034000080B584B000AF786039607B6893F83E3057
:10341000FB737B6893F83F30BB737B6893F8423053
:103420007B737B6893F843303B733B68002B10D170
:10343000FB7B012B02D17B7B012B01D0012369E0B7
:103440007B68022283F83E207B68022283F84220B8
:1034500031E03B68042B10D1BB7B012B02D13B7BBD
:10346000012B01D0012355E07B68022283F83F2025
:103470007B68022283F843201DE0FB7B012B08D1EF
:10348000BB7B012B05D17B7B012B02D13B7B012B2D
:1034900001D001233EE07B68022283F83E207B6856
:1034A000022283F83F207B68022283F842207B6857
:1034B000022283F843203B68002B03D03B68042B97
:1034C00008D00FE07B681B6801220021184600F03D
:1034D00027FC16E07B681B6801220421184600F0D7
:1034E0001FFC0EE07B681B6801220021184600F0DB
:1034F00017FC7B681B6801220421184600F010FCB1
:1035000000BF7B681B681A687B681B6842F0010279
:103510001A60002318461037BD4680BD80B584B0C0
:1035200000AFF860B9607A60FB6893F83C30012B1B
:1035300001D10223ACE0FB68012283F83C207B68C8
:103540000C2B00F29F8001A252F823F08135000875
:10355000853600088536000885360008C135000824
:1035600085360008853600088536000803360008D1
:103570008536000885360008853600084336000881
:10358000FB681B68B968184600F0ACF9FB681B685B
:103590009A69FB681B6842F008029A61FB681B6825
:1035A0009A69FB681B6822F004029A61FB681B6839
:1035B0009969BB681A69FB681B680A439A6162E0F3
:1035C000FB681B68B968184600F0F2F9FB681B68D5
:1035D0009A69FB681B6842F400629A61FB681B6889
:1035E0009A69FB681B6822F480629A61FB681B6819
:1035F0009969BB681B691A02FB681B680A439A61D8
:1036000041E0FB681B68B968184600F03BFAFB68AC
:103610001B68DA69FB681B6842F00802DA61FB6824
:103620001B68DA69FB681B6822F00402DA61FB6838
:103630001B68D969BB681A69FB681B680A43DA61B1
:1036400021E0FB681B68B968184600F085FAFB6842
:103650001B68DA69FB681B6842F40062DA61FB6888
:103660001B68DA69FB681B6822F48062DA61FB6818
:103670001B68D969BB681B691A02FB681B680A438F
:10368000DA6100E000BFFB68002283F83C200023E1
:1036900018461037BD4680BD80B584B000AF786055
:1036A00039607B6893F83C30012B01D10223B3E0F1
:1036B0007B68012283F83C207B68022283F83D204E
:1036C0007B681B689B68FB60FB6823F07703FB60EB
:1036D000FB6823F47F43FB607B681B68FA689A6091
:1036E0003B681B68B3F5005F3ED0B3F5005F00F2A6
:1036F0008780B3F5805F00F08580B3F5805F7FD869
:10370000702B1AD0702B7BD8602B50D0602B77D8C1
:10371000502B3CD0502B73D8402B58D0402B6FD817
:10372000302B64D0302B6BD8202B60D0202B67D867
:10373000002B5CD0102B5AD062E07B6818683B6885
:1037400099683B685A683B68DB6800F0CAFA7B6896
:103750001B689B68FB60FB6843F07703FB607B683A
:103760001B68FA689A604EE07B6818683B68996845
:103770003B685A683B68DB6800F0B3FA7B681B68FB
:103780009A687B681B6842F480429A603BE07B68E1
:1037900018683B6859683B68DB681A4600F02AFAEB
:1037A0007B681B685021184600F081FA2BE07B688B
:1037B00018683B6859683B68DB681A4600F048FAAD
:1037C0007B681B686021184600F071FA1BE07B687B
:1037D00018683B6859683B68DB681A4600F00AFACB
:1037E0007B681B684021184600F061FA0BE07B689B
:1037F0001A683B681B681946104600F058FA02E048
:1038000000BF00E000BF7B68012283F83D207B6899
:10381000002283F83C20002318461037BD4680BDA7
:1038200080B485B000AF786039607B681B68FB604E
:103830007B68294A93420BD07B68B3F1804F07D055
:103840007B68264A934203D07B68254A934208D17D
:10385000FB6823F07003FB603B685B68FA68134306
:10386000FB607B681C4A93420BD07B68B3F1804FAE
:1038700007D07B68194A934203D07B68184A934269
:1038800008D1FB6823F44073FB603B68DB68FA688F
:103890001343FB60FB6823F080023B685B691343C2
:1038A000FB607B68FA681A603B689A687B68DA623A
:1038B0003B681A687B689A627B68074A934203D127
:1038C0003B681A697B681A637B6801225A6100BFF2
:1038D0001437BD4680BC7047002C014000040040F6
:1038E0000008004080B487B000AF786039607B6822
:1038F0001B6A23F001027B681A627B681B6A7B618A
:103900007B685B683B617B689B69FB60FB6823F0BD
:103910007003FB60FB6823F00303FB603B681B68DC
:10392000FA681343FB607B6923F002037B613B6809
:103930009B687A6913437B617B681C4A93420CD174
:103940007B6923F008037B613B68DB687A6913437A
:103950007B617B6923F004037B617B68134A93429C
:1039600011D13B6923F480733B613B6923F40073FD
:103970003B613B685B693A6913433B613B689B6908
:103980003A6913433B617B683A695A607B68FA681D
:103990009A613B685A687B685A637B687A691A62E5
:1039A00000BF1C37BD4680BC704700BF002C0140E3
:1039B00080B487B000AF786039607B681B6A23F001
:1039C00010027B681A627B681B6A7B617B685B689C
:1039D0003B617B689B69FB60FB6823F4E043FB6011
:1039E000FB6823F44073FB603B681B681B02FA68AA
:1039F0001343FB607B6923F020037B613B689B687A
:103A00001B017A6913437B617B681D4A93420DD188
:103A10007B6923F080037B613B68DB681B017A696B
:103A200013437B617B6923F040037B617B68144A0D
:103A3000934213D13B6923F480633B613B6923F4D8
:103A400000633B613B685B699B003A6913433B61E0
:103A50003B689B699B003A6913433B617B683A6909
:103A60005A607B68FA689A613B685A687B689A6317
:103A70007B687A691A6200BF1C37BD4680BC7047FC
:103A8000002C014080B487B000AF786039607B685B
:103A90001B6A23F480727B681A627B681B6A7B61F5
:103AA0007B685B683B617B68DB69FB60FB6823F0DC
:103AB0007003FB60FB6823F00303FB603B681B683B
:103AC000FA681343FB607B6923F400737B613B68F6
:103AD0009B681B027A6913437B617B681D4A934292
:103AE0000DD17B6923F400637B613B68DB681B02BB
:103AF0007A6913437B617B6923F480637B617B6814
:103B0000144A934213D13B6923F480533B613B69D0
:103B100023F400533B613B685B691B013A69134323
:103B20003B613B689B691B013A6913433B617B68BE
:103B30003A695A607B68FA68DA613B685A687B6860
:103B4000DA637B687A691A6200BF1C37BD4680BCA5
:103B5000704700BF002C014080B487B000AF786090
:103B600039607B681B6A23F480527B681A627B6829
:103B70001B6A3B617B685B687B617B68DB69FB6020
:103B8000FB6823F4E043FB60FB6823F44073FB60B5
:103B90003B681B681B02FA681343FB603B6923F414
:103BA00000533B613B689B681B033A6913433B61CD
:103BB0007B680F4A934209D17B6923F480437B6180
:103BC0003B685B699B017A6913437B617B687A6917
:103BD0005A607B68FA68DA613B685A687B681A64E5
:103BE0007B683A691A6200BF1C37BD4680BC7047CB
:103BF000002C014080B487B000AFF860B9607A60F3
:103C0000FB681B6A7B61FB681B6A23F00102FB688F
:103C10001A62FB689B693B613B6923F0F0033B61DF
:103C20007B681B013A6913433B617B6923F00A03FC
:103C30007B617A69BB6813437B61FB683A699A616F
:103C4000FB687A691A6200BF1C37BD4680BC7047AA
:103C500080B487B000AFF860B9607A60FB681B6A17
:103C600023F01002FB681A62FB689B697B61FB68AA
:103C70001B6A3B617B6923F470437B617B681B0398
:103C80007A6913437B613B6923F0A0033B61BB6806
:103C90001B013A6913433B61FB687A699A61FB68CF
:103CA0003A691A6200BF1C37BD4680BC704780B4B9
:103CB00085B000AF786039607B689B68FB60FB680B
:103CC00023F07003FB603A68FB68134343F007037B
:103CD000FB607B68FA689A6000BF1437BD4680BC01
:103CE000704780B487B000AFF860B9607A603B601D
:103CF000FB689B687B617B6923F47F437B613B6846
:103D00001A027B681A43BB6813437A6913437B61C9
:103D1000FB687A699A6000BF1C37BD4680BC70475B
:103D200080B487B000AFF860B9607A60BB6803F018
:103D30001F03012202FA03F37B61FB681A6A7B69A5
:103D4000DB431A40FB681A62FB681A6ABB6803F01F
:103D50001F03796801FA03F31A43FB681A6200BF74
:103D60001C37BD4680BC704780B485B000AF78601A
:103D700039607B6893F83C30012B01D1022346E087
:103D80007B68012283F83C207B68022283F83D2077
:103D90007B681B685B68FB607B681B689B68BB601B
:103DA000FB6823F07003FB603B681B68FA681343F1
:103DB000FB607B681B68FA685A607B681B68164A60
:103DC00093420ED07B681B68B3F1804F09D07B68AB
:103DD0001B68124A934204D07B681B68104A9342C6
:103DE0000CD1BB6823F08003BB603B685B68BA689A
:103DF0001343BB607B681B68BA689A607B680122CA
:103E000083F83D207B68002283F83C20002318467D
:103E10001437BD4680BC7047002C014000040040B0
:103E20000008004080B582B000AF78607B68002B4E
:103E300001D101233FE07B6893F83D30DBB2002BDA
:103E400006D17B68002283F83C207868FDF70CFFE0
:103E50007B68242283F83D207B681B68DA687B68D6
:103E60001B6822F40052DA60786800F085FC7B68F9
:103E70001B681A697B681B6822F490421A617B6890
:103E80001B685A697B681B6822F02A025A617B68AA
:103E90001B68DA687B681B6842F40052DA607B6852
:103EA00000221A647B68202283F83D207B68202250
:103EB00083F83E20002318460837BD4680BD80B5F4
:103EC0008AB002AFF860B9603B601346FB80002304
:103ED0007B61FB6893F83D30DBB2202B7CD1BB6863
:103EE000002B02D0FB88002B01D1012375E0FB6879
:103EF00093F83C30012B01D102236EE0FB680122D4
:103F000083F83C20FB6800221A64FB68212283F8B6
:103F10003D20FEF76FF87861FB68FA889A84FB68A9
:103F2000FA88DA84FB689B68B3F5805F08D1FB6888
:103F30001B69002B04D10023FB61BB68BB6103E05C
:103F4000BB68FB610023BB61FB68002283F83C2057
:103F50002AE03B6800937B6900228021F86800F02A
:103F600038FA0346002B01D0032336E0FB69002B0F
:103F70000BD1BB691B881A46FB681B68C2F3080299
:103F80005A60BB690233BB6107E0FB691A78FB68C2
:103F90001B685A60FB690133FB61FB68DB8C9BB2D9
:103FA000013B9AB2FB68DA84FB68DB8C9BB2002B86
:103FB000CFD13B6800937B6900224021F86800F074
:103FC00008FA0346002B01D0032306E0FB682022F9
:103FD00083F83D20002300E0022318462037BD4629
:103FE00080BD80B584B000AFF860B9601346FB8037
:103FF000FB6893F83E30DBB2202B1DD1BB68002B51
:1040000002D0FB88002B01D1012316E0FB6893F856
:104010003C30012B01D102230FE0FB68012283F821
:104020003C20FB6800221A63FB881A46B968F868CE
:1040300000F019FA034600E0022318461037BD4687
:1040400080BD000080B58AB000AF78607B681B68D7
:104050001B687B627B681B68DB683B627B681B6854
:104060005B69FB610023BB6100237B617B6A03F01A
:104070000F03BB61BB69002B0DD17B6A03F02003EA
:10408000002B08D03B6A03F02003002B03D0786894
:1040900000F0C9FA7BE1BB69002B00F0B180FB693D
:1040A00003F00103002B05D13B6A03F49073002B4E
:1040B00000F0A6807B6A03F00103002B0AD03B6A64
:1040C00003F48073002B05D07B681B6C43F0010266
:1040D0007B681A647B6A03F00403002B0AD0FB6937
:1040E00003F00103002B05D07B681B6C43F0020238
:1040F0007B681A647B6A03F00203002B0AD0FB6919
:1041000003F00103002B05D07B681B6C43F0040215
:104110007B681A647B6A03F00803002B0FD03B6AAC
:1041200003F02003002B04D1FB6903F00103002BF3
:1041300005D07B681B6C43F008027B681A647B68BF
:104140001B6C002B00F01E817B6A03F02003002B08
:1041500007D03B6A03F02003002B02D0786800F000
:1041600062FA7B681B685B6903F04003002B14BF95
:1041700001230023DBB27B617B681B6C03F0080327
:10418000002B02D17B69002B31D0786800F0A4F9B4
:104190007B681B685B6903F04003002B23D07B68BE
:1041A0001B685A697B681B6822F040025A617B6871
:1041B0009B6B002B13D07B689B6B764A5A637B68A2
:1041C0009B6B1846FEF792F80346002B16D07B68CF
:1041D0009B6B5B6B7A68926B104698470EE0786831
:1041E00000F0E3F80AE0786800F0DFF806E07868AD
:1041F00000F0DBF87B6800221A64C3E000BFC1E076
:104200007B681B6B012B40F0A1807B6A03F01003DD
:10421000002B00F09B803B6A03F01003002B00F0A2
:1042200095800023FB607B681B681B68FB607B68D4
:104230001B685B68FB60FB687B681B685B6903F05D
:104240004003002B4ED07B689B6B1B685B683B82F6
:104250003B8A002B00F098807B689B8D3A8A9A42BB
:1042600080F092807B683A8ADA857B689B6B9B69D9
:10427000202B2BD07B681B68DA687B681B6822F4D4
:104280008072DA607B681B685A697B681B6822F061
:1042900001025A617B681B685A697B681B6822F0BF
:1042A00040025A617B68202283F83E207B6800220E
:1042B0001A637B681B68DA687B681B6822F010024F
:1042C000DA607B689B6B1846FDF7D5FF7B689A8D9B
:1042D0007B68DB8D9BB2D31A9BB21946786800F0DD
:1042E0006DF851E07B689A8D7B68DB8D9BB2D31AA9
:1042F0007B827B68DB8D9BB2002B47D07B8A002BB7
:1043000044D07B681B68DA687B681B6822F4907273
:10431000DA607B681B685A697B681B6822F00102BF
:104320005A617B68202283F83E207B6800221A6352
:104330007B681B68DA687B681B6822F01002DA6011
:104340007B8A1946786800F039F81FE07B6A03F031
:104350008003002B08D03B6A03F08003002B03D0BE
:10436000786800F0F9F812E07B6A03F04003002B54
:104370000DD03B6A03F04003002B08D0786800F0B2
:104380003AF904E000BF02E000BF00E000BF2837B8
:10439000BD4680BD3145000880B483B000AF786071
:1043A00000BF0C37BD4680BC704780B483B000AFFF
:1043B000786000BF0C37BD4680BC704780B483B0C6
:1043C00000AF78600B467B8000BF0C37BD4680BCD9
:1043D000704780B584B000AFF860B9603B601346A9
:1043E000FB712CE0BB69B3F1FF3F28D0BB69002B08
:1043F00007D0FDF7FFFD02463B68D31ABA699A421F
:104400001DD2FB681B68DA68FB681B6822F4D07257
:10441000DA60FB681B685A69FB681B6822F00102BE
:104420005A61FB68202283F83D20FB68202283F834
:104430003E20FB68002283F83C2003230FE0FB684A
:104440001B681A68BB681340BA689A420CBF012304
:104450000023DBB21A46FB799A42C3D000231846E8
:104460001037BD4680BD80B485B000AFF860B9603C
:104470001346FB80FB68BA689A62FB68FA889A85E3
:10448000FB68FA88DA85FB6800221A64FB6822223E
:1044900083F83E20FB68002283F83C20FB681B6801
:1044A000DA68FB681B6842F48072DA60FB681B689C
:1044B0005A69FB681B6842F001025A61FB681B687D
:1044C000DA68FB681B6842F02002DA6000231846B5
:1044D0001437BD4680BC704780B483B000AF7860AD
:1044E0007B681B68DA687B681B6822F49072DA606C
:1044F0007B681B685A697B681B6822F001025A615D
:104500007B681B6B012B07D17B681B68DA687B68B3
:104510001B6822F01002DA607B68202283F83E20BC
:104520007B6800221A6300BF0C37BD4680BC704711
:1045300080B584B000AF78607B685B6AFB60FB6825
:104540000022DA85FB680022DA84F868FFF72DFF85
:1045500000BF1037BD4680BD80B485B000AF786025
:104560007B6893F83D30DBB2212B3ED17B689B68A2
:10457000B3F5805F14D17B681B69002B10D17B6879
:104580001B6AFB60FB681B881A467B681B68C2F3CA
:1045900008025A607B681B6A9A1C7B681A6208E0F2
:1045A0007B681B6A591C7A6811621A787B681B68E1
:1045B0005A607B68DB8C9BB2013B9BB27A681946E0
:1045C000D184002B0FD17B681B68DA687B681B687D
:1045D00022F08002DA607B681B68DA687B681B68FF
:1045E00042F04002DA60002300E00223184614374C
:1045F000BD4680BC704780B582B000AF78607B68F4
:104600001B68DA687B681B6822F04002DA607B680E
:10461000202283F83D207868FFF7BEFE002318466D
:104620000837BD4680BD80B586B000AF78607B6836
:1046300093F83E30DBB2222B40F099807B689B6878
:10464000B3F5805F17D17B681B69002B13D1002362
:104650007B617B689B6A3B617B681B685B689BB284
:10466000C3F308039AB23B691A807B689B6A9A1C61
:104670007B689A6226E07B689B6A7B6100233B61D2
:104680007B689B68B3F5805F07D07B689B68002BD5
:104690000AD17B681B69002B06D17B681B685B68AD
:1046A000DAB27B691A7008E07B681B685B68DBB272
:1046B00003F07F03DAB27B691A707B689B6A5A1C2D
:1046C0007B689A627B68DB8D9BB2013B9BB27A6808
:1046D0001946D185002B48D17B681B68DA687B6856
:1046E0001B6822F02002DA607B681B68DA687B684E
:1046F0001B6822F48072DA607B681B685A697B68E9
:104700001B6822F001025A617B68202283F83E2058
:104710007B681B6B012B23D17B6800221A637B68AB
:104720001B68DA687B681B6822F01002DA607B681D
:104730001B681B6803F01003102B0AD10023FB60D9
:104740007B681B681B68FB607B681B685B68FB60A1
:10475000FB687B689B8D19467868FFF72FFE02E0A7
:104760007868FDF723F9002302E0002300E002232C
:1047700018461837BD4680BD80B584B000AF78605C
:104780007B681B681B6923F440517B68DA687B688F
:104790001B680A431A617B689A687B681B691A4325
:1047A0007B685B691343BB607B681B68DB6823F431
:1047B000B05323F00C037A681268B9680B43D360D6
:1047C0007B681B685B6923F440717B689A697B682E
:1047D0001B680A435A617B681B682C4A934203D1C9
:1047E000FEF7AEFBF86002E0FEF796FBF860FA68B1
:1047F00013469B0013449A001A447B685B689B0035
:10480000B2FBF3F3224AA2FB03235B091901FA6806
:1048100013469B0013449A001A447B685B689B0014
:10482000B2FBF3F21A4BA3FB02035B09642000FB0B
:1048300003F3D31A1B013233154AA2FB03235B098E
:1048400003F0F0031944FA6813469B0013449A00DE
:104850001A447B685B689B00B2FBF3F20C4BA3FB32
:1048600002035B09642000FB03F3D31A1B013233FC
:10487000074AA2FB03235B0903F00F027B681B6856
:104880000A449A6000BF1037BD4680BD0038014021
:104890001F85EB5180B485B000AFEFF30583BB609B
:1048A000BB68002B0FD1EFF310837B607B68002B7C
:1048B00009D1104B1B68022B09D1EFF311833B6028
:1048C0003B68002B03D06FF00503FB600CE0094B45
:1048D0001B68002B05D1074B01221A600023FB60E7
:1048E00002E04FF0FF33FB60FB6818461437BD460B
:1048F00080BC70470C02002080B584B000AFEFF39D
:104900000583BB60BB68002B0FD1EFF310837B6086
:104910007B68002B09D1114B1B68022B09D1EFF3E7
:1049200011833B603B68002B03D06FF00503FB60F5
:104930000EE00A4B1B68012B07D1084B02221A60BC
:1049400001F0F0F80023FB6002E04FF0FF33FB6062
:10495000FB6818461037BD4680BD00BF0C02002022
:1049600080B584B000AFEFF30583BB60BB68002B5C
:104970000FD1EFF310837B607B68002B09D10B4BC9
:104980001B68022B09D1EFF311833B603B68002BBE
:1049900003D001F0E7F9F86002E001F0D5F9F86022
:1049A000FB6818461037BD4680BD00BF0C020020D2
:1049B00080B592B004AFF860B9607A6000237B6183
:1049C000EFF305837B627B6A002B40F09480EFF36A
:1049D00010833B623B6A002B40F08D80484B1B6884
:1049E000022B06D1EFF31183FB61FB69002B40F032
:1049F0008280FB68002B7ED080233B631823FB6200
:104A00000023FB7607F11B037B634FF0FF33BB6290
:104A10007B68002B45D07B681B68002B02D07B682D
:104A20001B687B637B689B69002B02D07B689B695A
:104A3000FB62FB6A002B08D0FB6A382B05D87B6829
:104A40005B6803F00103002B01D0002354E07B6876
:104A50005B69002B03D07B685B699B083B637B68C9
:104A60009B68002B0ED07B68DB685B2B0AD97B68C8
:104A70001B69002B06D07B685B69002B02D00123E9
:104A8000BB6210E07B689B68002B0CD17B68DB6805
:104A9000002B08D17B681B69002B04D10023BB626B
:104AA00001E00023BB62BB6A012B10D17B681B694C
:104AB0007A68926802920193FB6A0093BB683A6B32
:104AC000796BF86800F018FE03467B6113E0BB6A5F
:104AD000002B10D13B6B9AB207F114030193FB6AD0
:104AE0000093BB68796BF86800F062FE0346012B07
:104AF00001D000237B617B6918463837BD4680BDF5
:104B00000C02002080B588B000AF7860EFF3058319
:104B1000BB61BB69002B0FD1EFF310837B617B6915
:104B2000002B09D1104B1B68022B09D1EFF3118325
:104B30003B613B69002B03D06FF00503FB610EE086
:104B40000023FB6101F000F90346FB60FB687A6813
:104B5000D21A07F10C031146184600F065FFFB69F5
:104B600018462037BD4680BD0C02002080B485B0B9
:104B700000AFF860B9607A60FB68064A1A60BB68EB
:104B8000054A1A607B6880221A6000BF1437BD4650
:104B900080BC7047100200206C02002080B485B0F9
:104BA00000AFF860B9607A60FB68074A1A60BB68BA
:104BB000064A1A607B684FF480721A6000BF14378F
:104BC000BD4680BC704700BF6C040020C8040020B4
:104BD00080B483B000AF78607B6803F108027B6823
:104BE0005A607B684FF0FF329A607B6803F10802DD
:104BF0007B68DA607B6803F108027B681A617B6876
:104C000000221A6000BF0C37BD4680BC704780B4DC
:104C100083B000AF78607B6800221A6100BF0C3758
:104C2000BD4680BC704780B485B000AF7860396005
:104C30007B685B68FB603B68FA685A60FB689A684F
:104C40003B689A60FB689B683A685A60FB683A6800
:104C50009A603B687A681A617B681B685A1C7B689B
:104C60001A6000BF1437BD4680BC704780B485B061
:104C700000AF786039603B681B68BB60BB68B3F10C
:104C8000FF3F03D17B681B69FB600CE07B68083346
:104C9000FB6002E0FB685B68FB60FB685B681B68AD
:104CA000BA689A42F6D2FB685A683B685A603B6819
:104CB0005B683A689A603B68FA689A60FB683A6891
:104CC0005A603B687A681A617B681B685A1C7B686B
:104CD0001A6000BF1437BD4680BC704780B485B0F1
:104CE00000AF78607B681B69FB607B685B687A68F3
:104CF00092689A607B689B687A6852685A60FB6821
:104D00005B687A689A4203D17B689A68FB685A604C
:104D10007B6800221A61FB681B685A1EFB681A60D8
:104D2000FB681B6818461437BD4680BC70470000FE
:104D300080B584B000AF786039607B68FB60FB6849
:104D4000002B0AD14FF0500383F31188BFF36F8F0C
:104D5000BFF34F8FBB6000BFFEE702F027F8FB6890
:104D60001A68FB68DB6BF968096C01FB03F31A44F2
:104D7000FB685A60FB6800229A63FB681A68FB684C
:104D80009A60FB681A68FB68DB6B013BF968096C89
:104D900001FB03F31A44FB68DA60FB68FF2283F827
:104DA0004420FB68FF2283F845203B68002B14D188
:104DB000FB681B69002B1AD0FB681033184601F002
:104DC0004DF90346002B12D00C4B4FF080521A6065
:104DD000BFF34F8FBFF36F8F09E0FB6810331846A6
:104DE000FFF7F6FEFB6824331846FFF7F1FE02F0EA
:104DF0000DF8012318461037BD4680BD04ED00E0D4
:104E000080B58EB002AFF860B9607A603B60FB6835
:104E1000002B0AD14FF0500383F31188BFF36F8F3B
:104E2000BFF34F8FBB6200BFFEE73B68002B0AD188
:104E30004FF0500383F31188BFF36F8FBFF34F8F91
:104E40007B6200BFFEE77B68002B02D0BB68002BB3
:104E500001D0012300E00023002B0AD14FF05003C2
:104E600083F31188BFF36F8FBFF34F8F3B6200BF97
:104E7000FEE77B68002B02D1BB68002B01D1012328
:104E800000E00023002B0AD14FF0500383F3118878
:104E9000BFF36F8FBFF34F8FFB6100BFFEE750235F
:104EA0007B617B69502B0AD04FF0500383F311884C
:104EB000BFF36F8FBFF34F8FBB6100BFFEE73B684F
:104EC000FB62FB6A002B0DD0FB6A012283F84620AF
:104ED00097F83820FB6A009313467A68B968F86837
:104EE00000F005F8FB6A18463037BD4680BD80B536
:104EF00084B000AFF860B9607A60FB70BB68002BCB
:104F000003D1BB69BA691A6002E0BB697A681A60AA
:104F1000BB69FA68DA63BB69BA681A640121B869C7
:104F2000FFF706FFBB69FA7883F84C2000BF103703
:104F3000BD4680BD80B58EB000AFF860B9607A60C4
:104F40003B6000237B63FB683B633B6B002B0AD118
:104F50004FF0500383F31188BFF36F8FBFF34F8F70
:104F6000BB6200BFFEE7BB68002B03D13B6B1B6C31
:104F7000002B01D1012300E00023002B0AD14FF0C8
:104F8000500383F31188BFF36F8FBFF34F8F7B62A2
:104F900000BFFEE73B68022B03D13B6BDB6B012BB1
:104FA00001D1012300E00023002B0AD14FF0500370
:104FB00083F31188BFF36F8FBFF34F8F3B6200BF46
:104FC000FEE701F00DFA0346002B02D17B68002BAF
:104FD00001D1012300E00023002B0AD14FF0500340
:104FE00083F31188BFF36F8FBFF34F8FFB6100BF57
:104FF000FEE701F0DBFE3B6B9A6B3B6BDB6B9A428F
:1050000002D33B68022B29D13A68B968386B00F0AB
:1050100007FAF8623B6B5B6A002B10D03B6B2433C2
:10502000184601F01BF80346002B13D03F4B4FF0FE
:1050300080521A60BFF34F8FBFF36F8F0AE0FB6A95
:10504000002B07D0394B4FF080521A60BFF34F8FBF
:10505000BFF36F8F01F0DAFE012363E07B68002B62
:1050600003D101F0D3FE00235CE07B6B002B06D163
:1050700007F11403184601F055F801237B6301F092
:10508000C5FE00F0B5FD01F091FE3B6B93F8443096
:105090005BB2B3F1FF3F03D13B6B002283F84420A6
:1050A0003B6B93F845305BB2B3F1FF3F03D13B6BF1
:1050B000002283F8452001F0A9FE3A1D07F11403F0
:1050C0001146184601F044F80346002B24D1386BF2
:1050D00000F09EFA0346002B18D03B6B10337A6821
:1050E0001146184600F06AFF386B00F029FA00F00C
:1050F0008DFD0346002B7FF47CAF0C4B4FF08052AC
:105100001A60BFF34F8FBFF36F8F72E7386B00F0F9
:1051100017FA00F07BFD6CE7386B00F011FA00F035
:1051200075FD002318463837BD4680BD04ED00E00C
:1051300080B58EB000AFF860B9607A603B60FB6804
:105140003B633B6B002B0AD14FF0500383F3118874
:10515000BFF36F8FBFF34F8F7B6200BFFEE7BB686B
:10516000002B03D13B6B1B6C002B01D1012300E012
:105170000023002B0AD14FF0500383F31188BFF3B3
:105180006F8FBFF34F8F3B6200BFFEE73B68022B80
:1051900003D13B6BDB6B012B01D1012300E000232A
:1051A000002B0AD14FF0500383F31188BFF36F8FA8
:1051B000BFF34F8FFB6100BFFEE701F0B9FEEFF3D5
:1051C00011824FF0500383F31188BFF36F8FBFF349
:1051D0004F8FBA617B61BB69FB623B6B9A6B3B6B28
:1051E000DB6B9A4202D33B68022B2CD13B6B93F8CA
:1051F000453087F82B303A68B968386B00F010F901
:1052000097F92B30B3F1FF3F12D13B6B5B6A002B58
:1052100016D03B6B2433184600F020FF0346002BCA
:105220000ED07B68002B0BD07B6801221A6007E050
:1052300097F82B300133DBB25AB23B6B83F8452031
:1052400001237B6301E000237B63FB6A3B613B69D5
:1052500083F3118800BF7B6B18463837BD4680BD8D
:1052600080B58CB000AFF860B9607A600023FB6253
:10527000FB68BB62BB6A002B0AD14FF0500383F37B
:105280001188BFF36F8FBFF34F8F3B6200BFFEE704
:10529000BB68002B03D1BB6A1B6C002B01D101231F
:1052A00000E00023002B0AD14FF0500383F3118854
:1052B000BFF36F8FBFF34F8FFB6100BFFEE701F0BD
:1052C0008FF80346002B02D17B68002B01D101230C
:1052D00000E00023002B0AD14FF0500383F3118824
:1052E000BFF36F8FBFF34F8FBB6100BFFEE701F0CD
:1052F0005DFDBB6A9B6B7B627B6A002B1FD0B9682C
:10530000B86A00F0F7F87B6A5A1EBB6A9A63BB6AF8
:105310001B69002B0FD0BB6A1033184600F09EFEAD
:105320000346002B07D03D4B4FF080521A60BFF36D
:105330004F8FBFF36F8F01F069FD012369E07B6838
:10534000002B03D101F062FD002362E0FB6A002B19
:1053500006D107F11003184600F0E4FE0123FB62BA
:1053600001F054FD00F044FC01F020FDBB6A93F80D
:1053700044305BB2B3F1FF3F03D1BB6A002283F834
:105380004420BB6A93F845305BB2B3F1FF3F03D1D1
:10539000BB6A002283F8452001F038FD3A1D07F171
:1053A00010031146184600F0D3FE0346002B23D10C
:1053B000B86A00F017F90346002B17D0BB6A2433F4
:1053C0007A681146184600F0F9FDB86A00F0B8F89E
:1053D00000F01CFC0346002B89D1104B4FF080528B
:1053E0001A60BFF34F8FBFF36F8F80E7B86A00F08A
:1053F000A7F800F00BFC7AE7B86A00F0A1F800F01B
:1054000005FCB86A00F0EEF80346002B3FF46FAFDE
:10541000002318463037BD4680BD00BF04ED00E0D4
:1054200080B586B000AFF860B9607A6000237B6118
:10543000FB689B6B3B61FB681B6C002B0DD1FB6811
:105440001B68002B4DD1FB685B68184600F0E6FF37
:105450007861FB6800225A6043E07B68002B19D119
:10546000FB689868FB681B6C1A46B96801F0A0FFDE
:10547000FB689A68FB681B6C1A44FB689A60FB68BF
:105480009A68FB685B689A422BD3FB681A68FB68D2
:105490009A6026E0FB68D868FB681B6C1A46B968FE
:1054A00001F086FFFB68DA68FB681B6C5B421A44FC
:1054B000FB68DA60FB68DA68FB681B689A4207D20F
:1054C000FB685A68FB681B6C5B421A44FB68DA6035
:1054D0007B68022B05D13B69002B02D03B69013B65
:1054E0003B613B695A1CFB689A637B691846183715
:1054F000BD4680BD80B582B000AF786039607B6802
:105500001B6C002B18D07B68DA687B681B6C1A4414
:105510007B68DA607B68DA687B685B689A4203D3F1
:105520007B681A687B68DA607B68D9687B681B6C6B
:105530001A46386801F03CFF00BF0837BD4680BD01
:1055400080B584B000AF786001F030FC7B6893F8E0
:105550004530FB7311E07B685B6A002B12D07B68DF
:105560002433184600F07AFD0346002B01D000F0EA
:1055700051FEFB7B013BDBB2FB7397F90F30002B35
:10558000E9DC00E000BF7B68FF2283F8452001F0E2
:105590003DFC01F00BFC7B6893F84430BB7311E0D9
:1055A0007B681B69002B12D07B681033184600F013
:1055B00055FD0346002B01D000F02CFEBB7B013BC8
:1055C000DBB2BB7397F90E30002BE9DC00E000BFC3
:1055D0007B68FF2283F8442001F018FC00BF1037DD
:1055E000BD4680BD80B584B000AF786001F0DEFBC1
:1055F0007B689B6B002B02D10123FB6001E0002341
:10560000FB6001F003FCFB6818461037BD4680BD07
:1056100080B584B000AF786001F0C8FB7B689A6BFE
:105620007B68DB6B9A4202D10123FB6001E000231F
:10563000FB6001F0EBFBFB6818461037BD4680BDF0
:1056400080B485B000AF786039600023FB6014E05F
:105650000E4AFB6852F83330002B0BD10B49FB6824
:105660003A6841F83320094AFB68DB0013447A6842
:105670005A6006E0FB680133FB60FB68072BE7D943
:1056800000BF00BF1437BD4680BC7047741C0020AB
:1056900080B586B000AFF860B9607A60FB687B6166
:1056A00001F084FB7B6993F844305BB2B3F1FF3FB8
:1056B00003D17B69002283F844207B6993F845304D
:1056C0005BB2B3F1FF3F03D17B69002283F8452031
:1056D00001F09CFB7B699B6B002B06D17B6924331B
:1056E0007A68B968184600F08DFC7869FFF728FFE2
:1056F00000BF1837BD4680BD80B58EB004AFF860DE
:10570000B9607A603B607B6B002B0AD14FF050038D
:1057100083F31188BFF36F8FBFF34F8F3B6200BFDE
:10572000FEE7BB6B002B0AD14FF0500383F31188C7
:10573000BFF36F8FBFF34F8FFB6100BFFEE75C23AA
:105740003B613B695C2B0AD04FF0500383F3118817
:10575000BFF36F8FBFF34F8FBB6100BFFEE7BB6B23
:10576000002B1ED07B6B002B1BD0BB6B7B627B6A3C
:105770007A6B1A637B6A022283F859200023039311
:105780007B6A029307F1140301933B6B00933B6820
:105790007A68B968F86800F050F8786A00F0D4F8D0
:1057A00001E000237B617B6918462837BD4680BD38
:1057B00080B58CB004AFF860B9603B601346FB80E5
:1057C000FB889B00184601F0F1FB78617B69002B98
:1057D0000ED05C2001F0EAFBF861FB69002B03D0DE
:1057E000FB697A691A6305E0786901F0A3FC01E0BE
:1057F0000023FB61FB69002B17D0FB69002283F8B3
:105800005920FA8800230393FB690293FB6A0193F2
:10581000BB6A00933B68B968F86800F00EF8F86955
:1058200000F092F80123BB6102E04FF0FF33BB614F
:10583000BB6918462037BD4680BD80B588B000AF33
:10584000F860B9607A603B603B6B186B7B689B00CB
:105850001A46A52101F0BAFD3B6B1A6B7B6803F178
:105860008043013B9B001344BB61BB6923F00703EA
:10587000BB61BB6903F00703002B0AD04FF0500354
:1058800083F31188BFF36F8FBFF34F8F7B6100BF2E
:10589000FEE70023FB6112E0BA68FB691344197844
:1058A0003A6BFB69134434330A461A70BA68FB69D1
:1058B00013441B78002B06D0FB690133FB61FB69A5
:1058C0000F2BE9D900E000BF3B6B002283F8432097
:1058D000BB6A372B01D93723BB623B6BBA6ADA62EA
:1058E0003B6BBA6ADA643B6B00221A653B6B04338C
:1058F0001846FFF78CF93B6B18331846FFF787F90A
:105900003B6B3A6B1A61BB6AC3F138023B6B9A611D
:105910003B6B3A6B5A623B6B00225A653B6B002231
:1059200083F858203A68F968B86901F04BF90246E3
:105930003B6B1A60FB6A002B02D0FB6A3A6B1A6061
:1059400000BF2037BD4680BD80B582B000AF786013
:1059500001F02CFA2D4B1B6801332C4A13602C4BA1
:105960001B68002B09D12A4A7B681360274B1B68F0
:10597000012B10D100F072FC0DE0264B1B68002BB0
:1059800009D1234B1B68DA6A7B68DB6A9A4202D82A
:105990001F4A7B681360204B1B6801331E4A13604B
:1059A0001D4B1A687B685A647B68DA6A1B4B1B685C
:1059B0009A4203D97B68DB6A184A13607B68DA6A0B
:1059C00013469B0013449B00154A1A447B6804331A
:1059D00019461046FFF727F901F018FA0D4B1B681E
:1059E000002B0ED00A4B1B68DA6A7B68DB6A9A428E
:1059F00007D20C4B4FF080521A60BFF34F8FBFF3AA
:105A00006F8F00BF0837BD4680BD00BF9C0D0020D2
:105A1000C8080020A80D0020B80D0020A40D00200B
:105A2000CC08002004ED00E080B58AB000AF7860BB
:105A3000396000237B627B68002B0AD14FF0500352
:105A400083F31188BFF36F8FBFF34F8F7B6100BF6C
:105A5000FEE73B68002B0AD14FF0500383F3118817
:105A6000BFF36F8FBFF34F8F3B6100BFFEE72A4B41
:105A70001B68002B0AD04FF0500383F31188BFF34B
:105A80006F8FBFF34F8FFB6000BFFEE700F0B0F8F1
:105A9000224B1B683B627B681B683A681344FB61BE
:105AA0007B681B683A6A9A420BD27B681B68FA696A
:105AB0009A4211D2FA693B6A9A420DD901237B625C
:105AC0000AE07B681B68FA699A4203D3FA693B6A69
:105AD0009A4201D901237B627B68FA691A607B6A6A
