:020000040800F2
:10000000002800208D0500080D05000813050008D4
:10001000190500081F05000825050008000000005C
:100020000000000000000000000000002B05000898
:100030003705000800000000430500084F050008D0
:10004000D5050008D5050008D5050008D505000828
:10005000D5050008D5050008D5050008D505000818
:10006000D5050008D5050008D5050008D505000808
:10007000D5050008D5050008D5050008D5050008F8
:10008000D5050008D5050008D5050008D5050008E8
:10009000D5050008D5050008D5050008D5050008D8
:1000A000D5050008D5050008D5050008D5050008C8
:1000B000D5050008D505000800000000D50500089A
:1000C000D505000800000000000000005D050008E4
:1000D00000000000D5050008D5050008000000005C
:1000E000D5050008D5050008D5050008000000006A
:1000F0000000000000000000000000000000000000
:0C01000000000000000000005FF808F1A3
:10010C0010B5054C237833B9044B13B10448AFF345
:10011C0000800123237010BD0C00002000000000A3
:10012C00F821000808B5034B1BB103490348AFF392
:10013C00008008BD0000000010000020F82100081D
:10014C0080B500AF00F042FA00F010F800F0A8F80B
:10015C0000F048F800F07AF801220249024801F058
:10016C004BFAFEE76C0000207000002080B590B0C8
:10017C0000AF07F1180328220021184602F02EF8D0
:10018C003B1D00221A605A609A60DA601A610223E1
:10019C00BB610123BB621023FB6200237B6307F16D
:1001AC001803184600F08AFD0346002B01D000F01E
:1001BC00D1F80F237B600023BB600023FB6000237E
:1001CC003B6100237B613B1D0021184600F0F6FFCC
:1001DC000346002B01D000F0BDF800BF4037BD46F0
:1001EC0080BD000080B500AF164B174A1A60154B46
:1001FC0000225A60134B00229A60124B0022DA60E4
:10020C00104B00221A610F4B00225A610D4B002239
:10021C009A610C4B0022DA610A4B00221A62094BDC
:10022C0000225A62074B00229A62064B0A22DA62BB
:10023C00044801F05DF90346002B01D000F08AF868
:10024C0000BF80BD700000200030014080B500AFC1
:10025C00114B124A1A60104B4FF416525A600E4B47
:10026C0000229A600C4B0022DA600B4B00221A61C0
:10027C00094B0C225A61084B00229A61064B002252
:10028C00DA61054801F0ABFE0346002B01D000F00B
:10029C0061F800BF80BD00BF28000020003801407D
:1002AC0080B586B000AF07F1080300221A605A60CF
:1002BC009A60DA60184B9B69174A43F010039361FC
:1002CC00154B9B6903F010037B607B68124B9B6999
:1002DC00114A43F0040393610F4B9B6903F0040331
:1002EC003B603B6801224FF400510C4800F0CEFCFF
:1002FC004FF40053BB600123FB6000233B610223DE
:10030C007B6107F108031946044800F045FB00BF68
:10031C001837BD4680BD00BF0010024000100140E0
:10032C0080B582B000AF786001220749074801F020
:10033C0063F900224FF40051054800F0A7FC00BF00
:10034C000837BD4680BD00BF6C0000207000002047
:10035C000010014080B400AF72B600BFFEE7000091
:10036C0080B485B000AF154B9B69144A43F0010370
:10037C009361124B9B6903F00103BB60BB680F4B8D
:10038C00DB690E4A43F08053D3610C4BDB6903F0FD
:10039C0080537B607B680A4B5B68FB60FB6823F0D7
:1003AC00E063FB60FB6843F00073FB60044AFB688E
:1003BC00536000BF1437BD4680BC7047001002402C
:1003CC000000014080B588B000AF786007F11003E1
:1003DC0000221A605A609A60DA607B681B681F4AB8
:1003EC00934237D11E4B9B691D4A43F48053936152
:1003FC001B4B9B6903F48053FB60FB68184B9B6998
:10040C00174A43F004039361154B9B6903F00403F3
:10041C00BB60BB68B0233B6100237B610023BB61E5
:10042C0007F1100319460F4800F0B6FA40233B6160
:10043C0002237B610323FB6107F110031946094872
:10044C0000F0AAFA00220021232000F0F8F9232062
:10045C0000F011FA00BF2037BD4680BD00300140CE
:10046C00001002400008014080B588B000AF7860F1
:10047C0007F1100300221A605A609A60DA607B68F8
:10048C001B681C4A934231D11B4B9B691A4A43F49B
:10049C0080439361184B9B6903F48043FB60FB68BA
:1004AC00154B9B69144A43F004039361124B9B69EF
:1004BC0003F00403BB60BB684FF400733B61022381
:1004CC007B610323FB6107F1100319460B4800F015
:1004DC0063FA4FF480633B6100237B610023BB61B3
:1004EC0007F110031946054800F056FA00BF2037F3
:1004FC00BD4680BD0038014000100240000801409C
:10050C0080B400AFFEE780B400AFFEE780B400AF6C
:10051C00FEE780B400AFFEE780B400AFFEE780B426
:10052C0000AF00BFBD4680BC704780B400AF00BFB9
:10053C00BD4680BC704780B400AF00BFBD4680BCD8
:10054C00704780B500AF00F087F800BF80BD000099
:10055C0080B500AF054801F081F900224FF400513D
:10056C00034800F093FB00BF80BD00BF700000206B
:10057C000010014080B400AF00BFBD4680BC704786
:10058C000C480D490D4A002302E0D458C4500433E2
:10059C00C4188C42F9D30A4A0A4C002301E01360B8
:1005AC000432A242FBD3FFF7E5FF01F0F3FDFFF7A6
:1005BC00C7FD7047000000200C00002040220008FE
:1005CC000C000020CC000020FEE7000080B500AF3E
:1005DC00084B1B68074A43F010031360032000F01C
:1005EC0023F90F2000F008F8FFF7BAFE0023184695
:1005FC0080BD00BF0020024080B582B000AF7860A3
:10060C00124B1A68124B1B7819464FF47A73B3FBD2
:10061C00F1F3B2FBF3F3184600F03BF90346002B61
:10062C0001D001230EE07B680F2B0AD800227968D9
:10063C004FF0FF3000F003F9064A7B68136000238B
:10064C0000E0012318460837BD4680BD000000209D
:10065C00080000200400002080B400AF054B1B787C
:10066C001A46054B1B681344034A136000BFBD4672
:10067C0080BC704708000020C800002080B400AF88
:10068C00024B1B681846BD4680BC7047C800002052
:10069C0080B485B000AF78607B6803F00703FB6023
:1006AC000C4BDB68BB60BA684FF6FF031340BB60B2
:1006BC00FB681A02BB68134343F0BF6343F4003377
:1006CC00BB60044ABB68D36000BF1437BD4680BC16
:1006DC00704700BF00ED00E080B400AF044BDB6856
:1006EC001B0A03F007031846BD4680BC704700BFC9
:1006FC0000ED00E080B483B000AF0346FB7197F9C6
:10070C000730002B0BDBFB7903F01F02064997F92E
:10071C0007305B09012000FA02F241F8232000BFE8
:10072C000C37BD4680BC704700E100E080B483B05C
:10073C0000AF03463960FB7197F90730002B0ADBD9
:10074C003B68DAB20C4997F907301201D2B20B446C
:10075C0083F800230AE03B68DAB20849FB7903F01E
:10076C000F03043B1201D2B20B441A7600BF0C37B4
:10077C00BD4680BC704700BF00E100E000ED00E02A
:10078C0080B489B000AFF860B9607A60FB6803F0A0
:10079C000703FB61FB69C3F10703042B28BF042388
:1007AC00BB61FB690433062B02D9FB69033B00E0F8
:1007BC0000237B614FF0FF32BB6902FA03F3DA438B
:1007CC00BB681A407B699A404FF0FF317B6901FA94
:1007DC0003F3D9437B680B40134318462437BD46BB
:1007EC0080BC704780B582B000AF78607B68013BFD
:1007FC00B3F1807F01D301230FE00A4A7B68013BF0
:10080C0053600F214FF0FF30FFF790FF054B002294
:10081C009A60044B07221A60002318460837BD461D
:10082C0080BD00BF10E000E080B582B000AF786002
:10083C007868FFF72DFF00BF0837BD4680BD80B537
:10084C0086B000AF0346B9607A60FB7300237B610E
:10085C00FFF742FF78617A68B9687869FFF790FF13
:10086C00024697F90F3011461846FFF75FFF00BF9D
:10087C001837BD4680BD80B582B000AF0346FB7112
:10088C0097F907301846FFF735FF00BF0837BD460C
:10089C0080BD80B582B000AF78607868FFF7A2FFAA
:1008AC00034618460837BD4680BD000080B584B0AD
:1008BC0000AF78600023FB737B6893F82130022B28
:1008CC0005D07B6804229A630123FB7351E07B689B
:1008DC001B681A687B681B6822F00E021A607B6822
:1008EC001B681A687B681B6822F001021A607B681F
:1008FC001B68224A934229D07B681B68204A93428A
:10090C0022D07B681B681F4A93421AD07B681B68F5
:10091C001D4A934212D07B681B681C4A93420AD032
:10092C007B681B681A4A934202D14FF480130EE085
:10093C004FF080730BE04FF4803308E04FF480539A
:10094C0005E04FF4807302E0102300E00123114A0C
:10095C0053607B68012283F821207B68002283F896
:10096C0020207B685B6B002B03D07B685B6B78680B
:10097C009847FB7B18461037BD4680BD08000240E7
:10098C001C0002403000024044000240580002406B
:10099C006C0002400000024080B48BB000AF786065
:1009AC00396000237B6200233B6248E101227B6AB1
:1009BC0002FA03F3FB613B681B68FA691340BB61E5
:1009CC00BA69FB699A4240F037813B685B68A34A7D
:1009DC0093425ED0A14A934275D8A14A934258D013
:1009EC009F4A93426FD89F4A934252D09D4A93425A
:1009FC0069D89D4A93424CD09B4A934263D89B4AF8
:100A0C00934246D0994A93425DD8122B2AD8122B86
:100A1C0059D801A252F823F09F0A0008790A00085D
:100A2C008B0A0008CD0A0008D30A0008D30A000874
:100A3C00D30A0008D30A0008D30A0008D30A000816
:100A4C00D30A0008D30A0008D30A0008D30A000806
:100A5C00D30A0008D30A0008D30A0008810A000848
:100A6C00950A0008824A934213D02CE03B68DB685D
:100A7C003B6229E03B68DB6804333B6224E03B6863
:100A8C00DB6808333B621FE03B68DB680C333B627E
:100A9C001AE03B689B68002B02D104233B6213E0F5
:100AAC003B689B68012B05D108233B627B68FA6984
:100ABC001A6109E008233B627B68FA695A6103E01A
:100ACC0000233B6200E000BFBB69FF2B01D87B68B1
:100ADC0001E07B6804337B61BB69FF2B02D87B6A26
:100AEC009B0002E07B6A083B9B003B617B691A68B8
:100AFC000F213B6901FA03F3DB431A40396A3B6966
:100B0C0001FA03F31A437B691A603B685B6803F0D4
:100B1C008053002B00F09080564B9B69554A43F054
:100B2C0001039361534B9B6903F00103BB60BB68EA
:100B3C00514A7B6A9B08023352F82330FB607B6A74
:100B4C0003F003039B000F2202FA03F3DB43FA6862
:100B5C001340FB607B68494A93420DD07B68484A3E
:100B6C00934207D07B68474A934201D1022304E0A9
:100B7C00032302E0012300E000237A6A02F003025F
:100B8C0092009340FA681343FB603B497B6A9B08D5
:100B9C000233FA6841F823203B685B6803F4803326
:100BAC00002B06D0384B1A683749BB6913430B60CE
:100BBC0006E0354B1A68BB69DB43334913400B60C5
:100BCC003B685B6803F40033002B06D02E4B5A684D
:100BDC002D49BB6913434B6006E02B4B5A68BB692C
:100BEC00DB43294913404B603B685B6803F480137B
:100BFC00002B06D0244B9A682349BB6913438B60A6
:100C0C0006E0214B9A68BB69DB431F4913408B609C
:100C1C003B685B6803F40013002B06D01A4BDA68B0
:100C2C001949BB691343CB6006E0174BDA68BB6903
:100C3C00DB4315491340CB607B6A01337B623B6815
:100C4C001A687B6A22FA03F3002B7FF4AFAE00BF65
:100C5C0000BF2C37BD4680BC704700BF000032106F
:100C6C0000003110000022100000211000001210B2
:100C7C00000011100010024000000140000801406B
:100C8C00000C0140001001400004014080B483B00E
:100C9C0000AF78600B467B8013467B707B78002B13
:100CAC0003D07A887B681A6103E07B881A047B681E
:100CBC001A6100BF0C37BD4680BC704780B586B04A
:100CCC0000AF78607B68002B01D101236CE27B685C
:100CDC001B6803F00103002B00F08780924B5B68CC
:100CEC0003F00C03042B0CD08F4B5B6803F00C034C
:100CFC00082B12D18C4B5B6803F48033B3F5803F27
:100D0C000BD1894B1B6803F40033002B6CD07B6830
:100D1C005B68002B68D1012346E27B685B68B3F506
:100D2C00803F06D1804B1B687F4A43F480331360AD
:100D3C002EE07B685B68002B0CD17B4B1B687A4ADE
:100D4C0023F480331360784B1B68774A23F4802399
:100D5C0013601DE07B685B68B3F5A02F0CD1724B60
:100D6C001B68714A43F4802313606F4B1B686E4AF7
:100D7C0043F4803313600BE06B4B1B686A4A23F41B
:100D8C0080331360684B1B68674A23F4802313601D
:100D9C007B685B68002B13D0FFF770FC386108E0B0
:100DAC00FFF76CFC02463B69D31A642B01D9032371
:100DBC00FAE15D4B1B6803F40033002BF0D014E018
:100DCC00FFF75CFC386108E0FFF758FC02463B6912
:100DDC00D31A642B01D90323E6E1534B1B6803F4AC
:100DEC000033002BF0D100E000BF7B681B6803F0E0
:100DFC000203002B63D04C4B5B6803F00C03002BFD
:100E0C000BD0494B5B6803F00C03082B1CD1464BF1
:100E1C005B6803F48033002B16D1434B1B6803F043
:100E2C000203002B05D07B681B69012B01D0012329
:100E3C00BAE13D4B1B6823F0F8027B685B69DB0071
:100E4C00394913430B603AE07B681B69002B20D0B7
:100E5C00364B01221A60FFF711FC386108E0FFF7EE
:100E6C000DFC02463B69D31A022B01D903239BE1EB
:100E7C002D4B1B6803F00203002BF0D02A4B1B6890
:100E8C0023F0F8027B685B69DB00274913430B6096
:100E9C0015E0264B00221A60FFF7F0FB386108E0E2
:100EAC00FFF7ECFB02463B69D31A022B01D9032353
:100EBC007AE11D4B1B6803F00203002BF0D17B6819
:100ECC001B6803F00803002B3AD07B689B69002B4E
:100EDC0019D0174B01221A60FFF7D0FB386108E0DC
:100EEC00FFF7CCFB02463B69D31A022B01D9032333
:100EFC005AE10D4B5B6A03F00203002BF0D001208A
:100F0C0000F0D8FA1CE00A4B00221A60FFF7B6FB7F
:100F1C0038610FE0FFF7B2FB02463B69D31A022B94
:100F2C0008D9032340E100BF0010024000004242F8
:100F3C00800442429E4B5B6A03F00203002BE9D112
:100F4C007B681B6803F00403002B00F0A6800023D1
:100F5C00FB75974BDB6903F08053002B0DD1944B41
:100F6C00DB69934A43F08053D361914BDB6903F007
:100F7C008053BB60BB680123FB758E4B1B6803F46D
:100F8C008073002B18D18B4B1B688A4A43F48073F7
:100F9C001360FFF773FB386108E0FFF76FFB024645
:100FAC003B69D31A642B01D90323FDE0814B1B68E9
:100FBC0003F48073002BF0D07B68DB68012B06D127
:100FCC007B4B1B6A7A4A43F0010313622DE07B686A
:100FDC00DB68002B0CD1764B1B6A754A23F001039E
:100FEC001362734B1B6A724A23F0040313621CE0F6
:100FFC007B68DB68052B0CD16D4B1B6A6C4A43F08C
:10100C00040313626A4B1B6A694A43F001031362BF
:10101C000BE0674B1B6A664A23F001031362644BB7
:10102C001B6A634A23F0040313627B68DB68002BA2
:10103C0015D0FFF723FB38610AE0FFF71FFB0246D0
:10104C003B69D31A41F28832934201D90323ABE0B6
:10105C00574B1B6A03F00203002BEED014E0FFF792
:10106C000DFB38610AE0FFF709FB02463B69D31A16
:10107C0041F28832934201D9032395E04C4B1B6A11
:10108C0003F00203002BEED1FB7D012B05D1484B65
:10109C00DB69474A23F08053D3617B68DB69002B03
:1010AC0000F08180424B5B6803F00C03082B61D08D
:1010BC007B68DB69022B46D13F4B00221A60FFF79D
:1010CC00DDFA386108E0FFF7D9FA02463B69D31A1A
:1010DC00022B01D9032367E0354B1B6803F0007327
:1010EC00002BF0D17B681B6AB3F5803F08D1304BE5
:1010FC005B6823F400327B689B682D4913434B607B
:10110C002B4B5B6823F474127B68196A7B685B6AEF
:10111C000B43274913434B60274B01221A60FFF7FF
:10112C00ADFA386108E0FFF7A9FA02463B69D31A19
:10113C00022B01D9032337E01D4B1B6803F000730E
:10114C00002BF0D02FE01C4B00221A60FFF796FA10
:10115C00386108E0FFF792FA02463B69D31A022B7A
:10116C0001D9032320E0124B1B6803F00073002B02
:10117C00F0D118E07B68DB69012B01D1012313E06E
:10118C000B4B5B68FB60FB6803F480327B681B6A6B
:10119C009A4206D1FB6803F470127B685B6A9A4230
:1011AC0001D0012300E0002318461837BD4680BD4E
:1011BC0000100240007000406000424280B584B0D4
:1011CC0000AF786039607B68002B01D10123D0E03F
:1011DC006A4B1B6803F007033A689A4210D9674BB5
:1011EC001B6823F0070265493B6813430B60634B94
:1011FC001B6803F007033A689A4201D00123B8E058
:10120C007B681B6803F00203002B20D07B681B68F3
:10121C0003F00403002B05D0594B5B68584A43F488
:10122C00E06353607B681B6803F00803002B05D058
:10123C00534B5B68524A43F460535360504B5B68AA
:10124C0023F0F0027B689B684D4913434B607B682D
:10125C001B6803F00103002B40D07B685B68012BFB
:10126C0007D1474B1B6803F40033002B15D1012326
:10127C007FE07B685B68022B07D1414B1B6803F056
:10128C000073002B09D1012373E03D4B1B6803F065
:10129C000203002B01D101236BE0394B5B6823F077
:1012AC0003027B685B68364913434B60FFF7E6F932
:1012BC00F8600AE0FFF7E2F90246FB68D31A41F244
:1012CC008832934201D9032353E02D4B5B6803F022
:1012DC000C027B685B689B009A42EBD1274B1B6826
:1012EC0003F007033A689A4210D2244B1B6823F090
:1012FC00070222493B6813430B60204B1B6803F029
:10130C0007033A689A4201D0012332E07B681B68DC
:10131C0003F00403002B08D0194B5B6823F4E06244
:10132C007B68DB68164913434B607B681B6803F0D2
:10133C000803002B09D0124B5B6823F460527B68C6
:10134C001B69DB000E4913434B6000F021F8024689
:10135C000B4B5B681B0903F00F030A49CB5C22FAA9
:10136C0003F3094A1360094B1B681846FFF744F94D
:10137C00002318461037BD4680BD00BF0020024038
:10138C000010024020220008000000200400002071
:10139C0090B48AB000AF2A4B3C1D0FCB84E80F00F1
:1013AC0040F201233B800023FB610023BB6100233F
:1013BC007B6200237B6100233B62224B5B68FB61F9
:1013CC00FB6903F00C03042B02D0082B03D02DE097
:1013DC001D4B3B622DE0FB699B0C03F00F0307F1E7
:1013EC002802134413F8243C7B61FB6903F480331B
:1013FC00002B13D0134B5B685B0C03F0010307F15C
:10140C002802134413F8283CBB617B690E4A02FB8B
:10141C0003F2BB69B2FBF3F37B6204E07B690B4A1A
:10142C0002FB03F37B627B6A3B6202E0064B3B628E
:10143C0000BF3B6A18462837BD4690BC704700BFBA
:10144C00102200080010024000127A0000093D0032
:10145C0080B400AF024B1B681846BD4680BC704779
:10146C000000002080B500AFFFF7F2FF0246054BED
:10147C005B681B0A03F007030349CB5C22FA03F3F6
:10148C00184680BD001002403022000880B500AF25
:10149C00FFF7DEFF0246054B5B68DB0A03F0070330
:1014AC000349CB5C22FA03F3184680BD00100240BE
:1014BC003022000880B485B000AF78600A4B1B68FE
:1014CC000A4AA2FB03235B0A7A6802FB03F3FB6064
:1014DC0000BFFB685A1EFA60002BF9D100BF00BF99
:1014EC001437BD4680BC704700000020D34D6210FD
:1014FC0080B582B000AF78607B68002B01D10123EE
:10150C0076E07B685B6A002B08D17B685B68B3F57F
:10151C00827F09D07B680022DA6105E07B680022BB
:10152C001A617B6800225A617B6800229A627B6890
:10153C0093F85130DBB2002B06D17B68002283F884
:10154C0050207868FEF73EFF7B68022283F851201A
:10155C007B681B681A687B681B6822F040021A6063
:10156C007B685B6803F482727B689B6803F40443BA
:10157C001A437B68DB6803F400631A437B681B69BE
:10158C0003F002031A437B685B6903F001031A43FF
:10159C007B689B6903F400731A437B68DB6903F077
:1015AC0038031A437B681B6A03F0800342EA030189
:1015BC007B689B6A03F400527B681B680A431A60C1
:1015CC007B689B691A0C7B681B6802F004025A60EA
:1015DC007B681B68DA697B681B6822F40062DA613D
:1015EC007B6800225A657B68012283F85120002316
:1015FC0018460837BD4680BD80B586B000AFF86090
:10160C00B9601346FB800023FB75FB689B68002BBD
:10161C0010D1FB685B68B3F5827F0BD1FB680422A9
:10162C0083F85120FB88BA68B968F86800F082F832
:10163C00034676E0FB6893F85030012B01D102236E
:10164C006FE0FB68012283F85020FB6893F851305F
:10165C00DBB2012B02D00223FB755DE0BB68002BD3
:10166C0002D0FB88002B02D10123FB7554E0FB68F0
:10167C00042283F85120FB6800225A65FB68BA6883
:10168C009A63FB68FA889A87FB68FA88DA87FB68A2
:10169C0000221A63FB6800229A86FB680022DA8615
:1016AC00FB6800225A64FB68DB68002B03D0FB68E4
:1016BC001E4A1A6402E0FB681D4A1A64FB689B68A8
:1016CC00B3F5004F0FD1FB681B681A68FB681B68E9
:1016DC0022F040021A60FB681B681A68FB681B68E2
:1016EC0022F480421A60FB681B685A68FB681B680E
:1016FC0042F060025A60FB681B681B6803F04003F1
:10170C00402B08D0FB681B681A68FB681B6842F00A
:10171C0040021A6000E000BFFB68002283F85020F2
:10172C00FB7D18461837BD4680BD00BF4D1C000818
:10173C00031C000880B487B000AFF860B9607A6011
:10174C007B800023FB75FB6893F85030012B01D193
:10175C00022375E0FB68012283F85020FB6893F8A4
:10176C005130BB75FB685B683B61BB7D012B0DD0B9
:10177C003B69B3F5827F06D1FB689B68002B02D1D5
:10178C00BB7D042B02D00223FB7554E0BB68002BFD
:10179C0005D07B68002B02D07B88002B02D1012363
:1017AC00FB7548E0FB6893F85130DBB2042B03D097
:1017BC00FB68052283F85120FB6800225A65FB6800
:1017CC00BA681A63FB687A889A86FB687A88DA8624
:1017DC00FB687A689A63FB687A889A87FB687A88D0
:1017EC00DA87FB68DB68002B06D0FB68174A1A64A3
:1017FC00FB68174A5A6405E0FB68164A1A64FB68D2
:10180C00154A5A64FB681B685A68FB681B6842F0EF
:10181C00E0025A60FB681B681B6803F04003402B16
:10182C0008D0FB681B681A68FB681B6842F0400212
:10183C001A6000E000BFFB68002283F85020FB7D9B
:10184C0018461C37BD4680BC704700BF451B0008BE
:10185C00A51B0008811A0008E51A000880B588B09D
:10186C0000AF78607B681B685B68FB617B681B68FA
:10187C009B68BB61BB699B0903F00103002B0FD173
:10188C00BB6903F00103002B0AD0FB699B0903F031
:10189C000103002B04D07B681B6C78689847BEE072
:1018AC00BB695B0803F00103002B0AD0FB69DB0961
:1018BC0003F00103002B04D07B685B6C78689847BD
:1018CC00ADE0BB695B0903F00103002B06D1BB69DA
:1018DC009B0903F00103002B00F0A180FB695B095D
:1018EC0003F00103002B00F09A80BB699B0903F005
:1018FC000103002B23D07B6893F85130DBB2032B10
:10190C0011D07B685B6D43F004027B685A65002341
:10191C007B617B681B68DB687B617B681B689B68F1
:10192C007B617B690BE000233B617B681B68DB6898
:10193C003B617B681B689B683B613B696FE0BB69E3
:10194C005B0903F00103002B14D07B685B6D43F043
:10195C0001027B685A650023FB607B681B689B68EF
:10196C00FB607B681B681A687B681B6822F040026E
:10197C001A60FB687B685B6D002B4FD07B681B6823
:10198C005A687B681B6822F0E0025A607B6801226F
:10199C0083F85120FB6903F00203002B04D1FB698F
:1019AC0003F00103002B34D07B681B685A687B68FA
:1019BC001B6822F003025A607B68DB6C002B11D091
:1019CC007B68DB6C174A5A637B68DB6C1846FEF746
:1019DC006DFF0346002B05D07B685B6D43F0400226
:1019EC007B685A657B689B6C002B16D07B689B6C64
:1019FC000C4A5A637B689B6C1846FEF757FF0346EC
:101A0C00002B0AD07B685B6D43F040027B685A6503
:101A1C0003E0786800F011F800E000BF00BF203749
:101A2C00BD4680BD591A000880B483B000AF786001
:101A3C0000BF0C37BD4680BC704780B483B000AF8C
:101A4C00786000BF0C37BD4680BC704780B584B051
:101A5C0000AF78607B685B6AFB60FB680022DA870A
:101A6C00FB680022DA86F868FFF7E7FF00BF103743
:101A7C00BD4680BD80B582B000AF78607B681B68C6
:101A8C0003F10C027B689B6B1278D2B21A707B68E4
:101A9C009B6B5A1C7B689A637B68DB8F9BB2013B08
:101AAC009AB27B68DA877B68DB8F9BB2002B0FD1F5
:101ABC007B681B685A687B681B6822F060025A605E
:101ACC007B68DB8E9BB2002B02D1786800F0D4F9D6
:101ADC0000BF0837BD4680BD80B582B000AF7860CE
:101AEC007B681A6B7B681B680C3312781A707B68E6
:101AFC001B6B5A1C7B681A637B68DB8E9BB2013BA9
:101B0C009AB27B68DA867B68DB8E9BB2002B0FD196
:101B1C007B681B685A687B681B6822F080025A60DD
:101B2C007B68DB8F9BB2002B02D1786800F0A4F9A4
:101B3C0000BF0837BD4680BD80B582B000AF78606D
:101B4C007B681B68DA687B689B6B92B21A807B6837
:101B5C009B6B9A1C7B689A637B68DB8F9BB2013B07
:101B6C009AB27B68DA877B68DB8F9BB2002B0FD134
:101B7C007B681B685A687B681B6822F040025A60BD
:101B8C007B68DB8E9BB2002B02D1786800F074F975
:101B9C0000BF0837BD4680BD80B582B000AF78600D
:101BAC007B681B6B1A887B681B68DA607B681B6B15
:101BBC009A1C7B681A637B68DB8E9BB2013B9AB2E2
:101BCC007B68DA867B68DB8E9BB2002B0FD17B683F
:101BDC001B685A687B681B6822F080025A607B681D
:101BEC00DB8F9BB2002B02D1786800F045F900BF67
:101BFC000837BD4680BD80B582B000AF78607B6889
:101C0C001B6803F10C027B689B6B1278D2B21A70C2
:101C1C007B689B6B5A1C7B689A637B68DB8F9BB2DF
:101C2C00013B9AB27B68DA877B68DB8F9BB2002B17
:101C3C0002D1786800F094F900BF0837BD4680BD2A
:101C4C0080B582B000AF78607B681B68DA687B680F
:101C5C009B6B92B21A807B689B6B9A1C7B689A6315
:101C6C007B68DB8F9BB2013B9AB27B68DA877B681F
:101C7C00DB8F9BB2002B02D1786800F071F900BFAA
:101C8C000837BD4680BD000080B588B000AFF86055
:101C9C00B9603B601346FB71FEF7F0FC0246BB6A71
:101CAC009B1A3A681344FB61FEF7E8FCB861394BA8
:101CBC001B685B011B0DFA6902FB03F37B6154E0AB
:101CCC003B68B3F1FF3F50D0FEF7D8FC0246BB692E
:101CDC00D31AFA699A4202D9FB69002B3DD1FB68F1
:101CEC001B685A68FB681B6822F0E0025A60FB68AC
:101CFC005B68B3F5827F11D1FB689B68B3F5004F2D
:101D0C0004D0FB689B68B3F5806F07D1FB681B6838
:101D1C001A68FB681B6822F040021A60FB689B6A19
:101D2C00B3F5005F0FD1FB681B681A68FB681B6872
:101D3C0022F400521A60FB681B681A68FB681B6867
:101D4C0042F400521A60FB68012283F85120FB68B0
:101D5C00002283F85020032317E07B69002B01D16C
:101D6C000023FB617B69013B7B61FB681B689A6804
:101D7C00BB681340BA689A420CBF01230023DBB244
:101D8C001A46FB799A429BD1002318462037BD4650
:101D9C0080BD00BF0000002080B586B002AFF860A7
:101DAC00B9607A60FB685B68B3F5827F11D1FB6820
:101DBC009B68B3F5004F04D0FB689B68B3F5806F4C
:101DCC0007D1FB681B681A68FB681B6822F040028D
:101DDC001A60FB685B68B3F5827F17D1FB689B6860
:101DEC00B3F5806F12D17B680093BB680022012190
:101DFC00F868FFF749FF0346002B1AD0FB685B6DB0
:101E0C0043F02002FB685A65032313E07B680093C0
:101E1C00BB6800228021F868FFF736FF0346002BD1
:101E2C0007D0FB685B6D43F02002FB685A65032307
:101E3C0000E0002318461037BD4680BD80B586B043
:101E4C0002AFF860B9607A607B680093BB680022CF
:101E5C008021F868FFF718FF0346002B07D0FB68BA
:101E6C005B6D43F02002FB685A65032300E00023FE
:101E7C0018461037BD4680BD80B586B000AF78607F
:101E8C00354B1B68354AA2FB03235B0A642202FB19
:101E9C0003F33B61FEF7F2FB78617B681B685A68C1
:101EAC007B681B6822F020025A603B69002B06D12C
:101EBC007B685B6D43F020027B685A6509E03B69E7
:101ECC00013B3B617B681B689B6803F00203002BA2
:101EDC00EBD07A6964217868FFF7B0FF0346002BDA
:101EEC0005D07B685B6D43F020027B685A657B688C
:101EFC009B68002B0AD10023FB607B681B68DB68A6
:101F0C00FB607B681B689B68FB60FB687B685B6D98
:101F1C00002B15D17B6893F85130DBB2042B07D121
:101F2C007B68012283F851207868FEF7F9F90EE0FE
:101F3C007B68012283F851207868FFF775FD06E075
:101F4C007B68012283F851207868FFF776FD00BF8B
:101F5C001837BD4680BD00BF00000020F119760582
:101F6C0080B584B000AF78607B681B685A687B686A
:101F7C001B6822F060025A60FEF780FB03461A468B
:101F8C0064217868FFF708FF0346002B05D07B68B7
:101F9C005B6D43F020027B685A657B689B68002B65
:101FAC000AD10023FB607B681B68DB68FB607B68E5
:101FBC001B689B68FB60FB687B68012283F85120DF
:101FCC007B685B6D002B03D17868FEF7A9F902E002
:101FDC007868FFF732FD00BF1037BD4680BD80B575
:101FEC0082B000AF78607B68002B01D101233FE009
:101FFC007B6893F83D30DBB2002B06D17B68002266
:10200C0083F83C207868FEF72FFA7B68242283F84B
:10201C003D207B681B68DA687B681B6822F40052E1
:10202C00DA60786800F028F87B681B681A697B68AE
:10203C001B6822F490421A617B681B685A697B68A2
:10204C001B6822F02A025A617B681B68DA687B687D
:10205C001B6842F40052DA607B6800221A647B68C9
:10206C00202283F83D207B68202283F83E20002329
:10207C0018460837BD4680BD80B584B000AF786087
:10208C007B681B681B6923F440517B68DA687B68AA
:10209C001B680A431A617B689A687B681B691A4340
:1020AC007B685B691343BB607B681B68DB6823F44C
:1020BC00B05323F00C037A681268B9680B43D360F1
:1020CC007B681B685B6923F440717B689A697B6849
:1020DC001B680A435A617B681B682C4A934203D1E4
:1020EC00FFF7D4F9F86002E0FFF7BCF9F860FA6882
:1020FC0013469B0013449A001A447B685B689B0050
:10210C00B2FBF3F3224AA2FB03235B091901FA6821
:10211C0013469B0013449A001A447B685B689B002F
:10212C00B2FBF3F21A4BA3FB02035B09642000FB26
:10213C0003F3D31A1B013233154AA2FB03235B09A9
:10214C0003F0F0031944FA6813469B0013449A00F9
:10215C001A447B685B689B00B2FBF3F20C4BA3FB4D
:10216C0002035B09642000FB03F3D31A1B01323317
:10217C00074AA2FB03235B0903F00F027B681B6871
:10218C000A449A6000BF1037BD4680BD003801403C
:10219C001F85EB5170B500260C4D0D4C641BA41023
:1021AC00A64209D100F022F800260A4D0A4C641B05
:1021BC00A410A64205D170BD55F8043B98470136D2
:1021CC00EEE755F8043B98470136F2E73822000851
:1021DC0038220008382200083C220008034602443A
:1021EC00934200D1704703F8011BF9E7F8B500BF23
:1021FC00F8BC08BC9E467047F8B500BFF8BC08BCDC
:04220C009E46704733
:1022100002030405060708090A0B0C0D0E0F101027
:102220000000000000000000010203040607080986
:0822300000000000010203049C
:042238003101000868
:04223C000D01000888
:0C2240000024F400100000000100000069
:040000050800058D5D
:00000001FF
