:020000040800F2
:1000000000500020B51A0008C5180008CB180008D9
:10001000D1180008D7180008DD18000800000000FB
:10002000000000000000000000000000E3180008CD
:10003000EF18000800000000FB180008071900086E
:10004000FD1A0008FD1A0008FD1A0008FD1A000834
:10005000FD1A0008FD1A0008FD1A0008FD1A000824
:10006000FD1A0008FD1A0008FD1A0008FD1A000814
:10007000FD1A0008FD1A0008FD1A0008FD1A000804
:10008000FD1A0008FD1A0008FD1A0008FD1A0008F4
:10009000FD1A0008FD1A0008FD1A0008FD1A0008E4
:1000A000FD1A0008FD1A0008FD1A0008FD1A0008D4
:1000B000FD1A0008FD1A0008FD1A0008FD1A0008C4
:1000C000FD1A0008FD1A0008FD1A0008FD1A0008B4
:1000D000FD1A000815190008FD1A0008FD1A00088D
:1000E000FD1A0008FD1A0008FD1A000800000000B3
:1000F0000000000000000000000000000000000000
:0C01000000000000000000005FF808F1A3
:1001100010B5054C237833B9044B13B10448AFF341
:1001200000800123237010BDDC01002000000000CE
:10013000A46A000808B5034B1BB103490348AFF399
:10014000008008BD00000000E0010020A46A000853
:10015000034613F8012B002AFBD1181A0138704707
:1001600081F0004102E000BF83F0004330B54FEA68
:1001700041044FEA430594EA050F08BF90EA020FD5
:100180001FBF54EA000C55EA020C7FEA645C7FEA68
:10019000655C00F0E2804FEA5454D4EB5555B8BF8B
:1001A0006D420CDD2C4480EA020281EA030382EAFC
:1001B000000083EA010180EA020281EA0303362D8E
:1001C00088BF30BD11F0004F4FEA01314FF4801C61
:1001D0004CEA113102D0404261EB410113F0004F73
:1001E0004FEA03334CEA133302D0524263EB43032A
:1001F00094EA050F00F0A780A4F10104D5F1200EC8
:100200000DDB02FA0EFC22FA05F2801841F1000122
:1002100003FA0EF2801843FA05F359410EE0A5F1F6
:1002200020050EF1200E012A03FA0EFC28BF4CF027
:10023000020C43FA05F3C01851EBE37101F00045DD
:1002400007D54FF0000EDCF1000C7EEB00006EEBEA
:100250000101B1F5801F1BD3B1F5001F0CD3490874
:100260005FEA30004FEA3C0C04F101044FEA4452CB
:1002700012F5800F80F09A80BCF1004F08BF5FEA52
:10028000500C50F1000041EB045141EA050130BD32
:100290005FEA4C0C404141EB0101013C28BFB1F544
:1002A000801FE9D291F0000F04BF01460020B1FA8F
:1002B00081F308BF2033A3F10B03B3F120020CDA62
:1002C0000C3208DD02F1140CC2F10C0201FA0CF040
:1002D00021FA02F10CE002F11402D8BFC2F1200CA5
:1002E00001FA02F120FA0CFCDCBF41EA0C0190405B
:1002F000E41AA2BF01EB0451294330BD6FEA0404A4
:100300001F3C1CDA0C340EDC04F11404C4F120028E
:1003100020FA04F001FA02F340EA030021FA04F3A0
:1003200045EA030130BDC4F10C04C4F1200220FAF7
:1003300002F001FA04F340EA0300294630BD21FA35
:1003400004F0294630BD94F0000F83F4801306BFFB
:1003500081F480110134013D4EE77FEA645C18BFEF
:100360007FEA655C29D094EA050F08BF90EA020F86
:1003700005D054EA000C04BF1946104630BD91EA7E
:10038000030F1EBF0021002030BD5FEA545C05D181
:100390004000494128BF41F0004130BD14F58004C0
:1003A0003CBF01F5801130BD01F0004545F0FE4134
:1003B00041F470014FF0000030BD7FEA645C1ABF69
:1003C000194610467FEA655C1CBF0B46024650EAA0
:1003D000013406BF52EA033591EA030F41F40021CC
:1003E00030BD00BF90F0000F04BF0021704730B552
:1003F0004FF4806404F132044FF000054FF0000127
:1004000050E700BF90F0000F04BF0021704730B5E7
:100410004FF4806404F1320410F0004548BF4042BC
:100420004FF000013EE700BF42004FEAE2014FEA11
:1004300031014FEA02701FBF12F07F4393F07F4FEC
:1004400081F06051704732F07F4208BF704793F0EF
:100450007F4F04BF41F40021704730B54FF4607402
:1004600001F0004521F000411CE700BF50EA010205
:1004700008BF704730B54FF000050AE050EA0102AE
:1004800008BF704730B511F0004502D5404261EB1E
:1004900041014FF4806404F132045FEA915C3FF45F
:1004A000D8AE4FF003025FEADC0C18BF03325FEAFC
:1004B000DC0C18BF033202EBDC02C2F1200300FAAD
:1004C00003FC20FA02F001FA03FE40EA0E0021FAD2
:1004D00002F11444BDE600BF70B54FF0FF0C4CF4C0
:1004E000E06C1CEA11541DBF1CEA135594EA0C0F72
:1004F00095EA0C0F00F0DEF82C4481EA030621EAAD
:100500004C5123EA4C5350EA013518BF52EA0335E7
:1005100041F4801143F4801338D0A0FB02CE4FF099
:100520000005E1FB02E506F00042E0FB03E54FF0C9
:100530000006E1FB03569CF0000F18BF4EF0010EC1
:10054000A4F1FF04B6F5007F64F5407404D25FEABD
:100550004E0E6D4146EB060642EAC62141EA555170
:100560004FEAC52040EA5E504FEACE2EB4F1FD0CB2
:1005700088BFBCF5E06F1ED8BEF1004F08BF5FEA30
:10058000500E50F1000041EB045170BD06F00046E2
:1005900046EA010140EA020081EA0301B4EB5C048F
:1005A000C2BFD4EB0C0541EA045170BD41F4801187
:1005B0004FF0000E013C00F3AB8014F1360FDEBFAC
:1005C000002001F0004170BDC4F10004203C35DA88
:1005D0000C341BDC04F11404C4F1200500FA05F30B
:1005E00020FA04F001FA05F240EA020001F00042AC
:1005F00021F0004110EBD37021FA04F642EB060122
:100600005EEA430E08BF20EAD37070BDC4F10C044B
:10061000C4F1200500FA04F320FA05F001FA04F20F
:1006200040EA020001F0004110EBD37041F10001FB
:100630005EEA430E08BF20EAD37070BDC4F1200506
:1006400000FA05F24EEA020E20FA04F301FA05F26E
:1006500043EA020321FA04F001F0004121FA04F216
:1006600020EA020000EBD3705EEA430E08BF20EAE6
:10067000D37070BD94F0000F0FD101F00046400020
:1006800041EB010111F4801F08BF013CF7D041EAA2
:10069000060195F0000F18BF704703F000465200A6
:1006A00043EB030313F4801F08BF013DF7D043EA77
:1006B0000603704794EA0C0F0CEA135518BF95EA2D
:1006C0000C0F0CD050EA410618BF52EA4306D1D1B4
:1006D00081EA030101F000414FF0000070BD50EAD3
:1006E000410606BF1046194652EA430619D094EA5D
:1006F0000C0F02D150EA013613D195EA0C0F05D147
:1007000052EA03361CBF104619460AD181EA03019A
:1007100001F0004141F0FE4141F470014FF0000052
:1007200070BD41F0FE4141F4780170BD70B54FF0ED
:10073000FF0C4CF4E06C1CEA11541DBF1CEA13556D
:1007400094EA0C0F95EA0C0F00F0A7F8A4EB05044F
:1007500081EA030E52EA03354FEA013100F0888046
:100760004FEA03334FF0805545EA131343EA12630F
:100770004FEA022245EA111545EA10654FEA0026C4
:100780000EF000419D4208BF964244F1FD0404F57D
:10079000407402D25B084FEA3202B61A65EB0305D9
:1007A0005B084FEA32024FF480104FF4002CB6EB96
:1007B000020E75EB030E22BFB61A754640EA0C0016
:1007C0005B084FEA3202B6EB020E75EB030E22BF56
:1007D000B61A754640EA5C005B084FEA3202B6EB97
:1007E000020E75EB030E22BFB61A754640EA9C0056
:1007F0005B084FEA3202B6EB020E75EB030E22BF26
:10080000B61A754640EADC0055EA060E18D04FEAE3
:10081000051545EA16754FEA06164FEAC30343EA83
:1008200052734FEAC2025FEA1C1CC0D111F4801F50
:100830000BD141EA00014FF000004FF0004CB6E749
:1008400011F4801F04BF01430020B4F1FD0C88BFE8
:10085000BCF5E06F3FF6AFAEB5EB030C04BFB6EBF3
:10086000020C5FEA500C50F1000041EB045170BDE6
:100870000EF0004E4EEA113114EB5C04C2BFD4EB13
:100880000C0541EA045170BD41F480114FF0000E97
:10089000013C90E645EA060E8DE60CEA135594EA13
:1008A0000C0F08BF95EA0C0F3FF43BAF94EA0C0F16
:1008B0000AD150EA01347FF434AF95EA0C0F7FF48B
:1008C00025AF104619462CE795EA0C0F06D152EADF
:1008D00003353FF4FDAE1046194622E750EA4106C3
:1008E00018BF52EA43067FF4C5AE50EA41047FF4D4
:1008F0000DAF52EA43057FF4EBAE12E74FF0FF3C39
:1009000006E000BF4FF0010C02E000BF4FF0010C09
:100910004DF804CD4FEA410C7FEA6C5C4FEA430C82
:1009200018BF7FEA6C5C1BD001B050EA410C0CBFD1
:1009300052EA430C91EA030F02BF90EA020F002033
:10094000704710F1000F91EA030F58BF994208BF9A
:1009500090422CBFD8176FEAE37040F00100704757
:100960004FEA410C7FEA6C5C02D150EA013C07D1AE
:100970004FEA430C7FEA6C5CD6D152EA033CD3D0F9
:100980005DF8040B704700BF8446104662468C46F3
:100990001946634600E000BF01B5FFF7B7FF002826
:1009A00048BF10F1000F01BD4DF808EDFFF7F4FF4F
:1009B0000CBF012000205DF808FB00BF4DF808EDDA
:1009C000FFF7EAFF34BF012000205DF808FB00BFFD
:1009D0004DF808EDFFF7E0FF94BF012000205DF81F
:1009E00008FB00BF4DF808EDFFF7CEFF94BF0120D4
:1009F00000205DF808FB00BF4DF808EDFFF7C4FFCD
:100A000034BF012000205DF808FB00BF4FEA410C15
:100A10007FEA6C5C02D150EA013C0AD14FEA430CF8
:100A20007FEA6C5C02D152EA033C02D14FF0000035
:100A300070474FF0010070474FEA410212F5001273
:100A400015D211D56FF47873B3EB625212D94FEA15
:100A5000C12343F0004343EA505311F0004F23FAFF
:100A600002F018BF404270474FF00000704750EA54
:100A7000013005D111F0004008BF6FF00040704711
:100A80004FF00000704700BF80F0004002E000BF60
:100A900081F0004142001FBF5FEA410392EA030F69
:100AA0007FEA226C7FEA236C6AD04FEA1262D2EBB3
:100AB0001363C1BFD218414048404140B8BF5B42B8
:100AC000192B88BF704710F0004F40F4000020F051
:100AD0007F4018BF404211F0004F41F4000121F067
:100AE0007F4118BF494292EA030F3FD0A2F10102B1
:100AF00041FA03FC10EB0C00C3F1200301FA03F1EF
:100B000000F0004302D5494260EB4000B0F5000F11
:100B100013D3B0F1807F06D340084FEA310102F1D0
:100B20000102FE2A51D2B1F1004F40EBC25008BF82
:100B300020F0010040EA03007047490040EB00004C
:100B4000013A28BFB0F5000FEDD2B0FA80FCACF14D
:100B5000080CB2EB0C0200FA0CF0AABF00EBC2507A
:100B600052421843BCBFD0401843704792F0000F68
:100B700081F4000106BF80F400000132013BB5E7BB
:100B80004FEA41037FEA226C18BF7FEA236C21D031
:100B900092EA030F04D092F0000F08BF0846704796
:100BA00090EA010F1CBF0020704712F07F4F04D164
:100BB000400028BF40F00040704712F100723CBF77
:100BC00000F50000704700F0004343F0FE4040F4A1
:100BD000000070477FEA226216BF08467FEA23635F
:100BE0000146420206BF5FEA412390EA010F40F44A
:100BF000800070474FF0000304E000BF10F0004396
:100C000048BF40425FEA000C08BF704743F096437C
:100C100001464FF000001CE050EA010208BF704797
:100C20004FF000030AE000BF50EA010208BF70471E
:100C300011F0004302D5404261EB41015FEA010C33
:100C400002BF84460146002043F0B64308BFA3F12B
:100C50008053A3F50003BCFA8CF2083AA3EBC2530D
:100C600010DB01FA02FC634400FA02FCC2F120022C
:100C7000BCF1004F20FA02F243EB020008BF20F063
:100C80000100704702F1200201FA02FCC2F12002C9
:100C900050EA4C0021FA02F243EB020008BF20EABE
:100CA000DC7070474FF0FF0C1CEAD0521EBF1CEAEC
:100CB000D15392EA0C0F93EA0C0F6FD01A4480EADA
:100CC000010C400218BF5FEA41211ED04FF00063C3
:100CD00043EA501043EA5111A0FB01310CF00040EF
:100CE000B1F5000F3EBF490041EAD3715B0040EA15
:100CF000010062F17F02FD2A1DD8B3F1004F40EBE5
:100D0000C25008BF20F00100704790F0000F0CF0B7
:100D1000004C08BF49024CEA502040EA51207F3A7B
:100D2000C2BFD2F1FF0340EAC250704740F4000056
:100D30004FF00003013A5DDC12F1190FDCBF00F047
:100D400000407047C2F10002410021FA02F1C2F1F5
:100D5000200200FA02FC5FEA310040F1000053EA91
:100D60004C0308BF20EADC70704792F0000F00F0DF
:100D7000004C02BF400010F4000F013AF9D040EAE5
:100D80000C0093F0000F01F0004C02BF490011F479
:100D9000000F013BF9D041EA0C018FE70CEAD15377
:100DA00092EA0C0F18BF93EA0C0F0AD030F0004CF7
:100DB00018BF31F0004CD8D180EA010000F00040AB
:100DC000704790F0000F17BF90F0004F084691F069
:100DD000000F91F0004F14D092EA0C0F01D14202A3
:100DE0000FD193EA0C0F03D14B0218BF084608D16C
:100DF00080EA010000F0004040F0FE4040F40000B6
:100E0000704740F0FE4040F4400070474FF0FF0C48
:100E10001CEAD0521EBF1CEAD15392EA0C0F93EA8F
:100E20000C0F69D0A2EB030280EA010C49024FEAE1
:100E3000402037D04FF0805343EA111143EA10139A
:100E40000CF000408B4238BF5B0042F17D024FF452
:100E5000000C8B4224BF5B1A40EA0C00B3EB510F2D
:100E600024BFA3EB510340EA5C00B3EB910F24BF16
:100E7000A3EB910340EA9C00B3EBD10F24BFA3EB9B
:100E8000D10340EADC001B0118BF5FEA1C1CE0D163
:100E9000FD2A3FF650AF8B4240EBC25008BF20F016
:100EA000010070470CF0004C4CEA50207F32C2BF6A
:100EB000D2F1FF0340EAC250704740F400004FF007
:100EC0000003013A37E792F0000F00F0004C02BF38
:100ED000400010F4000F013AF9D040EA0C0093F002
:100EE000000F01F0004C02BF490011F4000F013B5C
:100EF000F9D041EA0C0195E70CEAD15392EA0C0FC4
:100F000008D142027FF47DAF93EA0C0F7FF470AFFB
:100F1000084676E793EA0C0F04D14B023FF44CAF3E
:100F200008466EE730F0004C18BF31F0004CCAD1D3
:100F300030F000427FF45CAF31F000437FF43CAF0F
:100F40005FE700BF80B582B000AF78607B681B6848
:100F5000184600F08BF900BF0837BD4680BD80B54C
:100F600082B000AF78600B467B807B681B687A8814
:100F70001146184600F085F900BF0837BD4680BD10
:100F800080B582B000AF78600B467B807B681B68C1
:100F90007A881146184600F08BF900BF0837BD4625
:100FA00080BD80B586B000AF786007F108030022ED
:100FB0001A605A609A60DA607B689B88BB60012384
:100FC000FB6002237B617B689B6807F10802114686
:100FD000184600F0D9FF00BF1837BD4680BD80B568
:100FE00086B000AF786007F1080300221A605A60EB
:100FF0009A60DA607B689B88BB600023FB600123FA
:101000003B617B689B6807F108021146184600F0B7
:10101000BBFF00BF1837BD4680BD80B582B000AFB2
:1010200078600B46FB707B6898687B689B88FA78D1
:10103000194601F044F900BF0837BD4680BD80B5B0
:1010400082B000AF78607B689A687B689B8819469D
:10105000104601F01DF9034618460837BD4680BD0D
:1010600080B584B000AF78600023FB737868FFF729
:1010700098FF00217868FFF7D0FF4FF4F07178688F
:10108000FFF76DFF7868FFF7AAFF50217868FFF738
:1010900066FF7868FFF7D3FF0346002B02D10123D8
:1010A000FB7301E00023FB734FF4C8717868FFF70E
:1010B00056FFFB7B18461037BD4680BD80B584B017
:1010C00000AF78600B46FB707868FFF76AFF00237B
:1010D000FB602BE0FA78FB6842FA03F303F00103AC
:1010E000002B12D07868FFF75CFF00217868FFF7CB
:1010F00094FF01217868FFF732FF7868FFF76FFFF0
:1011000032217868FFF72BFF0DE07868FFF749FF81
:1011100000217868FFF781FF32217868FFF71FFF11
:101120007868FFF75CFFFB680133FB60FB68072B07
:10113000D0DD00BF00BF1037BD4680BD80B584B094
:1011400000AF78600023FB737868FFF748FF002347
:10115000BB6024E07868FFF724FF00217868FFF780
:101160005CFF01217868FFF7FAFE7868FFF737FF28
:101170007868FFF764FF0346002B09D00122BB68A3
:1011800002FA03F35AB297F90F3013435BB2FB73C1
:1011900032217868FFF7E3FEBB680133BB60BB68B0
:1011A000072BD7DDFB7B18461037BD4680BD80B5C9
:1011B00084B000AFF860B9607A607B80FB687A68C1
:1011C0009A60FB687A889A80FB68BA681A60F86847
:1011D000FFF7B8FE00BF1037BD4680BD80B584B0B4
:1011E00000AF78607868FFF73BFF01217868FFF770
:1011F000C7FECC217868FFF761FF44217868FFF7CC
:101200005DFFC8217868FFF7BBFE7868FFF728FF0D
:1012100001217868FFF7B4FECC217868FFF74EFF14
:10122000BE217868FFF74AFF7868FFF787FF03461B
:10123000FB737868FFF782FF0346BB73BB7B1A0220
:10124000FB7B13431846FFF7D9FC0346BB604FF006
:101250008341B868FFF7DAFD03461A467B68DA6017
:101260007B68DB6818461037BD4680BD80B582B00C
:1012700000AF7860786801F0BDFC00BF0837BD465C
:1012800080BD80B483B000AF78600B467B807B6804
:101290001B6800225A6200BF7B681B685A6A7B8801
:1012A0009A42F9D300BF00BF0C37BD4680BC7047DF
:1012B00080B582B000AF78600B467B8004E04FF4CD
:1012C0007A717868FFF7DDFF7B885A1E7A80002BE1
:1012D000F5D100BF00BF0837BD4680BD80B586B0E0
:1012E00000AF00F00DFC00F027F800F05DF900F011
:1012F0002BF900F067F800F0D9F8381D02230B4AEB
:101300000B49FFF754FF3B1D1846FFF767FF786155
:101310007869FFF789F802460B46064803F036FB6A
:101320004FF4FA6000F04EFCEDE700BF000C014006
:1013300008020020C06A000880B590B000AF07F135
:10134000180328220021184602F0B8FE3B1D002297
:101350001A605A609A60DA601A610123BB614FF427
:101360008033FB6100233B620123BB6202237B636A
:101370004FF48033BB634FF4E013FB6307F11803B2
:10138000184600F0CDFF0346002B01D000F0AEF967
:101390000F237B600223BB600023FB604FF480635C
:1013A0003B6100237B613B1D0221184601F038FAA6
:1013B0000346002B01D000F099F900BF4037BD462D
:1013C00080BD000080B58EB000AF07F12803002279
:1013D0001A605A609A60DA6007F1200300221A60EE
:1013E0005A603B1D00221A605A609A60DA601A61E6
:1013F0005A619A612C4B4FF080421A602A4B0822A6
:101400005A60294B00229A60274B6322DA60264BF0
:1014100000221A61244B00229A61234801F09AFBB2
:101420000346002B01D000F061F94FF48053BB62FA
:1014300007F1280319461C4801F03CFD0346002B28
:1014400001D000F053F9184801F01EFC0346002BB0
:1014500001D000F04BF900233B6200237B6207F1CF
:1014600020031946104802F069F80346002B01D00A
:1014700000F03CF960237B600023BB600023FB602D
:1014800000237B613B1D0C221946074801F054FCE8
:101490000346002B01D000F029F9034800F08EF933
:1014A00000BF3837BD4680BD9402002080B586B0AD
:1014B00000AF07F1080300221A605A609A60DA60F0
:1014C0003B4600221A605A601D4B1E4A1A601C4B94
:1014D00047225A601A4B00229A60194B4FF6FF724E
:1014E000DA60174B00221A61154B00229A611448EA
:1014F00001F030FB0346002B01D000F0F7F84FF469
:101500008053BB6007F1080319460D4801F0D2FC77
:101510000346002B01D000F0E9F800233B600023D4
:101520007B603B461946064802F008F80346002B4C
:1015300001D000F0DBF800BF1837BD4680BD00BF0A
:10154000080200200004004080B500AF134B144A8D
:101550001A60124B4FF4E1325A60104B00229A602D
:101560000E4B0022DA600D4B00221A610B4B0C224D
:101570005A610A4B00229A61084B0022DA6107483F
:1015800002F03AF80346002B01D000F0AFF8012238
:101590000449024802F00FF900BF80BD500200204C
:1015A00000380140F801002080B588B000AF07F195
:1015B000100300221A605A609A60DA602D4B9B6912
:1015C0002C4A43F0100393612A4B9B6903F01003EC
:1015D000FB60FB68274B9B69264A43F0200393611D
:1015E000244B9B6903F02003BB60BB68214B9B69C4
:1015F000204A43F0040393611E4B9B6903F00403EC
:101600007B607B681B4B9B691A4A43F0080393611C
:10161000184B9B6903F008033B603B6800224FF4C2
:101620000051154800F04BFE00220221134800F043
:1016300046FE4FF400533B6101237B610023BB61F5
:101640000223FB6107F1100319460B4800F09CFCD4
:1016500002233B6101237B610023BB610223FB6109
:1016600007F110031946054800F08EFC00BF203733
:10167000BD4680BD0010024000100140000C01403A
:1016800080B582B000AF78607B681B680A4A9342DD
:101690000DD10A4B1B78742B04D14FF4005108482C
:1016A00000F025FE01220549064802F084F800BF3B
:1016B0000837BD4680BD00BF00380140F80100205A
:1016C000001001405002002080B582B000AF786069
:1016D000391D4FF4FA730122034801F0DAFF7B68E9
:1016E00018460837BD4680BD5002002080B400AFC8
:1016F00072B600BFFEE7000080B485B000AF154BA6
:101700009B69144A43F001039361124B9B6903F0F8
:101710000103BB60BB680F4BDB690E4A43F080538B
:10172000D3610C4BDB6903F080537B607B680A4B11
:101730005B68FB60FB6823F0E063FB60FB6843F0E1
:101740000073FB60044AFB68536000BF1437BD465A
:1017500080BC7047001002400000014080B485B09A
:1017600000AF78607B681B68B3F1804F0CD1114BE0
:10177000DB69104A43F00103D3610E4BDB6903F0D0
:101780000103FB60FB6810E07B681B680A4A934218
:101790000BD1084BDB69074A43F00203D361054BC9
:1017A000DB6903F00203BB60BB6800BF1437BD46B2
:1017B00080BC7047001002400004004080B588B033
:1017C00000AF786007F1100300221A605A609A6037
:1017D000DA607B681B68B3F1804F17D10D4B9B69B2
:1017E0000C4A43F0040393610A4B9B6903F0040322
:1017F000FB60FB6808233B6102237B610223FB61E2
:1018000007F110031946044800F0BEFB00BF203763
:10181000BD4680BD001002400008014080B588B080
:1018200000AF786007F1100300221A605A609A60D6
:10183000DA607B681B68204A934239D11F4B9B6951
:101840001E4A43F4804393611C4B9B6903F480431D
:10185000FB60FB68194B9B69184A43F004039361D2
:10186000164B9B6903F00403BB60BB684FF4007325
:101870003B6102237B610323FB6107F110031946DF
:101880000F4800F081FB4FF480633B6100237B61D4
:101890000023BB6107F110031946094800F074FBEF
:1018A00000220021252000F088FA252000F0A1FA6E
:1018B00000BF2037BD4680BD003801400010024007
:1018C0000008014080B400AFFEE780B400AFFEE73F
:1018D00080B400AFFEE780B400AFFEE780B400AF95
:1018E000FEE780B400AF00BFBD4680BC704780B447
:1018F00000AF00BFBD4680BC704780B400AF00BFE2
:10190000BD4680BC704780B500AF00F03FF900BF16
:1019100080BD000080B500AF024801F07DFF00BF30
:1019200080BD00BF5002002080B400AF01231846E4
:10193000BD4680BC704780B582B000AF786039602A
:1019400002F092FB034616221A604FF0FF3318464E
:101950000837BD4680BD80B582B000AF78604FF0DB
:10196000FF317868FFF7E7FFFEE780B586B000AF8C
:10197000F860B9607A6000237B610AE0AFF3008011
:101980000146BB685A1CBA60CAB21A707B6901333F
:101990007B617A697B689A42F0DB7B68184618376E
:1019A000BD4680BD80B586B000AFF860B9607A6092
:1019B00000237B6109E0BB685A1CBA601B7818469B
:1019C000FFF782FE7B6901337B617A697B689A420B
:1019D000F1DB7B6818461837BD4680BD80B483B004
:1019E00000AF78604FF0FF3318460C37BD4680BC1F
:1019F000704780B483B000AF786039603B684FF4C3
:101A000000525A60002318460C37BD4680BC704710
:101A100080B483B000AF7860012318460C37BD4610
:101A200080BC704780B485B000AFF860B9607A6060
:101A3000002318461437BD4680BC704780B586B079
:101A400000AF7860144A154BD31A7B617B693B6108
:101A5000134B1B68002B02D1114B124A1A60104B1A
:101A60001A687B6813443A699A4207D202F0FCFA7A
:101A700003460C221A604FF0FF3309E0084B1B6845
:101A8000FB60074B1A687B681344054A1360FB68C8
:101A900018461837BD4680BD0050002000040000E5
:101AA000FC010020F002002080B400AF00BFBD4662
:101AB00080BC70470C480D490D4A002302E0D45801
:101AC000C4500433C4188C42F9D30A4A0A4C002388
:101AD00001E013600432A242FBD3FFF7E5FF02F0FE
:101AE000C9FAFFF7FBFB704700000020DC01002073
:101AF000DC6E0008DC010020F0020020FEE70000A0
:101B000080B500AF084B1B68074A43F01003136011
:101B1000032000F047F90F2000F008F8FFF7ECFD74
:101B20000023184680BD00BF0020024080B582B06F
:101B300000AF7860124B1A68124B1B7819464FF4AD
:101B40007A73B3FBF1F3B2FBF3F3184600F05FF9DD
:101B50000346002B01D001230EE07B680F2B0AD82F
:101B6000002279684FF0FF3000F027F9064A7B68C1
:101B70001360002300E0012318460837BD4680BDEE
:101B800000000020080000200400002080B400AF06
:101B9000054B1B781A46054B1B681344034A136018
:101BA00000BFBD4680BC704708000020DC0200205A
:101BB00080B400AF024B1B681846BD4680BC70471E
:101BC000DC02002080B584B000AF7860FFF7F0FF42
:101BD000B8607B68FB60FB68B3F1FF3F05D00A4B40
:101BE0001B781A46FB681344FB6000BFFFF7E0FF59
:101BF0000246BB68D31AFA689A42F7D800BF00BF02
:101C00001037BD4680BD00BF0800002080B485B0FD
:101C100000AF78607B6803F00703FB600C4BDB6868
:101C2000BB60BA684FF6FF031340BB60FB681A0243
:101C3000BB68134343F0BF6343F40033BB60044A03
:101C4000BB68D36000BF1437BD4680BC704700BF7F
:101C500000ED00E080B400AF044BDB681B0A03F02A
:101C600007031846BD4680BC704700BF00ED00E08A
:101C700080B483B000AF0346FB7197F90730002BA7
:101C80000BDBFB7903F01F02064997F907305B096C
:101C9000012000FA02F241F8232000BF0C37BD46B4
:101CA00080BC704700E100E080B483B000AF034621
:101CB0003960FB7197F90730002B0ADB3B68DAB219
:101CC0000C4997F907301201D2B20B4483F8002374
:101CD0000AE03B68DAB20849FB7903F00F03043BE2
:101CE0001201D2B20B441A7600BF0C37BD4680BC3D
:101CF000704700BF00E100E000ED00E080B489B073
:101D000000AFF860B9607A60FB6803F00703FB611D
:101D1000FB69C3F10703042B28BF0423BB61FB69E4
:101D20000433062B02D9FB69033B00E000237B61EF
:101D30004FF0FF32BB6902FA03F3DA43BB681A4083
:101D40007B699A404FF0FF317B6901FA03F3D94375
:101D50007B680B40134318462437BD4680BC704750
:101D600080B582B000AF78607B68013BB3F1807FC3
:101D700001D301230FE00A4A7B68013B53600F2126
:101D80004FF0FF30FFF790FF054B00229A60044BA5
:101D900007221A60002318460837BD4680BD00BFE1
:101DA00010E000E080B582B000AF78607868FFF79F
:101DB0002DFF00BF0837BD4680BD80B586B000AF9F
:101DC0000346B9607A60FB7300237B61FFF742FF33
:101DD00078617A68B9687869FFF790FF024697F9E9
:101DE0000F3011461846FFF75FFF00BF1837BD469A
:101DF00080BD80B582B000AF0346FB7197F9073014
:101E00001846FFF735FF00BF0837BD4680BD80B5D7
:101E100082B000AF78607868FFF7A2FF03461846EB
:101E20000837BD4680BD80B485B000AF7860002320
:101E3000FB737B6893F82130022B08D07B68042267
:101E40009A637B68002283F82020012320E07B68CE
:101E50001B681A687B681B6822F00E021A607B6898
:101E60001B681A687B681B6822F001021A607B6895
:101E70001A6C7B68DB6B012101FA02F25A607B6805
:101E8000012283F821207B68002283F82020FB7B3D
:101E900018461437BD4680BC7047000080B584B03A
:101EA00000AF78600023FB737B6893F82130022B2E
:101EB00005D07B6804229A630123FB7351E07B68A1
:101EC0001B681A687B681B6822F00E021A607B6828
:101ED0001B681A687B681B6822F001021A607B6825
:101EE0001B68224A934229D07B681B68204A934290
:101EF00022D07B681B681F4A93421AD07B681B68FC
:101F00001D4A934212D07B681B681C4A93420AD038
:101F10007B681B681A4A934202D14FF480130EE08B
:101F20004FF080730BE04FF4803308E04FF48053A0
:101F300005E04FF4807302E0102300E00123114A12
:101F400053607B68012283F821207B68002283F89C
:101F500020207B685B6B002B03D07B685B6B786811
:101F60009847FB7B18461037BD4680BD08000240ED
:101F70001C00024030000240440002405800024071
:101F80006C0002400000024080B48BB000AF78606B
:101F9000396000237B6200233B6269E101227B6A96
:101FA00002FA03F3FB613B681B68FA691340BB61EB
:101FB000BA69FB699A4240F058813B685B689A4A6B
:101FC00093425ED0984A934275D8984A934258D02B
:101FD000964A93426FD8964A934252D0944A93427B
:101FE00069D8944A93424CD0924A934263D8924A19
:101FF000934246D0904A93425DD8122B2AD8122B96
:1020000059D801A252F823F0832000085D2000086F
:102010006F200008B1200008B7200008B720000892
:10202000B7200008B7200008B7200008B720000834
:10203000B7200008B7200008B7200008B720000824
:10204000B7200008B7200008B72000086520000866
:1020500079200008794A934213D02CE03B68DB6872
:102060003B6229E03B68DB6804333B6224E03B6869
:10207000DB6808333B621FE03B68DB680C333B6284
:102080001AE03B689B68002B02D104233B6213E0FB
:102090003B689B68012B05D108233B627B68FA698A
:1020A0001A6109E008233B627B68FA695A6103E020
:1020B00000233B6200E000BFBB69FF2B01D87B68B7
:1020C00001E07B6804337B61BB69FF2B02D87B6A2C
:1020D0009B0002E07B6A083B9B003B617B691A68BE
:1020E0000F213B6901FA03F3DB431A40396A3B696C
:1020F00001FA03F31A437B691A603B685B6803F0DB
:102100008053002B00F0B1804D4B9B694C4A43F04B
:10211000010393614A4B9B6903F00103BB60BB68F9
:10212000484A7B6A9B08023352F82330FB607B6A83
:1021300003F003039B000F2202FA03F3DB43FA6868
:102140001340FB607B68404A934213D07B683F4A50
:1021500093420DD07B683E4A934207D07B683D4A4C
:10216000934201D1032306E0042304E0022302E0AA
:10217000012300E000237A6A02F0030292009340F8
:10218000FA681343FB602F497B6A9B080233FA68A5
:1021900041F823203B685B6803F48033002B06D0B2
:1021A0002D4B1A682C49BB6913430B6006E02A4B80
:1021B0001A68BB69DB43284913400B603B685B68C6
:1021C00003F40033002B06D0234B5A682249BB6925
:1021D00013434B6006E0204B5A68BB69DB431E4942
:1021E00013404B603B685B6803F48013002B06D000
:1021F000194B9A681849BB6913438B6006E0164B6C
:102200009A68BB69DB43144913408B603B685B6889
:1022100003F40013002B21D00F4BDA680E49BB6981
:102220001343CB6021E000BF0000321000003110EA
:1022300000002210000021100000121000001110F8
:10224000001002400000014000080140000C014065
:102250000010014000140140000401400B4BDA68FB
:10226000BB69DB4309491340CB607B6A01337B6266
:102270003B681A687B6A22FA03F3002B7FF48EAE68
:1022800000BF00BF2C37BD4680BC70470004014032
:1022900080B485B000AF78600B467B807B689A681D
:1022A0007B881340002B02D00123FB7301E0002345
:1022B000FB73FB7B18461437BD4680BC704780B467
:1022C00083B000AF78600B467B8013467B707B78D1
:1022D000002B03D07A887B681A6103E07B881A049C
:1022E0007B681A6100BF0C37BD4680BC704780B464
:1022F00085B000AF78600B467B807B68DB68FB6055
:102300007A88FB6813401A04FB68D9437B880B402A
:102310001A437B681A6100BF1437BD4680BC704702
:1023200080B586B000AF78607B68002B01D10123B7
:102330006CE27B681B6803F00103002B00F08780D0
:10234000924B5B6803F00C03042B0CD08F4B5B6843
:1023500003F00C03082B12D18C4B5B6803F4803321
:10236000B3F5803F0BD1894B1B6803F40033002B7E
:102370006CD07B685B68002B68D1012346E27B68E8
:102380005B68B3F5803F06D1804B1B687F4A43F4FE
:10239000803313602EE07B685B68002B0CD17B4B95
:1023A0001B687A4A23F480331360784B1B68774AA2
:1023B00023F4802313601DE07B685B68B3F5A02FD6
:1023C0000CD1724B1B68714A43F4802313606F4B2E
:1023D0001B686E4A43F4803313600BE06B4B1B6841
:1023E0006A4A23F480331360684B1B68674A23F4FE
:1023F000802313607B685B68002B13D0FFF7D8FB4A
:10240000386108E0FFF7D4FB02463B69D31A642B1E
:1024100001D90323FAE15D4B1B6803F40033002B61
:10242000F0D014E0FFF7C4FB386108E0FFF7C0FB11
:1024300002463B69D31A642B01D90323E6E1534BCF
:102440001B6803F40033002BF0D100E000BF7B6871
:102450001B6803F00203002B63D04C4B5B6803F056
:102460000C03002B0BD0494B5B6803F00C03082BCB
:102470001CD1464B5B6803F48033002B16D1434BD1
:102480001B6803F00203002B05D07B681B69012B3E
:1024900001D00123BAE13D4B1B6823F0F8027B68B1
:1024A0005B69DB00394913430B603AE07B681B69C9
:1024B000002B20D0364B01221A60FFF779FB3861E0
:1024C00008E0FFF775FB02463B69D31A022B01D9DE
:1024D00003239BE12D4B1B6803F00203002BF0D07C
:1024E0002A4B1B6823F0F8027B685B69DB002749F5
:1024F00013430B6015E0264B00221A60FFF758FBD0
:10250000386108E0FFF754FB02463B69D31A022BFF
:1025100001D903237AE11D4B1B6803F00203002B52
:10252000F0D17B681B6803F00803002B3AD07B686E
:102530009B69002B19D0174B01221A60FFF738FB5B
:10254000386108E0FFF734FB02463B69D31A022BDF
:1025500001D903235AE10D4B5B6A03F00203002B00
:10256000F0D0012000F0D8FA1CE00A4B00221A60DB
:10257000FFF71EFB38610FE0FFF71AFB02463B69CD
:10258000D31A022B08D9032340E100BF00100240F8
:1025900000004242800442429E4B5B6A03F0020309
:1025A000002BE9D17B681B6803F00403002B00F0CB
:1025B000A6800023FB75974BDB6903F08053002B4B
:1025C0000DD1944BDB69934A43F08053D361914B17
:1025D000DB6903F08053BB60BB680123FB758E4B46
:1025E0001B6803F48073002B18D18B4B1B688A4A3D
:1025F00043F480731360FFF7DBFA386108E0FFF7FC
:10260000D7FA02463B69D31A642B01D90323FDE0B4
:10261000814B1B6803F48073002BF0D07B68DB6870
:10262000012B06D17B4B1B6A7A4A43F001031362EC
:102630002DE07B68DB68002B0CD1764B1B6A754A5A
:1026400023F001031362734B1B6A724A23F00403E5
:1026500013621CE07B68DB68052B0CD16D4B1B6A99
:102660006C4A43F0040313626A4B1B6A694A43F0E5
:10267000010313620BE0674B1B6A664A23F00103F8
:102680001362644B1B6A634A23F0040313627B6882
:10269000DB68002B15D0FFF78BFA38610AE0FFF7F3
:1026A00087FA02463B69D31A41F28832934201D934
:1026B0000323ABE0574B1B6A03F00203002BEED061
:1026C00014E0FFF775FA38610AE0FFF771FA024685
:1026D0003B69D31A41F28832934201D9032395E032
:1026E0004C4B1B6A03F00203002BEED1FB7D012B48
:1026F00005D1484BDB69474A23F08053D3617B689F
:10270000DB69002B00F08180424B5B6803F00C0317
:10271000082B61D07B68DB69022B46D13F4B00223E
:102720001A60FFF745FA386108E0FFF741FA024600
:102730003B69D31A022B01D9032367E0354B1B6891
:1027400003F00073002BF0D17B681B6AB3F5803F68
:1027500008D1304B5B6823F400327B689B682D49BD
:1027600013434B602B4B5B6823F474127B68196A2C
:102770007B685B6A0B43274913434B60274B01225D
:102780001A60FFF715FA386108E0FFF711FA024600
:102790003B69D31A022B01D9032337E01D4B1B6879
:1027A00003F00073002BF0D02FE01C4B00221A60C6
:1027B000FFF7FEF9386108E0FFF7FAF902463B69D6
:1027C000D31A022B01D9032320E0124B1B6803F01C
:1027D0000073002BF0D118E07B68DB69012B01D17D
:1027E000012313E00B4B5B68FB60FB6803F4803252
:1027F0007B681B6A9A4206D1FB6803F470127B68FF
:102800005B6A9A4201D0012300E000231846183782
:10281000BD4680BD00100240007000406000424292
:1028200080B584B000AF786039607B68002B01D13F
:102830000123D0E06A4B1B6803F007033A689A4211
:1028400010D9674B1B6823F0070265493B681343A7
:102850000B60634B1B6803F007033A689A4201D090
:102860000123B8E07B681B6803F00203002B20D033
:102870007B681B6803F00403002B05D0594B5B6891
:10288000584A43F4E06353607B681B6803F0080315
:10289000002B05D0534B5B68524A43F4605353609E
:1028A000504B5B6823F0F0027B689B684D491343F3
:1028B0004B607B681B6803F00103002B40D07B68F2
:1028C0005B68012B07D1474B1B6803F40033002BD7
:1028D00015D101237FE07B685B68022B07D1414B58
:1028E0001B6803F00073002B09D1012373E03D4BFB
:1028F0001B6803F00203002B01D101236BE0394B6D
:102900005B6823F003027B685B68364913434B60C6
:10291000FFF74EF9F8600AE0FFF74AF90246FB6854
:10292000D31A41F28832934201D9032353E02D4B4D
:102930005B6803F00C027B685B689B009A42EBD1FA
:10294000274B1B6803F007033A689A4210D2244BC6
:102950001B6823F0070222493B6813430B60204B9E
:102960001B6803F007033A689A4201D0012332E062
:102970007B681B6803F00403002B08D0194B5B68CD
:1029800023F4E0627B68DB68164913434B607B6885
:102990001B6803F00803002B09D0124B5B6823F47B
:1029A00060527B681B69DB000E4913434B6000F0EB
:1029B00021F802460B4B5B681B0903F00F030A4921
:1029C000CB5C22FA03F3094A1360094B1B681846D3
:1029D000FFF7ACF8002318461037BD4680BD00BF96
:1029E0000020024000100240DC6A000800000020C5
:1029F0000400002090B48AB000AF2A4B3C1D0FCBDE
:102A000084E80F0040F201233B800023FB61002398
:102A1000BB6100237B6200237B6100233B62224B6E
:102A20005B68FB61FB6903F00C03042B02D0082BED
:102A300003D02DE01D4B3B622DE0FB699B0C03F0A6
:102A40000F0307F12802134413F8243C7B61FB6950
:102A500003F48033002B13D0134B5B685B0C03F043
:102A6000010307F12802134413F8283CBB617B697A
:102A70000E4A02FB03F2BB69B2FBF3F37B6204E094
:102A80007B690B4A02FB03F37B627B6A3B6202E0D9
:102A9000064B3B6200BF3B6A18462837BD4690BCD8
:102AA000704700BFCC6A00080010024000127A0094
:102AB00000093D0080B400AF024B1B681846BD46BC
:102AC00080BC70470000002080B500AFFFF7F2FF28
:102AD0000246054B5B681B0A03F007030349CB5C06
:102AE00022FA03F3184680BD00100240EC6A000889
:102AF00080B500AFFFF7DEFF0246054B5B68DB0ADF
:102B000003F007030349CB5C22FA03F3184680BDA8
:102B100000100240EC6A000880B485B000AF786015
:102B20000A4B1B680A4AA2FB03235B0A7A6802FB72
:102B300003F3FB6000BFFB685A1EFA60002BF9D15B
:102B400000BF00BF1437BD4680BC704700000020A6
:102B5000D34D621080B582B000AF78607B68002BE7
:102B600001D1012341E07B6893F83D30DBB2002BBB
:102B700006D17B68002283F83C207868FEF7EEFDE2
:102B80007B68022283F83D207B681A687B680433E7
:102B90001946104600F052FA7B68012283F846205D
:102BA0007B68012283F83E207B68012283F83F2066
:102BB0007B68012283F840207B68012283F8412052
:102BC0007B68012283F842207B68012283F843203E
:102BD0007B68012283F844207B68012283F845202A
:102BE0007B68012283F83D20002318460837BD4644
:102BF00080BD000080B485B000AF78607B6893F83A
:102C00003D30DBB2012B01D0012332E07B68022290
:102C100083F83D207B681B68184A93420ED07B687E
:102C20001B68B3F1804F09D07B681B68144A93423C
:102C300004D07B681B68134A934211D17B681B68E0
:102C40009B6803F00703FB60FB68062B10D07B68D2
:102C50001B681A687B681B6842F001021A6007E073
:102C60007B681B681A687B681B6842F001021A6067
:102C7000002318461437BD4680BC7047002C014025
:102C8000000400400008004080B582B000AF7860CA
:102C90007B68002B01D1012341E07B6893F83D3034
:102CA000DBB2002B06D17B68002283F83C207868D9
:102CB00000F039F87B68022283F83D207B681A68AF
:102CC0007B6804331946104600F0B8F97B6801228E
:102CD00083F846207B68012283F83E207B6801222E
:102CE00083F83F207B68012283F840207B68012223
:102CF00083F841207B68012283F842207B6801220F
:102D000083F843207B68012283F844207B680122FA
:102D100083F845207B68012283F83D200023184674
:102D20000837BD4680BD80B483B000AF786000BF77
:102D30000C37BD4680BC704780B584B000AFF860EA
:102D4000B9607A60FB6893F83C30012B01D1022313
:102D5000ACE0FB68012283F83C207B680C2B00F27E
:102D60009F8001A252F823F09D2D0008A12E00089B
:102D7000A12E0008A12E0008DD2D0008A12E0008BC
:102D8000A12E0008A12E00081F2E0008A12E000869
:102D9000A12E0008A12E00085F2E0008FB681B680A
:102DA000B968184600F0ACF9FB681B689A69FB68C3
:102DB0001B6842F008029A61FB681B689A69FB680D
:102DC0001B6822F004029A61FB681B689969BB6862
:102DD0001A69FB681B680A439A6162E0FB681B681A
:102DE000B968184600F0F2F9FB681B689A69FB683D
:102DF0001B6842F400629A61FB681B689A69FB6871
:102E00001B6822F480629A61FB681B689969BB6841
:102E10001B691A02FB681B680A439A6141E0FB6860
:102E20001B68B968184600F03BFAFB681B68DA6952
:102E3000FB681B6842F00802DA61FB681B68DA690C
:102E4000FB681B6822F00402DA61FB681B68D96921
:102E5000BB681A69FB681B680A43DA6121E0FB68FA
:102E60001B68B968184600F085FAFB681B68DA69C8
:102E7000FB681B6842F40062DA61FB681B68DA6970
:102E8000FB681B6822F48062DA61FB681B68D96901
:102E9000BB681B691A02FB681B680A43DA6100E021
:102EA00000BFFB68002283F83C200023184610373F
:102EB000BD4680BD80B584B000AF786039607B6866
:102EC00093F83C30012B01D10223B3E07B6801224F
:102ED00083F83C207B68022283F83D207B681B68D6
:102EE0009B68FB60FB6823F07703FB60FB6823F4BF
:102EF0007F43FB607B681B68FA689A603B681B68CD
:102F0000B3F5005F3ED0B3F5005F00F28780B3F504
:102F1000805F00F08580B3F5805F7FD8702B1AD07A
:102F2000702B7BD8602B50D0602B77D8502B3CD0A7
:102F3000502B73D8402B58D0402B6FD8302B64D0F7
:102F4000302B6BD8202B60D0202B67D8002B5CD087
:102F5000102B5AD062E07B6818683B6899683B6820
:102F60005A683B68DB6800F0CAFA7B681B689B689C
:102F7000FB60FB6843F07703FB607B681B68FA68C3
:102F80009A604EE07B6818683B6899683B685A68AD
:102F90003B68DB6800F0B3FA7B681B689A687B6863
:102FA0001B6842F480429A603BE07B6818683B688B
:102FB00059683B68DB681A4600F02AFA7B681B6890
:102FC0005021184600F081FA2BE07B6818683B68B6
:102FD00059683B68DB681A4600F048FA7B681B6852
:102FE0006021184600F071FA1BE07B6818683B68A6
:102FF00059683B68DB681A4600F00AFA7B681B6870
:103000004021184600F061FA0BE07B681A683B68C3
:103010001B681946104600F058FA02E000BF00E0B5
:1030200000BF7B68012283F83D207B68002283F883
:103030003C20002318461037BD4680BD80B485B0C3
:1030400000AF786039607B681B68FB607B68294A49
:1030500093420BD07B68B3F1804F07D07B68264A40
:10306000934203D07B68254A934208D1FB6823F042
:103070007003FB603B685B68FA681343FB607B6826
:103080001C4A93420BD07B68B3F1804F07D07B681A
:10309000194A934203D07B68184A934208D1FB68CF
:1030A00023F44073FB603B68DB68FA681343FB6002
:1030B000FB6823F080023B685B691343FB607B681D
:1030C000FA681A603B689A687B68DA623B681A683B
:1030D0007B689A627B68074A934203D13B681A690E
:1030E0007B681A637B6801225A6100BF1437BD46B2
:1030F00080BC7047002C01400004004000080040E4
:1031000080B487B000AF786039607B681B6A23F0B9
:1031100001027B681A627B681B6A7B617B685B6863
:103120003B617B689B69FB60FB6823F07003FB607D
:10313000FB6823F00303FB603B681B68FA681343DA
:10314000FB607B6923F002037B613B689B687A69C3
:1031500013437B617B681C4A93420CD17B6923F04B
:1031600008037B613B68DB687A6913437B617B6999
:1031700023F004037B617B68134A934211D13B69BE
:1031800023F480733B613B6923F400733B613B682C
:103190005B693A6913433B613B689B693A69134336
:1031A0003B617B683A695A607B68FA689A613B6860
:1031B0005A687B685A637B687A691A6200BF1C3759
:1031C000BD4680BC704700BF002C014080B487B072
:1031D00000AF786039607B681B6A23F010027B685F
:1031E0001A627B681B6A7B617B685B683B617B68FA
:1031F0009B69FB60FB6823F4E043FB60FB6823F4FE
:103200004073FB603B681B681B02FA681343FB605A
:103210007B6923F020037B613B689B681B017A6913
:1032200013437B617B681D4A93420DD17B6923F078
:1032300080037B613B68DB681B017A6913437B6118
:103240007B6923F040037B617B68144A934213D16E
:103250003B6923F480633B613B6923F400633B617A
:103260003B685B699B003A6913433B613B689B6920
:103270009B003A6913433B617B683A695A607B68FB
:10328000FA689A613B685A687B689A637B687A69D6
:103290001A6200BF1C37BD4680BC7047002C01403D
:1032A00080B487B000AF786039607B681B6A23F414
:1032B00080727B681A627B681B6A7B617B685B68D3
:1032C0003B617B68DB69FB60FB6823F07003FB609C
:1032D000FB6823F00303FB603B681B68FA68134339
:1032E000FB607B6923F400737B613B689B681B0276
:1032F0007A6913437B617B681D4A93420DD17B69D8
:1033000023F400637B613B68DB681B027A6913432B
:103310007B617B6923F480637B617B68144A934201
:1033200013D13B6923F480533B613B6923F4005381
:103330003B613B685B691B013A6913433B613B6836
:103340009B691B013A6913433B617B683A695A6088
:103350007B68FA68DA613B685A687B68DA637B6885
:103360007A691A6200BF1C37BD4680BC704700BF37
:10337000002C014080B487B000AF786039607B6872
:103380001B6A23F480527B681A627B681B6A3B616C
:103390007B685B687B617B68DB69FB60FB6823F4AF
:1033A000E043FB60FB6823F44073FB603B681B68F1
:1033B0001B02FA681343FB603B6923F400533B6133
:1033C0003B689B681B033A6913433B617B680F4A68
:1033D000934209D17B6923F480437B613B685B693D
:1033E0009B017A6913437B617B687A695A607B68C9
:1033F000FA68DA613B685A687B681A647B683A69E4
:103400001A6200BF1C37BD4680BC7047002C0140CB
:1034100080B487B000AFF860B9607A60FB681B6A5F
:103420007B61FB681B6A23F00102FB681A62FB6880
:103430009B693B613B6923F0F0033B617B681B01A7
:103440003A6913433B617B6923F00A037B617A6924
:10345000BB6813437B61FB683A699A61FB687A69D0
:103460001A6200BF1C37BD4680BC704780B487B06D
:1034700000AFF860B9607A60FB681B6A23F0100245
:10348000FB681A62FB689B697B61FB681B6A3B6196
:103490007B6923F470437B617B681B037A69134368
:1034A0007B613B6923F0A0033B61BB681B013A6968
:1034B00013433B61FB687A699A61FB683A691A6257
:1034C00000BF1C37BD4680BC704780B485B000AFDC
:1034D000786039607B689B68FB60FB6823F0700351
:1034E000FB603A68FB68134343F00703FB607B68AB
:1034F000FA689A6000BF1437BD4680BC704780B43C
:1035000087B000AFF860B9607A603B60FB689B6889
:103510007B617B6923F47F437B613B681A027B6894
:103520001A43BB6813437A6913437B61FB687A696A
:103530009A6000BF1C37BD4680BC704780B485B020
:1035400000AF786039607B6893F83C30012B01D183
:10355000022346E07B68012283F83C207B6802223C
:1035600083F83D207B681B685B68FB607B681B6899
:103570009B68BB60FB6823F07003FB603B681B68C3
:10358000FA681343FB607B681B68FA685A607B68C3
:103590001B68164A93420ED07B681B68B3F1804FBC
:1035A00009D07B681B68124A934204D07B681B6871
:1035B000104A93420CD1BB6823F08003BB603B6888
:1035C0005B68BA681343BB607B681B68BA689A6023
:1035D0007B68012283F83D207B68002283F83C2031
:1035E000002318461437BD4680BC7047002C0140AC
:1035F000000400400008004080B582B000AF786051
:103600007B68002B01D101233FE07B6893F83D30BC
:10361000DBB2002B06D17B68002283F83C2078685F
:10362000FEF7FCF87B68242283F83D207B681B684A
:10363000DA687B681B6822F40052DA60786800F070
:1036400085FC7B681B681A697B681B6822F49042C2
:103650001A617B681B685A697B681B6822F02A0222
:103660005A617B681B68DA687B681B6842F4005209
:10367000DA607B6800221A647B68202283F83D2090
:103680007B68202283F83E20002318460837BD4679
:1036900080BD80B58AB002AFF860B9603B60134668
:1036A000FB8000237B61FB6893F83D30DBB2202B6D
:1036B0007CD1BB68002B02D0FB88002B01D10123F9
:1036C00075E0FB6893F83C30012B01D102236EE0DA
:1036D000FB68012283F83C20FB6800221A64FB6827
:1036E000212283F83D20FEF763FA7861FB68FA88AF
:1036F0009A84FB68FA88DA84FB689B68B3F5805F7C
:1037000008D1FB681B69002B04D10023FB61BB6857
:10371000BB6103E0BB68FB610023BB61FB68002267
:1037200083F83C202AE03B6800937B6900228021DB
:10373000F86800F038FA0346002B01D0032336E086
:10374000FB69002B0BD1BB691B881A46FB681B6801
:10375000C2F308025A60BB690233BB6107E0FB6930
:103760001A78FB681B685A60FB690133FB61FB68D0
:10377000DB8C9BB2013B9AB2FB68DA84FB68DB8C82
:103780009BB2002BCFD13B6800937B690022402184
:10379000F86800F008FA0346002B01D0032306E086
:1037A000FB68202283F83D20002300E00223184616
:1037B0002037BD4680BD80B584B000AFF860B960E9
:1037C0001346FB80FB6893F83E30DBB2202B1DD103
:1037D000BB68002B02D0FB88002B01D1012316E02F
:1037E000FB6893F83C30012B01D102230FE0FB680A
:1037F000012283F83C20FB6800221A63FB881A46EA
:10380000B968F86800F019FA034600E00223184688
:103810001037BD4680BD000080B58AB000AF78602B
:103820007B681B681B687B627B681B68DB683B628C
:103830007B681B685B69FB610023BB6100237B61C4
:103840007B6A03F00F03BB61BB69002B0DD17B6A60
:1038500003F02003002B08D03B6A03F02003002B69
:1038600003D0786800F0C9FA7BE1BB69002B00F057
:10387000B180FB6903F00103002B05D13B6A03F41F
:103880009073002B00F0A6807B6A03F00103002BED
:103890000AD03B6A03F48073002B05D07B681B6C55
:1038A00043F001027B681A647B6A03F00403002B77
:1038B0000AD0FB6903F00103002B05D07B681B6C69
:1038C00043F002027B681A647B6A03F00203002B58
:1038D0000AD0FB6903F00103002B05D07B681B6C49
:1038E00043F004027B681A647B6A03F00803002B30
:1038F0000FD03B6A03F02003002B04D1FB6903F0D7
:103900000103002B05D07B681B6C43F008027B6829
:103910001A647B681B6C002B00F01E817B6A03F02D
:103920002003002B07D03B6A03F02003002B02D0BA
:10393000786800F062FA7B681B685B6903F04003FB
:10394000002B14BF01230023DBB27B617B681B6C5F
:1039500003F00803002B02D17B69002B31D078687B
:1039600000F0A4F97B681B685B6903F04003002B3F
:1039700023D07B681B685A697B681B6822F0400271
:103980005A617B689B6B002B13D07B689B6B764ADC
:103990005A637B689B6B1846FEF780FA0346002B40
:1039A00016D07B689B6B5B6B7A68926B104698476E
:1039B0000EE0786800F0E3F80AE0786800F0DFF8DD
:1039C00006E0786800F0DBF87B6800221A64C3E048
:1039D00000BFC1E07B681B6B012B40F0A1807B6ABC
:1039E00003F01003002B00F09B803B6A03F01003F0
:1039F000002B00F095800023FB607B681B681B6830
:103A0000FB607B681B685B68FB60FB687B681B680E
:103A10005B6903F04003002B4ED07B689B6B1B68F7
:103A20005B683B823B8A002B00F098807B689B8D13
:103A30003A8A9A4280F092807B683A8ADA857B687B
:103A40009B6B9B69202B2BD07B681B68DA687B689B
:103A50001B6822F48072DA607B681B685A697B6895
:103A60001B6822F001025A617B681B685A697B68F7
:103A70001B6822F040025A617B68202283F83E20B6
:103A80007B6800221A637B681B68DA687B681B68A6
:103A900022F01002DA607B689B6B1846FEF7C3F9D0
:103AA0007B689A8D7B68DB8D9BB2D31A9BB21946DB
:103AB000786800F06DF851E07B689A8D7B68DB8D4B
:103AC0009BB2D31A7B827B68DB8D9BB2002B47D0E5
:103AD0007B8A002B44D07B681B68DA687B681B6894
:103AE00022F49072DA607B681B685A697B681B68F5
:103AF00022F001025A617B68202283F83E207B6815
:103B000000221A637B681B68DA687B681B6822F0F6
:103B10001002DA607B8A1946786800F039F81FE0F5
:103B20007B6A03F08003002B08D03B6A03F080031C
:103B3000002B03D0786800F0F9F812E07B6A03F0FC
:103B40004003002B0DD03B6A03F04003002B08D04C
:103B5000786800F03AF904E000BF02E000BF00E03E
:103B600000BF2837BD4680BD053D000880B483B046
:103B700000AF786000BF0C37BD4680BC704780B492
:103B800083B000AF786000BF0C37BD4680BC704783
:103B900080B483B000AF78600B467B8000BF0C37E9
:103BA000BD4680BC704780B584B000AFF860B96096
:103BB0003B601346FB712CE0BB69B3F1FF3F28D09B
:103BC000BB69002B07D0FDF7F3FF02463B68D31A11
:103BD000BA699A421DD2FB681B68DA68FB681B68E9
:103BE00022F4D072DA60FB681B685A69FB681B68B4
:103BF00022F001025A61FB68202283F83D20FB6815
:103C0000202283F83E20FB68002283F83C20032317
:103C10000FE0FB681B681A68BB681340BA689A42D9
:103C20000CBF01230023DBB21A46FB799A42C3D0B2
:103C3000002318461037BD4680BD80B485B000AF64
:103C4000F860B9601346FB80FB68BA689A62FB684B
:103C5000FA889A85FB68FA88DA85FB6800221A647C
:103C6000FB68222283F83E20FB68002283F83C2078
:103C7000FB681B68DA68FB681B6842F48072DA60D4
:103C8000FB681B685A69FB681B6842F001025A61B5
:103C9000FB681B68DA68FB681B6842F02002DA6088
:103CA000002318461437BD4680BC704780B483B0EB
:103CB00000AF78607B681B68DA687B681B6822F459
:103CC0009072DA607B681B685A697B681B6822F017
:103CD00001025A617B681B6B012B07D17B681B6853
:103CE000DA687B681B6822F01002DA607B682022A9
:103CF00083F83E207B6800221A6300BF0C37BD4664
:103D000080BC704780B584B000AF78607B685B6A28
:103D1000FB60FB680022DA85FB680022DA84F86821
:103D2000FFF72DFF00BF1037BD4680BD80B485B0C2
:103D300000AF78607B6893F83D30DBB2212B3ED139
:103D40007B689B68B3F5805F14D17B681B69002B8F
:103D500010D17B681B6AFB60FB681B881A467B6876
:103D60001B68C2F308025A607B681B6A9A1C7B6856
:103D70001A6208E07B681B6A591C7A6811621A781B
:103D80007B681B685A607B68DB8C9BB2013B9BB2F3
:103D90007A681946D184002B0FD17B681B68DA68DA
:103DA0007B681B6822F08002DA607B681B68DA6837
:103DB0007B681B6842F04002DA60002300E00223C7
:103DC00018461437BD4680BC704780B582B000AF3E
:103DD00078607B681B68DA687B681B6822F04002A9
:103DE000DA607B68202283F83D207868FFF7BEFE0A
:103DF000002318460837BD4680BD80B586B000AFA9
:103E000078607B6893F83E30DBB2222B40F09980DB
:103E10007B689B68B3F5805F17D17B681B69002BBB
:103E200013D100237B617B689B6A3B617B681B68C5
:103E30005B689BB2C3F308039AB23B691A807B6844
:103E40009B6A9A1C7B689A6226E07B689B6A7B610E
:103E500000233B617B689B68B3F5805F07D07B687C
:103E60009B68002B0AD17B681B69002B06D17B68FD
:103E70001B685B68DAB27B691A7008E07B681B68B4
:103E80005B68DBB203F07F03DAB27B691A707B6890
:103E90009B6A5A1C7B689A627B68DB8D9BB2013BF4
:103EA0009BB27A681946D185002B48D17B681B6884
:103EB000DA687B681B6822F02002DA607B681B6886
:103EC000DA687B681B6822F48072DA607B681B68A2
:103ED0005A697B681B6822F001025A617B682022C4
:103EE00083F83E207B681B6B012B23D17B6800226B
:103EF0001A637B681B68DA687B681B6822F0100213
:103F0000DA607B681B681B6803F01003102B0AD172
:103F10000023FB607B681B681B68FB607B681B6879
:103F20005B68FB60FB687B689B8D19467868FFF7D0
:103F30002FFE02E07868FDF7A3FB002302E00023D8
:103F400000E0022318461837BD4680BD80B584B016
:103F500000AF78607B681B681B6923F440517B6865
:103F6000DA687B681B680A431A617B689A687B6819
:103F70001B691A437B685B691343BB607B681B68E2
:103F8000DB6823F4B05323F00C037A681268B96835
:103F90000B43D3607B681B685B6923F440717B68CB
:103FA0009A697B681B680A435A617B681B682C4AC4
:103FB000934203D1FEF79CFDF86002E0FEF784FD1A
:103FC000F860FA6813469B0013449A001A447B6811
:103FD0005B689B00B2FBF3F3224AA2FB03235B095D
:103FE0001901FA6813469B0013449A001A447B682F
:103FF0005B689B00B2FBF3F21A4BA3FB02035B0965
:10400000642000FB03F3D31A1B013233154AA2FBD1
:1040100003235B0903F0F0031944FA6813469B007D
:1040200013449A001A447B685B689B00B2FBF3F26E
:104030000C4BA3FB02035B09642000FB03F3D31AC0
:104040001B013233074AA2FB03235B0903F00F0273
:104050007B681B680A449A6000BF1037BD4680BD6C
:10406000003801401F85EB51014B1868704700BFB5
:104070000C00002070B500260C4D0D4C641BA410E4
:10408000A64209D102F00EFD00260A4D0A4C641B1F
:10409000A410A64205D170BD55F8043B98470136DF
:1040A000EEE755F8043B98470136F2E7D46E000876
:1040B000D46E0008D46E0008D86E0008034602448F
:1040C000934200D1704703F8011BF9E7002B2DE95B
:1040D000F0471F46BBBF03F100431F4600232D23BB
:1040E00088B01446129A109D1370149BDDF84CA0F2
:1040F00023F02008B8F1460F05D0B8F1450F00D1E4
:104100000135022300E0032307AA049206AACDE9A1
:1041100002A2CDE9003522463B4600F0DDFCB8F1B5
:10412000470F064602D1119BDB0722D5B8F1460F97
:1041300006EB050910D13378302B0AD10022002379
:1041400020463946FCF730FC18B9C5F10105CAF81C
:104150000050DAF800309944002200232046394606
:10416000FCF722FC08B1CDF81C903022079B4B4590
:1041700007D33046079B159A9B1B136008B0BDE818
:10418000F087591C07911A70F0E70346F7B500292C
:1041900003F8022BB6BF2D222B2249420929427077
:1041A0002BDD0DF10704A4460A2791FBF7F60A461A
:1041B000A64607FB1615632A05F13005314604F1C2
:1041C000FF340EF8015CF0DC3031AEF1020504F88A
:1041D000011C2946441C61450AD30DF10902A2EBDA
:1041E0000E02654588BF00221344181A03B0F0BDC3
:1041F00011F8012B04F8012FEDE7302330318370E3
:10420000C170031DF1E700002DE9F04F91B00C469D
:10421000DDF8688016461F46054601F041FB03683D
:1042200018460993FBF794FF00230E93D8F800304B
:104230000A90073323F0070303F1080294F818905B
:10424000D4F800B0C8F80020D3E90023C4E9122351
:10425000D4E9128A2AF000430B934FF0FF32404614
:104260009C4B0B99FCF7D2FB70BB4FF0FF324046E2
:10427000984B0B99FCF7ACFB30BB00220023404667
:104280005146FCF79BFB10B12D2384F84330924B31
:104290009248B9F1470F94BF9846804603234FF0E8
:1042A000000A23612BF0040323603346214628468D
:1042B00000970FAA00F0D4F9013040F090804FF041
:1042C000FF3011B0BDE8F08F42465346404651469C
:1042D000FCF79CFB48B1BAF1000FB8BF2D23804812
:1042E000B8BF84F843307F4BD3E7636809F0DF0140
:1042F0005A1C42D106236360002206920EAACDE921
:1043000004920DAA4BF4806303920DF13302CDE9C0
:1043100001322360636842460093284653460B915E
:10432000FFF7D4FE0B99804647290D9908D1C81C88
:1043300002DB6368994240DDA9F102095FFA89F95D
:10434000B9F1650F1FD84A46013904F150000D91AB
:10435000FFF71BFF0E9A82461318012A236102DC25
:104360002268D20701D5013323619DF83330002B39
:104370009BD02D2384F8433097E74729BCD1002BED
:10438000BAD10123B7E7B9F1660F18D100296368E4
:104390000BDD216113B92268D00702D501330B442C
:1043A00023614FF0000AA165DFE713B92268D20745
:1043B00001D50233F4E70123F2E74FF067090E9BC2
:1043C000994205DB23682161D807EAD54B1CE7E752
:1043D0000029CCBF0122C1F102021344E0E72368A7
:1043E0005A0507D42369424631462846B84701306A
:1043F0002BD164E7B9F1650F40F2DD80D4E91201F9
:1044000000220023FCF7D0FA002833D001233146E4
:104410002846354AB84701303FF451AFDDE90D2356
:104420009A4202DB2368D8070FD5DDE9092331461C
:104430002846B84701303FF442AF4FF0000804F17E
:104440001A090E9B013B434509DC23689B0700F1D9
:104450000281E0680F9B9842B8BF184631E70123FC
:104460004A4631462846B84701303FF428AF08F1A4
:104470000108E6E70D9B002B38DC01233146284676
:10448000194AB84701303FF41AAFDDE90D23134351
:1044900002D12368D907D8D5DDE90923314628465A
:1044A000B84701303FF40BAF4FF0000904F11A0A8E
:1044B0000D9B5B424B4501DC0E9B94E7012352466A
:1044C00031462846B84701303FF4F9AE09F10109F9
:1044D000EEE700BFFFFFEF7FF86A0008FC6A000804
:1044E000046B0008006B0008086B00080E9AA36DAF
:1044F0009A42A8BF1A46002A914637DC4FF0000BBB
:1045000029EAE97904F11A02D4F858A0AAEB0903C0
:104510005B4533DCDDE90D239A423BDB2368DA0798
:1045200038D40E9A0D99A2EB0A03A2EB0109994522
:10453000A8BF9946B9F1000F34DC4FF0000829EA12
:10454000E97904F11A0ADDE90D239B1AA3EB0903AB
:1045500043457FF77AAF0123524631462846B84794
:1045600001303FF4ACAE08F10108ECE713463146E8
:1045700042462846B8470130C0D1A0E60123314663
:1045800028460B92B84701303FF499AE0B9A0BF1D5
:10459000010BB9E73146DDE909232846B847013068
:1045A000BFD18CE64B463146284608EB0A02B84795
:1045B0000130C2D183E60E9A012A01DCDB0737D530
:1045C0000123424631462846B84701303FF477AED2
:1045D000DDE9092331462846B84701303FF46FAE84
:1045E000D4E9120100220023FCF7DEF9D8B90E9BB2
:1045F00008F10102013B31462846B84701300ED18F
:104600005DE601234A4631462846B84701303FF46B
:1046100056AE08F101080E9B013B4345F1DC5346C1
:1046200004F15002E0E64FF0000804F11A09F2E745
:1046300001234246DFE701234A4631462846B84770
:1046400001303FF43CAE08F10108E3680F995B1AB2
:104650004345F0DCFDE64FF0000804F11909F4E7EA
:104660002DE9F047164699468A680B69074693423A
:10467000B8BF1346336091F843200C46DDF8208024
:104680000AB1013333602368990642BF33680233AD
:104690003360256815F0060506D104F1190AE368B0
:1046A00032689B1AAB4228DC94F84320131E226820
:1046B00018BF012392062DD44946384604F143021F
:1046C000C047013020D02368E56803F00603042BBF
:1046D00018BF002532684FF00006A36808BFAD1A66
:1046E000226908BF25EAE5759342C4BF9B1AED18FD
:1046F0001A34B5421AD1002008E001235246494637
:104700003846C047013003D14FF0FF30BDE8F08795
:104710000135C4E73020E11881F843005A1C94F8B1
:1047200045102244023382F84310C5E70123224694
:1047300049463846C0470130E6D00136D9E7000087
:104740002DE9FF470C46277E9146782F80469A46F2
:104750000C9904F1430207D8622F0AD8002F00F009
:10476000D980582F00F0A48004F1420684F84270EA
:104770003AE0A7F16303152BF6D801A050F823F017
:10478000D9470008ED470008694700086947000855
:104790006947000869470008ED47000869470008B5
:1047A000694700086947000869470008FB48000896
:1047B0001D480008DD4800086947000869470008EF
:1047C0001D490008694700081D480008694700089E
:1047D00069470008E54800080B6804F142061A1D05
:1047E0001B680A6084F842300123A4E02568086849
:1047F0002E0600F104030AD505680B60002D03DACC
:104800002D236D4284F843300A235E4819E015F0E9
:10481000400F05680B6018BF2DB2EFE70B682568E5
:10482000181D0860280601D51D6802E06906FBD541
:104830001D886F2F0CBF08230A235248002184F8DB
:1048400043106668002EA8BF2168A660A4BF21F0AF
:10485000040121600DB9002E4DD01646B5FBF3F1D1
:1048600003FB1157C75D06F8017D2F46BB420D467D
:10487000F4D9082B0BD12368DF0708D523696168B9
:104880009942DEBF302306F8013C06F1FF36921B49
:1048900022614B4621464046CDF800A003AAFFF70F
:1048A000DFFE01304CD14FF0FF3004B0BDE8F0879F
:1048B000344884F845700E68236856F8045B1F0678
:1048C0000E6014D5D90744BF43F0200323601DB9FF
:1048D000236823F0200323601023AFE7236843F00D
:1048E000200323607823284884F84530E3E75E06F8
:1048F00048BFADB2E6E71646BBE70B6826681D1D4C
:1049000060690D6035061B6801D5186002E071060C
:10491000FBD51880002316462361BAE70B681A1DE1
:104920000A601E6800213046626800F0C9FF08B1C5
:10493000801B606063682361002384F84330A8E72C
:104940003246494640462369D0470130ABD0236800
:104950009B0713D4E068039B9842B8BF1846A4E7AE
:104960000123324649464046D04701309BD00135AD
:10497000E36803995B1AAB42F2DCEBE7002504F134
:104980001906F5E70A6B00081B6B00080FB40A4B09
:1049900013B51C6824B1A36913B9204600F0E2FEE8
:1049A00005AB2046049AA168019301F003FC02B014
:1049B000BDE8104004B070470C0000202DE9F74F0F
:1049C00003690C690746A342C0F28380013C00F1F1
:1049D000140501F1140805EB8403019358F8243001
:1049E00055F8242001339A42B2FBF3F64FEA840BC8
:1049F00008EB840932D34FF0000E4046AC46F24635
:104A000050F8042B93B206FB03E3120C4FEA134E4B
:104A100006FB02E29BB2AAEB0303DCF800A04FEA1C
:104A2000124E1FFA8AFA53441FFA82FADCF8002069
:104A30008145CAEB124202EB23429BB243EA024396
:104A40004FEA224A4CF8043BDAD255F80B302BB926
:104A5000019B043B9D421A462FD33C61384601F02E
:104A6000C5F9002825DB28464FF0000C013658F820
:104A7000041BD0F800E08BB2ACEB03031FFA8EF2FC
:104A800013440A0CC2EB1E4202EB23429BB243EAE0
:104A90000243C1454FEA224C40F8043BE7D255F8A7
:104AA000242005EB840322B9043B9D421A460AD315
:104AB0003C61304603B0BDE8F08F1268043B002A29
:104AC000CBD1013CC6E71268043B002AF0D1013C7F
:104AD000EBE70020EEE700002DE9F04F16461F46F9
:104AE000446A99B00546CDE90467DDF8948074B94D
:104AF000102000F0DDFE0246686220B9EA21AE4BCC
:104B0000AE4801F0ADFDC0E901440460C4606B6AC9
:104B1000196851B15A68012393404A608B60284656
:104B200000F02AFF00226B6A1A603B1EAFBF002311
:104B3000012223F000430593A8BFC8F80030DDF838
:104B400014909F4BB8BFC8F8002033EA090319D16D
:104B500042F20F73249A1360C9F31303334300F036
:104B60008085269B53B9974B22E0974B08930833D7
:104B7000269A1360089819B0BDE8F08F914B0893FE
:104B80000333F5E7DDE90434CDE90C34DDE90C014C
:104B900000220023FBF708FF804658B10123249A26
:104BA0001360269B002B00F0598588481860431E2F
:104BB0000893DFE716AB019317AB00932846DDE9B6
:104BC0000C2301F0BFF9C9F30A548246002C7ED0B1
:104BD000DDE90C010D9BA4F2FF34C3F3130343F092
:104BE0007F5141F44011CDF84C800022784BFBF707
:104BF000BBFA6BA3D3E90023FBF76EFC6AA3D3E9EE
:104C00000023FBF7B3FA064620460F46FBF7FAFBF4
:104C100067A3D3E90023FBF75FFC02460B4630464F
:104C20003946FBF7A3FA06460F46FBF705FF0022BD
:104C30008146002330463946FBF7C0FE48B148465E
:104C4000FBF7E0FB32463B46FBF7AEFE08B909F145
:104C5000FF39B9F1160F57D8DDE90C015D4B03EBB5
:104C6000C903D3E90023FBF7A9FE00284ED0002397
:104C700009F1FF390F93169B1C1B631E099349BF53
:104C8000C4F1010300230693002354BF0693099344
:104C9000B9F1000F3CDB099BCDF838904B440993E8
:104CA00000230A93229B092B6CD8052BC4BF043B1D
:104CB0002293229BC8BF0024A3F10203D8BF012482
:104CC000032B00F28B80DFE803F02D4F4D5BDDE915
:104CD00016431C4404F23243202BC3BFC3F14003EC
:104CE00004F2124009FA03F3C3F12003C6BF26FA07
:104CF00000F0184306FA03F0FBF774FB0123A1F15F
:104D0000F871013C139370E70123B3E70F90B2E70A
:104D1000069BA3EB09030693C9F100030A93002342
:104D20000E93BFE700230B93239B002B59DC4FF01E
:104D3000010B5B46CDF808B0CDF88CB00022686A54
:104D40004260042202F114069E4241684FD928466F
:104D500000F0D2FD089000284DD102464FF4D571E5
:104D60001D4BCDE60123DEE700230B93239B09EBCC
:104D7000030B0BF10103012B0293B8BF0123DDE705
:104D80000123F2E7012400230B9422934FF0FF3B11
:104D900000221223CDF808B02392CFE7AFF30080B2
:104DA00061436F63A787D23FB3C8608B288AC63F31
:104DB000FB799F501344D33F396B0008506B0008B8
:104DC0000000F07F356B00082C6B0008096B0008B1
:104DD0000000F83FA86C0008AF6B000801230B939C
:104DE000D4E7DDF88CB05B46CDF808B0A6E701311A
:104DF00041605200A6E76B6A089A1A60029B0E2B6C
:104E000000F2A880002C00F0A580B9F1000F34DD7D
:104E10009A4A09F00F0302EBC30319F4807FD3E928
:104E20000034CDE910344FEA291416D0DDE90C0125
:104E3000934B0327D3E90823FBF778FCCDE9040162
:104E400004F00F048E4E54B9DDE91023DDE90401AE
:104E5000FBF76CFCCDE9040129E00227F2E7E1074A
:104E600008D5DDE91001D6E90023FBF735FBCDE9D4
:104E70001001013764100836E5E700F0A580DDE990
:104E80000C01C9F100047D4B04F00F0203EBC203D7
:104E9000D3E90023FBF720FB02270023CDE904011F
:104EA000774E2411002C40F08480002BD2D10F9B30
:104EB000002B00F08B80DDE90434CDE91034DDE90E
:104EC000100100226F4BFBF779FD00287ED0029B7A
:104ED000002B7BD0BBF1000F38DDDDE91001002293
:104EE000694BFBF7F9FA5C46CDE9040109F1FF389B
:104EF00001373846FBF786FADDE90423FBF7ECFAC5
:104F00000022624BFBF732F9A1F15076CDE9100196
:104F10001196002C5DD1DDE9040100225C4BFBF70A
:104F200023F902460B46CDE904233346109AFBF7DA
:104F300063FD002840F09E82DDE90401109A06F12D
:104F40000043FBF73BFD002840F09282DDE90C3482
:104F5000CDE90434179B002BC0F25381B9F10E0F39
:104F600000F34F81454B03EBC903D3E90034CDE98E
:104F70000634239B002B80F2DB80029B002B00F386
:104F8000D78040F07482DDE906010022404BFBF738
:104F9000A3FADDE90423FBF725FD029C2646002841
:104FA00040F04A823123089F09F1010907F8013BCB
:104FB00046E2E20705D5D6E90023FBF78DFA012387
:104FC0000137641008366DE7022770E7C846029C77
:104FD0008FE70899294B214412910B9903EBC403E5
:104FE000DDE9106753E90223002955D00020294943
:104FF000FBF79CFB3B463246FBF7B6F8CDE91001C8
:10500000089FDDE90401FBF717FD0446FBF7FAF9F9
:1050100002460B46DDE90401FBF7A6F802460B4603
:105020003034CDE90423DDE9102307F8014BFBF709
:10503000C5FC002874D1DDE9042300201149FBF7E9
:1050400093F8DDE91023FBF7B9FC002840F0B680A7
:10505000129B9F423FF47AAFDDE9100100220A4B18
:10506000FBF73AFA0022CDE91001DDE90401064B15
:10507000FBF732FACDE90401C3E700BFA86C0008D2
:10508000806C00080000F03F0000244000001C403D
:10509000000014400000E03F30463946FBF71CFAA0
:1050A000129BCDE91001089C1493DDE90401FBF784
:1050B000C3FC1590FBF7A6F902460B46DDE9040197
:1050C000FBF752F8159B0646303304F8013B129B60
:1050D0000F469C424FF0000224D1DDE91001B34B92
:1050E000FBF744F802460B4630463946FBF784FC92
:1050F000002862D1DDE910230020AC49FBF734F829
:1051000002460B4630463946FBF758FC00283FF470
:105110001DAF149F7B1E149317F8013C302BF8D061
:10512000C1463AE0A24BFBF7D7F9CDE90401BCE751
:10513000089FDDE90623DDE90401FBF7F7FAFBF739
:105140007BFC0446FBF75EF9DDE90623FBF7C4F9B7
:1051500004F130060B460246DDE90401FBF704F8D2
:1051600007F8016B089E029BBE1BB3423AD1024670
:105170000B46FAF7FBFF02460B46CDE90223DDE9B9
:105180000623FBF739FC58BBDDE90623DDE9020104
:10519000FBF70AFC08B1E10722D42846514600F08B
:1051A000EBFB00233B70249B09F101001860269B58
:1051B000002B3FF4DFAC1F60DCE427463B461F4674
:1051C00013F8012D392A07D1089A9A42F7D13022D3
:1051D000089908F101080A701A7801321A709FE7DD
:1051E000C846EBE70022724BFBF776F902460B4606
:1051F000CDE9042300220023FBF7D6FB002898D03A
:10520000CBE70B9A002A00F0CD80229A012A00F306
:10521000AF80139A002A00F0A78003F233430A9C60
:10522000069F069A01211A440692099A28461A44B2
:10523000099200F05BFC0646002F0CDD099B002B59
:1052400009DDBB42A8BF3B46069AFF1AD21A069256
:10525000099AD31A09930A9BF3B10B9B002B00F018
:10526000A980002C10DD31462246284600F0F8FCCB
:10527000524601460646284600F04EFC80465146FE
:10528000284600F079FBC2460A9B1A1B04D05146FF
:10529000284600F0E5FC82460121284600F026FC65
:1052A0000E9B0446002B40F387801A460146284691
:1052B00000F0D6FC229B0446012B40F380804FF087
:1052C0000008236904EB8303186900F0C1FBC0F1F7
:1052D0002000099B184410F01F0000F09280C0F1DC
:1052E0002003042B40F38A80C0F11C00069B074476
:1052F00003440693099B03440993069B002B05DD99
:1053000051461A46284600F005FD8246099B002BAF
:1053100005DD21461A46284600F0FCFC04460F9B9A
:10532000002B70D02146504600F060FD00286ADA5C
:10533000002351460A22284600F040FB0B9B824680
:1053400009F1FF39002B00F09381314600230A2236
:10535000284600F033FBBBF1000F064600F39380B4
:10536000229B022B57DC8EE0169BC3F1360356E7D7
:10537000029B5C1E0A9BA342B7BF0A9B1C1BE21A3E
:105380000E9BBEBF0A949B180E93029BB8BF0024CD
:10539000002BBBBF069B029A069F9F1AACBF029BC5
:1053A00000233EE70A9C069F0B9E45E70000E03F76
:1053B000000024400A9A6AE7229B012B19DC049B17
:1053C000BBB9059BC3F313039BB9059B23F00043B3
:1053D0001B0D1B0583B14FF00108069B013306939B
:1053E000099B013309930E9B002B7FF46AAF0120C8
:1053F0006FE74FF00008F6E79846F4E73FF47DAF1B
:1054000018461C3072E7029B002B36DC229B022BD5
:1054100033DDDDF808B0BBF1000F0DD121465B464E
:105420000522284600F0CAFA01460446504600F01C
:10543000DDFC00283FF7B6AD239B089F6FEA030908
:105440004FF000082146284600F096FA002E3FF45F
:10545000A4AEB8F1000F05D0B04503D041462846B0
:1054600000F08AFA3146284600F086FA95E60024D4
:105470002646E1E7C146264694E50B9BDDF808B0D9
:10548000002B00F0FC80002F05DD31463A4628460F
:1054900000F040FC0646B8F1000F5CD02846716869
:1054A00000F02AFA074628B9024640F2EA217E4B6C
:1054B000FFF726BB326906F10C01023292000C3074
:1054C00000F00CFA01223946284600F023FCB046D1
:1054D0000646089B01330293089B5B440A93049B96
:1054E00003F001030993029B2146504603F1FF3B61
:1054F000FFF764FA034641463033049050460B935D
:1055000000F074FC324606902146284600F08AFCE2
:10551000C26807460B9B02BB0146504600F066FC82
:1055200002460B9B39462846CDE90B3200F024FA9F
:10553000229B0C9A029F43EA0201099B0B430B9B9F
:105540000DD1392B27D0069A002A01DD049B313377
:105550008BF8003076E73046B9E70122E2E706999A
:10556000002904DB229801430998014320D1002A35
:10557000EEDD514601222846029300F0CBFB214686
:10558000824600F033FC0028029B02DCE0D1DA07FF
:10559000DED5392BDAD139238BF800303B461F4654
:1055A00017F8012C013B392A50D001321A7049E713
:1055B000002A03DD392BEED00133C9E7029A0A999C
:1055C00002F8013C8A422AD0514600230A2228468A
:1055D00000F0F4F9B04582464FF000034FF00A02A4
:1055E0004146284607D100F0E9F980460646029B6D
:1055F0000133029377E700F0E1F93146804600235A
:105600000A22284600F0DAF90646F0E7BBF1000F5F
:10561000CCBF5F4601274FF00008089A1744514657
:1056200001222846029300F075FB2146824600F0D5
:10563000DDFB0028B2DC02D1029BDB07AED43B4687
:105640001F4613F8012D302AFAD0FBE6089A9A4239
:10565000A5D1312309F101091370F3E6134BFFF7CC
:10566000A7BA269B002B7FF480AA114BFFF7A0BAA4
:10567000BBF1000F03DC229B022B3FF7CCAE089F4F
:1056800021465046FFF79AF9089A00F1300307F8CF
:10569000013BBA1A9345B9DD514600230A22284638
:1056A00000F08CF98246EBE7AF6B0008086B00084E
:1056B0002C6B0008002310B50446C0E90033C0E994
:1056C0000433836081814366C28183611946082265
:1056D0005C30FEF7F3FC054B24626362044BA3626B
:1056E000044BE362044B236310BD00BF3564000824
:1056F000576400088F640008B3640008014900F093
:10570000AFB800BFC967000870B568254A1E554389
:105710000E4605F1740100F0CBFC044640B10021B7
:10572000C0E900160C30A06005F16802FEF7C6FC67
:10573000204670BD014800F0B8B800BFE802002064
:10574000014800F0B3B800BFE8020020014800F0B3
:10575000ACB800BFE3020020014800F0A7B800BFCA
:10576000E302002010B50446FFF7F0FFA3691BB168
:10577000BDE81040FFF7F0BFC4E912332365134BB7
:10578000134A1B68A262A34208BF0123204608BF38
:10579000A36100F01FF86060204600F01BF8A060D5
:1057A000204600F017F800220421E0606068FFF74F
:1057B00081FF01220921A068FFF77CFF022212214C
:1057C000E068FFF777FF0123A361D1E7F46A0008DF
:1057D000FD560008F8B50746FFF7ACFF1E4B1E68E4
:1057E000B36913B93046FFF7BDFF4836D6E9013437
:1057F000013B03D533680BB33668F7E7B4F90C50B7
:10580000D5B9164B04F15800E360656600F04CF81A
:10581000FFF796FF08222946C4E90155C4E904555B
:105820002560A56104F15C00FEF748FCC4E90D5554
:10583000C4E912552046F8BD6834D9E7042138463A
:10584000FFF762FF044630600028D5D1FFF778FFEC
:105850000C233B60EEE700BFF46A00080100FFFF85
:105860002DE9F84306468846002700F14804D4E9AC
:105870000195B9F1010905D52468002CF7D1384606
:10588000BDE8F883AB89012B07D9B5F90E30013398
:1058900003D029463046C04707436835E9E7000092
:1058A0000048704760010020704770477047000053
:1058B000024B0146186800F0FBBB00BF0C00002043
:1058C000034610B5C9B202449342184601D10020E4
:1058D00003E0047801338C42F6D110BD0A449142B2
:1058E00000F1FF3300D1704710B511F8014B914220
:1058F00003F8014FF9D110BD70B5466A04460D4654
:1059000076B91020FFF7D4FF0246606220B9662105
:10591000174B184800F0A4FEC0E901660660C66097
:10592000666AF36883B1636ADB6853F82500B8B927
:10593000012101FA05F6721D2046920000F05EFB7F
:1059400060B1C0E901560EE021220421204600F09A
:1059500055FB636AF060DB68002BE4D1002070BD6A
:10596000026843F825200023C0E90333F7E700BFAE
:10597000396B0008206C000870B5466A05460C4675
:1059800076B91020FFF794FF0246686220B98A2199
:10599000084B094800F064FEC0E901660660C66075
:1059A0003CB16B6A6268DB6853F82210216043F8EF
:1059B000224070BD396B0008206C00082DE9F041D1
:1059C00098460C4600230E69074601F1140005684D
:1059D0000133A9B202FB01812D0C4FEA114C02FBED
:1059E00005C589B201EB05419E424FEA154840F8D2
:1059F000041BECDCB8F1000F22D0A368B34219DC21
:105A0000616838460131FFF777FF054628B902463D
:105A1000B5210D4B0D4800F023FE226904F10C0165
:105A2000023292000C30FFF759FF21463846FFF74B
:105A3000A3FF2C4604EB86030136C3F814802661CD
:105A40002046BDE8F08100BFAF6B0008206C000865
:105A5000020C12040346CAB90304102013F07F4F4E
:105A600004BF1B02083013F0704F04BF1B01043049
:105A700013F0404F04BF9B000230002B05DB13F0F6
:105A8000804F00F1010008BF202070470020E5E7AB
:105A90000368024613F007000BD0D90722D49807F9
:105AA00049BF5B089B08012013605CBF02201360A4
:105AB000704799B209B910201B0C13F0FF0F04BFF7
:105AC0001B0A0830190704BF1B090430990704BFDB
:105AD0009B080230D90703D45B0800F1010003D012
